{
	"format": "sphinx-sol-ct-artifact-1",
	"address": "0x5582201edf03b4a0844ad762b5879058a784285e",
	"sourceName": "node_modules/@bananapus/router-terminal-v6/src/JBRouterTerminal.sol",
	"contractName": "JBRouterTerminal",
	"chainId": "0x66eee",
	"abi": [
		{
			"type": "constructor",
			"inputs": [
				{
					"name": "directory",
					"type": "address",
					"internalType": "contract IJBDirectory"
				},
				{
					"name": "tokens",
					"type": "address",
					"internalType": "contract IJBTokens"
				},
				{
					"name": "permit2",
					"type": "address",
					"internalType": "contract IPermit2"
				},
				{
					"name": "buybackHook",
					"type": "address",
					"internalType": "address"
				},
				{
					"name": "trustedForwarder",
					"type": "address",
					"internalType": "address"
				},
				{
					"name": "deployer",
					"type": "address",
					"internalType": "address"
				}
			],
			"stateMutability": "nonpayable"
		},
		{
			"type": "receive",
			"stateMutability": "payable"
		},
		{
			"type": "function",
			"name": "BUYBACK_HOOK",
			"inputs": [],
			"outputs": [
				{
					"name": "",
					"type": "address",
					"internalType": "address"
				}
			],
			"stateMutability": "view"
		},
		{
			"type": "function",
			"name": "DEFAULT_TWAP_WINDOW",
			"inputs": [],
			"outputs": [
				{
					"name": "",
					"type": "uint256",
					"internalType": "uint256"
				}
			],
			"stateMutability": "view"
		},
		{
			"type": "function",
			"name": "DIRECTORY",
			"inputs": [],
			"outputs": [
				{
					"name": "",
					"type": "address",
					"internalType": "contract IJBDirectory"
				}
			],
			"stateMutability": "view"
		},
		{
			"type": "function",
			"name": "MIN_TWAP_WINDOW",
			"inputs": [],
			"outputs": [
				{
					"name": "",
					"type": "uint32",
					"internalType": "uint32"
				}
			],
			"stateMutability": "view"
		},
		{
			"type": "function",
			"name": "PERMIT2",
			"inputs": [],
			"outputs": [
				{
					"name": "",
					"type": "address",
					"internalType": "contract IPermit2"
				}
			],
			"stateMutability": "view"
		},
		{
			"type": "function",
			"name": "TOKENS",
			"inputs": [],
			"outputs": [
				{
					"name": "",
					"type": "address",
					"internalType": "contract IJBTokens"
				}
			],
			"stateMutability": "view"
		},
		{
			"type": "function",
			"name": "accountingContextForTokenOf",
			"inputs": [
				{
					"name": "",
					"type": "uint256",
					"internalType": "uint256"
				},
				{
					"name": "token",
					"type": "address",
					"internalType": "address"
				}
			],
			"outputs": [
				{
					"name": "",
					"type": "tuple",
					"internalType": "struct JBAccountingContext",
					"components": [
						{
							"name": "token",
							"type": "address",
							"internalType": "address"
						},
						{
							"name": "decimals",
							"type": "uint8",
							"internalType": "uint8"
						},
						{
							"name": "currency",
							"type": "uint32",
							"internalType": "uint32"
						}
					]
				}
			],
			"stateMutability": "view"
		},
		{
			"type": "function",
			"name": "accountingContextsOf",
			"inputs": [
				{
					"name": "projectId",
					"type": "uint256",
					"internalType": "uint256"
				}
			],
			"outputs": [
				{
					"name": "contexts",
					"type": "tuple[]",
					"internalType": "struct JBAccountingContext[]",
					"components": [
						{
							"name": "token",
							"type": "address",
							"internalType": "address"
						},
						{
							"name": "decimals",
							"type": "uint8",
							"internalType": "uint8"
						},
						{
							"name": "currency",
							"type": "uint32",
							"internalType": "uint32"
						}
					]
				}
			],
			"stateMutability": "pure"
		},
		{
			"type": "function",
			"name": "addAccountingContextsFor",
			"inputs": [
				{
					"name": "projectId",
					"type": "uint256",
					"internalType": "uint256"
				},
				{
					"name": "accountingContexts",
					"type": "tuple[]",
					"internalType": "struct JBAccountingContext[]",
					"components": [
						{
							"name": "token",
							"type": "address",
							"internalType": "address"
						},
						{
							"name": "decimals",
							"type": "uint8",
							"internalType": "uint8"
						},
						{
							"name": "currency",
							"type": "uint32",
							"internalType": "uint32"
						}
					]
				}
			],
			"outputs": [],
			"stateMutability": "nonpayable"
		},
		{
			"type": "function",
			"name": "addToBalanceOf",
			"inputs": [
				{
					"name": "projectId",
					"type": "uint256",
					"internalType": "uint256"
				},
				{
					"name": "token",
					"type": "address",
					"internalType": "address"
				},
				{
					"name": "amount",
					"type": "uint256",
					"internalType": "uint256"
				},
				{
					"name": "shouldReturnHeldFees",
					"type": "bool",
					"internalType": "bool"
				},
				{
					"name": "memo",
					"type": "string",
					"internalType": "string"
				},
				{
					"name": "metadata",
					"type": "bytes",
					"internalType": "bytes"
				}
			],
			"outputs": [],
			"stateMutability": "payable"
		},
		{
			"type": "function",
			"name": "bestPoolLiquidityOf",
			"inputs": [
				{
					"name": "tokenA",
					"type": "address",
					"internalType": "address"
				},
				{
					"name": "tokenB",
					"type": "address",
					"internalType": "address"
				}
			],
			"outputs": [
				{
					"name": "",
					"type": "uint128",
					"internalType": "uint128"
				}
			],
			"stateMutability": "view"
		},
		{
			"type": "function",
			"name": "currentSurplusOf",
			"inputs": [
				{
					"name": "projectId",
					"type": "uint256",
					"internalType": "uint256"
				},
				{
					"name": "tokens",
					"type": "address[]",
					"internalType": "address[]"
				},
				{
					"name": "decimals",
					"type": "uint256",
					"internalType": "uint256"
				},
				{
					"name": "currency",
					"type": "uint256",
					"internalType": "uint256"
				}
			],
			"outputs": [
				{
					"name": "surplus",
					"type": "uint256",
					"internalType": "uint256"
				}
			],
			"stateMutability": "pure"
		},
		{
			"type": "function",
			"name": "discoverBestPool",
			"inputs": [
				{
					"name": "normalizedTokenIn",
					"type": "address",
					"internalType": "address"
				},
				{
					"name": "normalizedTokenOut",
					"type": "address",
					"internalType": "address"
				}
			],
			"outputs": [
				{
					"name": "",
					"type": "tuple",
					"internalType": "struct PoolInfo",
					"components": [
						{
							"name": "isV4",
							"type": "bool",
							"internalType": "bool"
						},
						{
							"name": "v3Pool",
							"type": "address",
							"internalType": "contract IUniswapV3Pool"
						},
						{
							"name": "v4Key",
							"type": "tuple",
							"internalType": "struct PoolKey",
							"components": [
								{
									"name": "currency0",
									"type": "address",
									"internalType": "Currency"
								},
								{
									"name": "currency1",
									"type": "address",
									"internalType": "Currency"
								},
								{
									"name": "fee",
									"type": "uint24",
									"internalType": "uint24"
								},
								{
									"name": "tickSpacing",
									"type": "int24",
									"internalType": "int24"
								},
								{
									"name": "hooks",
									"type": "address",
									"internalType": "contract IHooks"
								}
							]
						}
					]
				}
			],
			"stateMutability": "view"
		},
		{
			"type": "function",
			"name": "discoverPool",
			"inputs": [
				{
					"name": "normalizedTokenIn",
					"type": "address",
					"internalType": "address"
				},
				{
					"name": "normalizedTokenOut",
					"type": "address",
					"internalType": "address"
				}
			],
			"outputs": [
				{
					"name": "pool",
					"type": "address",
					"internalType": "contract IUniswapV3Pool"
				}
			],
			"stateMutability": "view"
		},
		{
			"type": "function",
			"name": "factory",
			"inputs": [],
			"outputs": [
				{
					"name": "",
					"type": "address",
					"internalType": "contract IUniswapV3Factory"
				}
			],
			"stateMutability": "view"
		},
		{
			"type": "function",
			"name": "isTrustedForwarder",
			"inputs": [
				{
					"name": "forwarder",
					"type": "address",
					"internalType": "address"
				}
			],
			"outputs": [
				{
					"name": "",
					"type": "bool",
					"internalType": "bool"
				}
			],
			"stateMutability": "view"
		},
		{
			"type": "function",
			"name": "migrateBalanceOf",
			"inputs": [
				{
					"name": "projectId",
					"type": "uint256",
					"internalType": "uint256"
				},
				{
					"name": "token",
					"type": "address",
					"internalType": "address"
				},
				{
					"name": "to",
					"type": "address",
					"internalType": "contract IJBTerminal"
				}
			],
			"outputs": [
				{
					"name": "balance",
					"type": "uint256",
					"internalType": "uint256"
				}
			],
			"stateMutability": "pure"
		},
		{
			"type": "function",
			"name": "pay",
			"inputs": [
				{
					"name": "projectId",
					"type": "uint256",
					"internalType": "uint256"
				},
				{
					"name": "token",
					"type": "address",
					"internalType": "address"
				},
				{
					"name": "amount",
					"type": "uint256",
					"internalType": "uint256"
				},
				{
					"name": "beneficiary",
					"type": "address",
					"internalType": "address"
				},
				{
					"name": "minReturnedTokens",
					"type": "uint256",
					"internalType": "uint256"
				},
				{
					"name": "memo",
					"type": "string",
					"internalType": "string"
				},
				{
					"name": "metadata",
					"type": "bytes",
					"internalType": "bytes"
				}
			],
			"outputs": [
				{
					"name": "beneficiaryTokenCount",
					"type": "uint256",
					"internalType": "uint256"
				}
			],
			"stateMutability": "payable"
		},
		{
			"type": "function",
			"name": "poolManager",
			"inputs": [],
			"outputs": [
				{
					"name": "",
					"type": "address",
					"internalType": "contract IPoolManager"
				}
			],
			"stateMutability": "view"
		},
		{
			"type": "function",
			"name": "previewCashOutLoopOf",
			"inputs": [
				{
					"name": "destProjectId",
					"type": "uint256",
					"internalType": "uint256"
				},
				{
					"name": "token",
					"type": "address",
					"internalType": "address"
				},
				{
					"name": "amount",
					"type": "uint256",
					"internalType": "uint256"
				},
				{
					"name": "metadata",
					"type": "bytes",
					"internalType": "bytes"
				},
				{
					"name": "preferredToken",
					"type": "address",
					"internalType": "address"
				}
			],
			"outputs": [
				{
					"name": "destTerminal",
					"type": "address",
					"internalType": "contract IJBTerminal"
				},
				{
					"name": "finalToken",
					"type": "address",
					"internalType": "address"
				},
				{
					"name": "finalAmount",
					"type": "uint256",
					"internalType": "uint256"
				}
			],
			"stateMutability": "view"
		},
		{
			"type": "function",
			"name": "previewPayFor",
			"inputs": [
				{
					"name": "projectId",
					"type": "uint256",
					"internalType": "uint256"
				},
				{
					"name": "token",
					"type": "address",
					"internalType": "address"
				},
				{
					"name": "amount",
					"type": "uint256",
					"internalType": "uint256"
				},
				{
					"name": "beneficiary",
					"type": "address",
					"internalType": "address"
				},
				{
					"name": "metadata",
					"type": "bytes",
					"internalType": "bytes"
				}
			],
			"outputs": [
				{
					"name": "ruleset",
					"type": "tuple",
					"internalType": "struct JBRuleset",
					"components": [
						{
							"name": "cycleNumber",
							"type": "uint48",
							"internalType": "uint48"
						},
						{
							"name": "id",
							"type": "uint48",
							"internalType": "uint48"
						},
						{
							"name": "basedOnId",
							"type": "uint48",
							"internalType": "uint48"
						},
						{
							"name": "start",
							"type": "uint48",
							"internalType": "uint48"
						},
						{
							"name": "duration",
							"type": "uint32",
							"internalType": "uint32"
						},
						{
							"name": "weight",
							"type": "uint112",
							"internalType": "uint112"
						},
						{
							"name": "weightCutPercent",
							"type": "uint32",
							"internalType": "uint32"
						},
						{
							"name": "approvalHook",
							"type": "address",
							"internalType": "contract IJBRulesetApprovalHook"
						},
						{
							"name": "metadata",
							"type": "uint256",
							"internalType": "uint256"
						}
					]
				},
				{
					"name": "beneficiaryTokenCount",
					"type": "uint256",
					"internalType": "uint256"
				},
				{
					"name": "reservedTokenCount",
					"type": "uint256",
					"internalType": "uint256"
				},
				{
					"name": "hookSpecifications",
					"type": "tuple[]",
					"internalType": "struct JBPayHookSpecification[]",
					"components": [
						{
							"name": "hook",
							"type": "address",
							"internalType": "contract IJBPayHook"
						},
						{
							"name": "noop",
							"type": "bool",
							"internalType": "bool"
						},
						{
							"name": "amount",
							"type": "uint256",
							"internalType": "uint256"
						},
						{
							"name": "metadata",
							"type": "bytes",
							"internalType": "bytes"
						}
					]
				}
			],
			"stateMutability": "view"
		},
		{
			"type": "function",
			"name": "previewSwapAmountOutOf",
			"inputs": [
				{
					"name": "tokenIn",
					"type": "address",
					"internalType": "address"
				},
				{
					"name": "tokenOut",
					"type": "address",
					"internalType": "address"
				},
				{
					"name": "amount",
					"type": "uint256",
					"internalType": "uint256"
				},
				{
					"name": "metadata",
					"type": "bytes",
					"internalType": "bytes"
				}
			],
			"outputs": [
				{
					"name": "amountOut",
					"type": "uint256",
					"internalType": "uint256"
				}
			],
			"stateMutability": "view"
		},
		{
			"type": "function",
			"name": "previewTerminalPayOf",
			"inputs": [
				{
					"name": "destTerminal",
					"type": "address",
					"internalType": "contract IJBTerminal"
				},
				{
					"name": "projectId",
					"type": "uint256",
					"internalType": "uint256"
				},
				{
					"name": "token",
					"type": "address",
					"internalType": "address"
				},
				{
					"name": "amount",
					"type": "uint256",
					"internalType": "uint256"
				},
				{
					"name": "beneficiary",
					"type": "address",
					"internalType": "address"
				},
				{
					"name": "metadata",
					"type": "bytes",
					"internalType": "bytes"
				}
			],
			"outputs": [
				{
					"name": "",
					"type": "tuple",
					"internalType": "struct JBRuleset",
					"components": [
						{
							"name": "cycleNumber",
							"type": "uint48",
							"internalType": "uint48"
						},
						{
							"name": "id",
							"type": "uint48",
							"internalType": "uint48"
						},
						{
							"name": "basedOnId",
							"type": "uint48",
							"internalType": "uint48"
						},
						{
							"name": "start",
							"type": "uint48",
							"internalType": "uint48"
						},
						{
							"name": "duration",
							"type": "uint32",
							"internalType": "uint32"
						},
						{
							"name": "weight",
							"type": "uint112",
							"internalType": "uint112"
						},
						{
							"name": "weightCutPercent",
							"type": "uint32",
							"internalType": "uint32"
						},
						{
							"name": "approvalHook",
							"type": "address",
							"internalType": "contract IJBRulesetApprovalHook"
						},
						{
							"name": "metadata",
							"type": "uint256",
							"internalType": "uint256"
						}
					]
				},
				{
					"name": "",
					"type": "uint256",
					"internalType": "uint256"
				},
				{
					"name": "",
					"type": "uint256",
					"internalType": "uint256"
				},
				{
					"name": "",
					"type": "tuple[]",
					"internalType": "struct JBPayHookSpecification[]",
					"components": [
						{
							"name": "hook",
							"type": "address",
							"internalType": "contract IJBPayHook"
						},
						{
							"name": "noop",
							"type": "bool",
							"internalType": "bool"
						},
						{
							"name": "amount",
							"type": "uint256",
							"internalType": "uint256"
						},
						{
							"name": "metadata",
							"type": "bytes",
							"internalType": "bytes"
						}
					]
				}
			],
			"stateMutability": "view"
		},
		{
			"type": "function",
			"name": "setChainSpecificConstants",
			"inputs": [
				{
					"name": "newWrappedNativeToken",
					"type": "address",
					"internalType": "contract IWETH9"
				},
				{
					"name": "newFactory",
					"type": "address",
					"internalType": "contract IUniswapV3Factory"
				},
				{
					"name": "newPoolManager",
					"type": "address",
					"internalType": "contract IPoolManager"
				},
				{
					"name": "newUniv4Hook",
					"type": "address",
					"internalType": "address"
				}
			],
			"outputs": [],
			"stateMutability": "nonpayable"
		},
		{
			"type": "function",
			"name": "supportsInterface",
			"inputs": [
				{
					"name": "interfaceId",
					"type": "bytes4",
					"internalType": "bytes4"
				}
			],
			"outputs": [
				{
					"name": "",
					"type": "bool",
					"internalType": "bool"
				}
			],
			"stateMutability": "view"
		},
		{
			"type": "function",
			"name": "trustedForwarder",
			"inputs": [],
			"outputs": [
				{
					"name": "",
					"type": "address",
					"internalType": "address"
				}
			],
			"stateMutability": "view"
		},
		{
			"type": "function",
			"name": "uniswapV3SwapCallback",
			"inputs": [
				{
					"name": "amount0Delta",
					"type": "int256",
					"internalType": "int256"
				},
				{
					"name": "amount1Delta",
					"type": "int256",
					"internalType": "int256"
				},
				{
					"name": "data",
					"type": "bytes",
					"internalType": "bytes"
				}
			],
			"outputs": [],
			"stateMutability": "nonpayable"
		},
		{
			"type": "function",
			"name": "univ4Hook",
			"inputs": [],
			"outputs": [
				{
					"name": "",
					"type": "address",
					"internalType": "address"
				}
			],
			"stateMutability": "view"
		},
		{
			"type": "function",
			"name": "unlockCallback",
			"inputs": [
				{
					"name": "data",
					"type": "bytes",
					"internalType": "bytes"
				}
			],
			"outputs": [
				{
					"name": "",
					"type": "bytes",
					"internalType": "bytes"
				}
			],
			"stateMutability": "nonpayable"
		},
		{
			"type": "function",
			"name": "wrappedNativeToken",
			"inputs": [],
			"outputs": [
				{
					"name": "",
					"type": "address",
					"internalType": "contract IWETH9"
				}
			],
			"stateMutability": "view"
		},
		{
			"type": "event",
			"name": "AddToBalance",
			"inputs": [
				{
					"name": "projectId",
					"type": "uint256",
					"indexed": true,
					"internalType": "uint256"
				},
				{
					"name": "amount",
					"type": "uint256",
					"indexed": false,
					"internalType": "uint256"
				},
				{
					"name": "returnedFees",
					"type": "uint256",
					"indexed": false,
					"internalType": "uint256"
				},
				{
					"name": "memo",
					"type": "string",
					"indexed": false,
					"internalType": "string"
				},
				{
					"name": "metadata",
					"type": "bytes",
					"indexed": false,
					"internalType": "bytes"
				},
				{
					"name": "caller",
					"type": "address",
					"indexed": false,
					"internalType": "address"
				}
			],
			"anonymous": false
		},
		{
			"type": "event",
			"name": "HookAfterRecordPay",
			"inputs": [
				{
					"name": "hook",
					"type": "address",
					"indexed": true,
					"internalType": "contract IJBPayHook"
				},
				{
					"name": "context",
					"type": "tuple",
					"indexed": false,
					"internalType": "struct JBAfterPayRecordedContext",
					"components": [
						{
							"name": "payer",
							"type": "address",
							"internalType": "address"
						},
						{
							"name": "projectId",
							"type": "uint256",
							"internalType": "uint256"
						},
						{
							"name": "rulesetId",
							"type": "uint256",
							"internalType": "uint256"
						},
						{
							"name": "amount",
							"type": "tuple",
							"internalType": "struct JBTokenAmount",
							"components": [
								{
									"name": "token",
									"type": "address",
									"internalType": "address"
								},
								{
									"name": "decimals",
									"type": "uint8",
									"internalType": "uint8"
								},
								{
									"name": "currency",
									"type": "uint32",
									"internalType": "uint32"
								},
								{
									"name": "value",
									"type": "uint256",
									"internalType": "uint256"
								}
							]
						},
						{
							"name": "forwardedAmount",
							"type": "tuple",
							"internalType": "struct JBTokenAmount",
							"components": [
								{
									"name": "token",
									"type": "address",
									"internalType": "address"
								},
								{
									"name": "decimals",
									"type": "uint8",
									"internalType": "uint8"
								},
								{
									"name": "currency",
									"type": "uint32",
									"internalType": "uint32"
								},
								{
									"name": "value",
									"type": "uint256",
									"internalType": "uint256"
								}
							]
						},
						{
							"name": "weight",
							"type": "uint256",
							"internalType": "uint256"
						},
						{
							"name": "newlyIssuedTokenCount",
							"type": "uint256",
							"internalType": "uint256"
						},
						{
							"name": "beneficiary",
							"type": "address",
							"internalType": "address"
						},
						{
							"name": "hookMetadata",
							"type": "bytes",
							"internalType": "bytes"
						},
						{
							"name": "payerMetadata",
							"type": "bytes",
							"internalType": "bytes"
						}
					]
				},
				{
					"name": "specificationAmount",
					"type": "uint256",
					"indexed": false,
					"internalType": "uint256"
				},
				{
					"name": "caller",
					"type": "address",
					"indexed": false,
					"internalType": "address"
				}
			],
			"anonymous": false
		},
		{
			"type": "event",
			"name": "MigrateTerminal",
			"inputs": [
				{
					"name": "projectId",
					"type": "uint256",
					"indexed": true,
					"internalType": "uint256"
				},
				{
					"name": "token",
					"type": "address",
					"indexed": true,
					"internalType": "address"
				},
				{
					"name": "to",
					"type": "address",
					"indexed": true,
					"internalType": "contract IJBTerminal"
				},
				{
					"name": "amount",
					"type": "uint256",
					"indexed": false,
					"internalType": "uint256"
				},
				{
					"name": "caller",
					"type": "address",
					"indexed": false,
					"internalType": "address"
				}
			],
			"anonymous": false
		},
		{
			"type": "event",
			"name": "Pay",
			"inputs": [
				{
					"name": "rulesetId",
					"type": "uint256",
					"indexed": true,
					"internalType": "uint256"
				},
				{
					"name": "rulesetCycleNumber",
					"type": "uint256",
					"indexed": true,
					"internalType": "uint256"
				},
				{
					"name": "projectId",
					"type": "uint256",
					"indexed": true,
					"internalType": "uint256"
				},
				{
					"name": "payer",
					"type": "address",
					"indexed": false,
					"internalType": "address"
				},
				{
					"name": "beneficiary",
					"type": "address",
					"indexed": false,
					"internalType": "address"
				},
				{
					"name": "amount",
					"type": "uint256",
					"indexed": false,
					"internalType": "uint256"
				},
				{
					"name": "newlyIssuedTokenCount",
					"type": "uint256",
					"indexed": false,
					"internalType": "uint256"
				},
				{
					"name": "memo",
					"type": "string",
					"indexed": false,
					"internalType": "string"
				},
				{
					"name": "metadata",
					"type": "bytes",
					"indexed": false,
					"internalType": "bytes"
				},
				{
					"name": "caller",
					"type": "address",
					"indexed": false,
					"internalType": "address"
				}
			],
			"anonymous": false
		},
		{
			"type": "event",
			"name": "Permit2AllowanceFailed",
			"inputs": [
				{
					"name": "token",
					"type": "address",
					"indexed": true,
					"internalType": "address"
				},
				{
					"name": "owner",
					"type": "address",
					"indexed": true,
					"internalType": "address"
				},
				{
					"name": "reason",
					"type": "bytes",
					"indexed": false,
					"internalType": "bytes"
				}
			],
			"anonymous": false
		},
		{
			"type": "event",
			"name": "Permit2AllowanceFailed",
			"inputs": [
				{
					"name": "token",
					"type": "address",
					"indexed": true,
					"internalType": "address"
				},
				{
					"name": "owner",
					"type": "address",
					"indexed": true,
					"internalType": "address"
				},
				{
					"name": "reason",
					"type": "bytes",
					"indexed": false,
					"internalType": "bytes"
				},
				{
					"name": "caller",
					"type": "address",
					"indexed": false,
					"internalType": "address"
				}
			],
			"anonymous": false
		},
		{
			"type": "event",
			"name": "SetAccountingContext",
			"inputs": [
				{
					"name": "projectId",
					"type": "uint256",
					"indexed": true,
					"internalType": "uint256"
				},
				{
					"name": "context",
					"type": "tuple",
					"indexed": false,
					"internalType": "struct JBAccountingContext",
					"components": [
						{
							"name": "token",
							"type": "address",
							"internalType": "address"
						},
						{
							"name": "decimals",
							"type": "uint8",
							"internalType": "uint8"
						},
						{
							"name": "currency",
							"type": "uint32",
							"internalType": "uint32"
						}
					]
				},
				{
					"name": "caller",
					"type": "address",
					"indexed": false,
					"internalType": "address"
				}
			],
			"anonymous": false
		},
		{
			"type": "error",
			"name": "FailedCall",
			"inputs": []
		},
		{
			"type": "error",
			"name": "InsufficientBalance",
			"inputs": [
				{
					"name": "balance",
					"type": "uint256",
					"internalType": "uint256"
				},
				{
					"name": "needed",
					"type": "uint256",
					"internalType": "uint256"
				}
			]
		},
		{
			"type": "error",
			"name": "JBRouterTerminal_AlreadyConfigured",
			"inputs": []
		},
		{
			"type": "error",
			"name": "JBRouterTerminal_AmountOverflow",
			"inputs": [
				{
					"name": "amount",
					"type": "uint256",
					"internalType": "uint256"
				}
			]
		},
		{
			"type": "error",
			"name": "JBRouterTerminal_CallerNotPool",
			"inputs": [
				{
					"name": "caller",
					"type": "address",
					"internalType": "address"
				}
			]
		},
		{
			"type": "error",
			"name": "JBRouterTerminal_CallerNotPoolManager",
			"inputs": [
				{
					"name": "caller",
					"type": "address",
					"internalType": "address"
				}
			]
		},
		{
			"type": "error",
			"name": "JBRouterTerminal_CashOutDidNotDeliver",
			"inputs": [
				{
					"name": "sourceToken",
					"type": "address",
					"internalType": "address"
				},
				{
					"name": "tokenToReclaim",
					"type": "address",
					"internalType": "address"
				},
				{
					"name": "cashOutCount",
					"type": "uint256",
					"internalType": "uint256"
				}
			]
		},
		{
			"type": "error",
			"name": "JBRouterTerminal_CashOutLoopLimit",
			"inputs": [
				{
					"name": "maxIterations",
					"type": "uint256",
					"internalType": "uint256"
				}
			]
		},
		{
			"type": "error",
			"name": "JBRouterTerminal_InsufficientTwapHistory",
			"inputs": [
				{
					"name": "pool",
					"type": "address",
					"internalType": "address"
				},
				{
					"name": "twapWindow",
					"type": "uint256",
					"internalType": "uint256"
				},
				{
					"name": "minTwapWindow",
					"type": "uint256",
					"internalType": "uint256"
				}
			]
		},
		{
			"type": "error",
			"name": "JBRouterTerminal_ManipulationResistantQuoteRequired",
			"inputs": [
				{
					"name": "poolId",
					"type": "bytes32",
					"internalType": "PoolId"
				}
			]
		},
		{
			"type": "error",
			"name": "JBRouterTerminal_NoCashOutPath",
			"inputs": [
				{
					"name": "sourceProjectId",
					"type": "uint256",
					"internalType": "uint256"
				},
				{
					"name": "destProjectId",
					"type": "uint256",
					"internalType": "uint256"
				}
			]
		},
		{
			"type": "error",
			"name": "JBRouterTerminal_NoLiquidity",
			"inputs": [
				{
					"name": "pool",
					"type": "address",
					"internalType": "address"
				},
				{
					"name": "poolId",
					"type": "bytes32",
					"internalType": "PoolId"
				}
			]
		},
		{
			"type": "error",
			"name": "JBRouterTerminal_NoMsgValueAllowed",
			"inputs": [
				{
					"name": "value",
					"type": "uint256",
					"internalType": "uint256"
				}
			]
		},
		{
			"type": "error",
			"name": "JBRouterTerminal_NoObservationHistory",
			"inputs": [
				{
					"name": "pool",
					"type": "address",
					"internalType": "address"
				}
			]
		},
		{
			"type": "error",
			"name": "JBRouterTerminal_NoPoolFound",
			"inputs": [
				{
					"name": "tokenIn",
					"type": "address",
					"internalType": "address"
				},
				{
					"name": "tokenOut",
					"type": "address",
					"internalType": "address"
				}
			]
		},
		{
			"type": "error",
			"name": "JBRouterTerminal_NonStandardTerminalToken",
			"inputs": [
				{
					"name": "terminal",
					"type": "address",
					"internalType": "address"
				},
				{
					"name": "token",
					"type": "address",
					"internalType": "address"
				},
				{
					"name": "expectedAmount",
					"type": "uint256",
					"internalType": "uint256"
				},
				{
					"name": "actualAmount",
					"type": "uint256",
					"internalType": "uint256"
				}
			]
		},
		{
			"type": "error",
			"name": "JBRouterTerminal_PermitAllowanceNotEnough",
			"inputs": [
				{
					"name": "amount",
					"type": "uint256",
					"internalType": "uint256"
				},
				{
					"name": "allowance",
					"type": "uint256",
					"internalType": "uint256"
				}
			]
		},
		{
			"type": "error",
			"name": "JBRouterTerminal_QuoteTokenMismatch",
			"inputs": [
				{
					"name": "quotedTokenOut",
					"type": "address",
					"internalType": "address"
				},
				{
					"name": "expectedTokenOut",
					"type": "address",
					"internalType": "address"
				}
			]
		},
		{
			"type": "error",
			"name": "JBRouterTerminal_SlippageExceeded",
			"inputs": [
				{
					"name": "amountOut",
					"type": "uint256",
					"internalType": "uint256"
				},
				{
					"name": "minAmountOut",
					"type": "uint256",
					"internalType": "uint256"
				}
			]
		},
		{
			"type": "error",
			"name": "JBRouterTerminal_Unauthorized",
			"inputs": [
				{
					"name": "caller",
					"type": "address",
					"internalType": "address"
				}
			]
		},
		{
			"type": "error",
			"name": "PRBMath_MulDiv_Overflow",
			"inputs": [
				{
					"name": "x",
					"type": "uint256",
					"internalType": "uint256"
				},
				{
					"name": "y",
					"type": "uint256",
					"internalType": "uint256"
				},
				{
					"name": "denominator",
					"type": "uint256",
					"internalType": "uint256"
				}
			]
		},
		{
			"type": "error",
			"name": "SafeERC20FailedOperation",
			"inputs": [
				{
					"name": "token",
					"type": "address",
					"internalType": "address"
				}
			]
		},
		{
			"type": "error",
			"name": "T",
			"inputs": []
		}
	],
	"args": [
		"0xE7d0F5ADC3847d4AfD70B7bcd58e34B1AAFDffbc",
		"0x8eA8B4B71e8C68b92A14E16b8c6Ab18B5C42f113",
		"0x000000000022D473030F116dDEE9F6B43aC78BA3",
		"0xceaf404f4f537891df5617797741403ccB07C48c",
		"0x53d5A7E174A87721c527ED14c7Ce7cb515465607",
		"0xd5136c794ee43BEf1eD4cF1eB6DEe45b7F803437"
	],
	"solcInputHash": "67176044e820ec83b60e46b68f8eeb78",
	"bytecode": "0x6101c0604052346102ed57618ab160c0813803918261001d816102f1565b9384928339810103126102ed5780516001600160a01b03811691908281036102ed5760208201516001600160a01b03811681036102ed576040830151906001600160a01b03821682036102ed5761007660608501610316565b9261008f60a061008860808801610316565b9601610316565b60809590955260c0526101005260e05260a05261012052604051906129308083016001600160401b038111848210176102d9576020928492616181843981520301905ff080156102ce576001600160a01b0316610140526101456100f360406102f1565b60078152663832b936b4ba1960c91b6020909101523060601b6001600160601b0319167fc16f881b3dd0a1bf52965fa8de2adc6199cef183000000000000000000000000186001600160e01b03191690565b610160526101a861015660406102f1565b600781526618d85cda13dd5d60ca1b6020909101523060601b6001600160601b0319167f86b14ff4df1839d4c5ed01550f2540ea56ad3e38000000000000000000000000186001600160e01b03191690565b610180526102076101b960406102f1565b600381526270617960e81b6020909101523060601b6001600160601b0319167fadc756803e4eb4ccfb136b73d5f72e3dc0d452d3000000000000000000000000186001600160e01b03191690565b6101a052604051615e56908161032b8239608051818181610e82015281816110850152612dd0015260a051818181611036015261272e015260c051818181610e3e01528181613ba401528181613c21015281816144dc0152614f00015260e051818181610ec6015281816120040152612c4e0152610100518181816112d5015281816146350152614ea501526101205181610f51015261014051818181611c8e015261226901526101605181611dd701526101805181612f8b01526101a051816130c50152f35b6040513d5f823e3d90fd5b634e487b7160e01b5f52604160045260245ffd5b5f80fd5b6040519190601f01601f191682016001600160401b038111838210176102d957604052565b51906001600160a01b03821682036102ed5756fe608080604052600436101561001c575b50361561001a575f80fd5b005b5f905f3560e01c90816301ffc9a7146114fc575080630aff0c311461148a57806317fcb39b146114625780631a65893b146114475780631ad12207146113045780631d831d5c146112c0578063253721c81461126e5780633a01714f1461114b578063515a9293146110b9578063572b6c05146110655780635b3435b4146110215780635fcb2120146110055780636aee6f6914610ef55780636afdd85014610eb15780637da0a87714610e6d57806388bc2ef314610e2957806391dd7346146109105780639e6eec051461078e5780639f4e854214610718578063a95450a2146106b0578063b5c104f314610650578063bde457af146105c4578063c45a01551461059d578063d616134114610574578063dc4c90d31461054b578063e28b54111461051c578063e298cebf146104b1578063fa461e3314610355578063fabd491f146103175763fef432570361000f5760e0366003190112610314576004359061018661157f565b61018e611595565b9060a4356001600160401b038111610312576101ae903690600401611601565b60c4929192356001600160401b03811161030e579260209285949261021c896101df6102a399963690600401611601565b9490809786928d60ff19815c16905d6101fc848460443584611da0565b906001600160a01b03610215610210612da5565b61216c565b1695612b61565b909a919890956001600160a01b038a16958c95906102919061023f8a898b612316565b966040519c8d9b8c9a8b9963fef4325760e01b8b5260048b015260018060a01b031660248a0152604489015260018060a01b03166064880152608435608488015260e060a488015260e4870191611b0b565b8481036003190160c486015291611b0b565b03925af192831561030257926102c9575b506020926102c19161243a565b604051908152f35b9091506020813d6020116102fa575b816102e56020938361185b565b810103126102f657519060206102b4565b5f80fd5b3d91506102d8565b604051903d90823e3d90fd5b8580fd5b835b80fd5b50346103145760403660031901126103145760206103446103366115d7565b61033e61157f565b90612ab9565b6001600160801b0360405191168152f35b503461031457606036600319011261031457600435906044356001600160401b0381116104ad5761038c6060913690600401611601565b90809291810103126104ad576103b060406103a9602084016115ed565b92016115ed565b6001600160a01b03909116906103d76103c883612937565b916001600160a01b0316612937565b60405163ddca3f4360e01b8152602081600481335afa9081156104a25790610410918691610473575b506001600160a01b039284612959565b1633036104605791926104429290848113156104535761eeee90925b14610445575b33906001600160a01b0316612a24565b80f35b61044e826129e1565b610432565b5061eeee6024359261042c565b630417e2ed60e11b835233600452602483fd5b610495915060203d60201161049b575b61048d818361185b565b810190611bdb565b5f610400565b503d610483565b6040513d87823e3d90fd5b5080fd5b5034610314576040366003190112610314576104cb6115d7565b906104d461157f565b6104de8184613881565b506001600160a01b03169283156104fa57602084604051908152f35b63022007a560e11b83526001600160a01b039081166004521660245260449150fd5b50346103145760603660031901126103145760209061053961157f565b506105426115ab565b50604051908152f35b50346103145780600319360112610314576001546040516001600160a01b039091168152602090f35b50346103145780600319360112610314576002546040516001600160a01b039091168152602090f35b5034610314578060031936011261031457546040516001600160a01b039091168152602090f35b5034610314576040366003190112610314576105de6115d7565b906105e761157f565b6105ef611bb5565b506105fa8184612909565b928351158061063b575b6104fa57604080518551151581526020808701516001600160a01b0316908201528186015160e0926106399190830190611797565bf35b5060208401516001600160a01b031615610604565b5034610314576080366003190112610314576024356001600160401b0381116104ad57366023820112156104ad578060040135906001600160401b0382116106ac57602490369260051b01011161031457602090604051908152f35b8280fd5b5034610314576080366003190112610314576106ca6115d7565b906106d361157f565b90606435906001600160401b038211610314576020610542610708868661070e6107003660048a01611601565b949093612937565b91612937565b926044359261308b565b50346103145760a03660031901126103145761073261157f565b90606435906001600160401b03821161031457606061076e846107583660048701611601565b906107616115c1565b92604435906004356125b1565b604080516001600160a01b03948516815293909216602084015290820152f35b5060c0366003190112610314576004356107a661157f565b9060643591821515809303610312576084356001600160401b03811161090c576107d4903690600401611601565b8560a493929335956001600160401b0387116104ad576107fb610834973690600401611601565b979094835c60ff1916600117845d8886610819828260443586611da0565b6001600160a01b0361082c610210612da5565b16938b6121ee565b959198909460018060a01b038a16908a61085a8b896108548c8288612316565b93612395565b9b909a843b156109085788968b966108b26108c4938d976040519c8d9b8c9a8b99639e6eec0560e01b8b5260048b015260018060a01b031660248a01526044890152606488015260c0608488015260c4870191611b0b565b8481036003190160a486015291611b0b565b03925af180156108fd576108e8575b5050846108e3826104429761243a565b6124a7565b816108f29161185b565b61030e57855f6108d3565b6040513d84823e3d90fd5b8880fd5b8480fd5b50346102f65760203660031901126102f6576004356001600160401b0381116102f657610941903690600401611601565b6001546001600160a01b0316919033839003610e1657819081010361014081126102f65760a0136102f65760405161097881611809565b610981826115ed565b815261098f602083016115ed565b9160208201928352604081013562ffffff811681036102f657604083015260608101358060020b81036102f65760608301526080810135906001600160a01b03821682036102f657608083019182526109ea60a0820161178a565b9160e08201356001600160a01b03811691908290036102f65760209061010084013597610a935f88610ac4610a226101208a0161178a565b9760405196610a30886117da565b8b1515885260c09a909a01358888019081526040880191825299516001600160a01b031615158414610e00578d6040519089820152888152610a7360408261185b565b905b604051633cf3645360e21b81529a8b98899788966004880190611797565b51151560a48601525160c4850152516001600160a01b031660e484015261012061010484015261012483019061162e565b03925af1918215610d7c575f92610dcc575b508160801d835f14610dad576001600160801b03610af48192611b57565b169216955b808710610d9757508215610d875783516001600160a01b03165b6001600160a01b031680610cb1575015610ca35747811115610c9d57610b394782611d64565b80610c8e575b505b600154604051630476982d60e21b81529160209183916004918391906001600160a01b03165af18015610c8357610c54575b505b15610c435750516001600160a01b03165b6001546001600160a01b0316908390823b156104ad578190606460405180948193630b0d9c0960e01b835260018060a01b0316968760048401523060248401528860448401525af18015610c3857610c23575b50610c11925015610c15575b60405190602082015260208152610bfd60408261185b565b60405191829160208352602083019061162e565b0390f35b610c1e816129e1565b610be5565b610c2e84809261185b565b6106ac5782610bd9565b6040513d86823e3d90fd5b516001600160a01b03169050610b86565b610c759060203d602011610c7c575b610c6d818361185b565b810190611bf6565b505f610b73565b503d610c63565b6040513d88823e3d90fd5b610c9790612ba6565b5f610b3f565b85610b39565b610cac81612ba6565b610b41565b6001549091506001600160a01b0316803b156102f6575f8091602460405180948193632961046560e21b83528760048401525af18015610d7c57610d62575b50600154610d0a92916001600160a01b0390911690612a24565b600154604051630476982d60e21b815290602090829060049082908a906001600160a01b03165af18015610c8357610d43575b50610b75565b610d5b9060203d602011610c7c57610c6d818361185b565b505f610d3d565b610d0a929197505f610d739161185b565b5f969091610cf0565b6040513d5f823e3d90fd5b84516001600160a01b0316610b13565b86631dbd2ab560e01b5f5260045260245260445ffd5b916001600160801b03610dc38192600f0b611b57565b16921695610af9565b9091506020813d602011610df8575b81610de86020938361185b565b810103126102f65751905f610ad6565b3d9150610ddb565b604051610e0d898261185b565b84815290610a75565b6364daf78560e01b5f523360045260245ffd5b346102f6575f3660031901126102f6576040517f00000000000000000000000000000000000000000000000000000000000000006001600160a01b03168152602090f35b346102f6575f3660031901126102f6576040517f00000000000000000000000000000000000000000000000000000000000000006001600160a01b03168152602090f35b346102f6575f3660031901126102f6576040517f00000000000000000000000000000000000000000000000000000000000000006001600160a01b03168152602090f35b346102f65760803660031901126102f6576004356001600160a01b038116908190036102f6576024356001600160a01b038116908190036102f6576044356001600160a01b03811691908290036102f657610f4e611595565b927f00000000000000000000000000000000000000000000000000000000000000006001600160a01b03163303610ff2576003546001600160a01b038116610fe3576001600160601b0360a01b16176003556001600160601b0360a01b5f5416175f556001600160601b0360a01b600154161760015560018060a01b03166001600160601b0360a01b60025416176002555f80f35b63b057425960e01b5f5260045ffd5b6352cbd13d60e11b5f523360045260245ffd5b346102f6575f3660031901126102f65760206040516102588152f35b346102f6575f3660031901126102f6576040517f00000000000000000000000000000000000000000000000000000000000000006001600160a01b03168152602090f35b346102f65760203660031901126102f65760206110806115d7565b6040517f00000000000000000000000000000000000000000000000000000000000000006001600160a01b039081169216919091148152f35b346102f65760203660031901126102f65760405160206110d9818361185b565b5f82529060405190828201838352815180915283604084019201935f5b8281106111035784840385f35b9091928260608261113c6001948a5163ffffffff6040809260018060a01b03815116855260ff6020820151166020860152015116910152565b019601910194929190946110f6565b346102f65760403660031901126102f65761116461157f565b61116c611b2b565b506012906001600160a01b0381169061eeed1982016111de575b63ffffffff9060ff6060946040519461119e866117da565b8552166020840152166040820152610639604051809263ffffffff6040809260018060a01b03815116855260ff6020820151166020860152015116910152565b60405163313ce56760e01b8152602081600481865afa5f9181611222575b5060609463ffffffff939260ff9261121a575b509450509050611186565b90508661120f565b909291506020813d602011611266575b8161123f6020938361185b565b810103126102f65760609463ffffffff9361125b60ff93611b49565b9394509150946111fc565b3d9150611232565b346102f65760403660031901126102f6576024356001600160401b0381116102f657366023820112156102f6578060040135906001600160401b0382116102f65760249060603693020101116102f657005b346102f6575f3660031901126102f6576040517f00000000000000000000000000000000000000000000000000000000000000006001600160a01b03168152602090f35b346102f65760c03660031901126102f65761131d6115d7565b6113256115ab565b9061132e6115c1565b60a435916001600160401b0383116102f65761134f5f933690600401611601565b92909461135a61187c565b50604051630aff0c3160e01b81526024803560048301526001600160a01b0392831690820152606480356044830152919092169082015260a06084820152938492839182916113ae9160a484019190611b0b565b03916001600160a01b03165afa8015610d7c575f905f925f905f926113e0575b5090610c119160405194859485611652565b93505050503d805f833e6113f4818361185b565b8101610180828203126102f65761140b81836118e3565b906101208301519161014084015193610160810151926001600160401b0384116102f657610c119361143d9201611a23565b90929390916113ce565b346102f6575f3660031901126102f657602060405160788152f35b346102f6575f3660031901126102f6576003546040516001600160a01b039091168152602090f35b346102f65760a03660031901126102f6576114a361157f565b6114ab611595565b608435906001600160401b0382116102f657610c11926114d26114ea933690600401611601565b9290916114dd61187c565b5060443590600435611c19565b60405197889750955093509185611652565b346102f65760203660031901126102f6576004359063ffffffff60e01b82168092036102f657602091637343409560e01b811490811561156e575b811561155d575b811561154c575b5015158152f35b6301ffc9a760e01b14905083611545565b6305f7c99160e41b8114915061153e565b6306afdd8560e41b81149150611537565b602435906001600160a01b03821682036102f657565b606435906001600160a01b03821682036102f657565b604435906001600160a01b03821682036102f657565b608435906001600160a01b03821682036102f657565b600435906001600160a01b03821682036102f657565b35906001600160a01b03821682036102f657565b9181601f840112156102f6578235916001600160401b0383116102f657602083818601950101116102f657565b805180835260209291819084018484015e5f828201840152601f01601f1916010190565b92909161010061018085019365ffffffffffff815116865265ffffffffffff602082015116602087015265ffffffffffff604082015116604087015265ffffffffffff606082015116606087015263ffffffff60808201511660808701526001600160701b0360a08201511660a087015263ffffffff60c08201511660c087015260018060a01b0360e08201511660e0870152015161010085015261012084015261014083015261018061016083015282518091526101a082019160206101a08360051b8301019401925f915b83831061172e57505050505090565b909192939460208061177b60019361019f19868203018752608060608b51878060a01b0381511684528581015115158685015260408101516040850152015191816060820152019061162e565b9701930193019193929061171f565b359081151582036102f657565b80516001600160a01b03908116835260208083015182169084015260408083015162ffffff169084015260608083015160020b9084015260809182015116910152565b606081019081106001600160401b038211176117f557604052565b634e487b7160e01b5f52604160045260245ffd5b60a081019081106001600160401b038211176117f557604052565b61012081019081106001600160401b038211176117f557604052565b608081019081106001600160401b038211176117f557604052565b90601f801991011681019081106001600160401b038211176117f557604052565b6040519061188982611824565b5f610100838281528260208201528260408201528260608201528260808201528260a08201528260c08201528260e08201520152565b519065ffffffffffff821682036102f657565b519063ffffffff821682036102f657565b9190826101209103126102f6576040516118fc81611824565b8092611907816118bf565b8252611915602082016118bf565b6020830152611926604082016118bf565b6040830152611937606082016118bf565b6060830152611948608082016118d2565b608083015260a08101516001600160701b03811681036102f65760a083015261197360c082016118d2565b60c083015260e08101516001600160a01b03811681036102f65760e083015261010090810151910152565b6001600160401b0381116117f55760051b60200190565b519081151582036102f657565b6001600160401b0381116117f557601f01601f191660200190565b81601f820112156102f6578051906119f4826119c2565b92611a02604051948561185b565b828452602083830101116102f657815f9260208093018386015e8301015290565b9080601f830112156102f657815191611a3b8361199e565b92611a49604051948561185b565b80845260208085019160051b830101918383116102f65760208101915b838310611a7557505050505090565b82516001600160401b0381116102f6578201906080828703601f1901126102f65760405190611aa382611840565b60208301516001600160a01b03811681036102f6578252611ac6604084016119b5565b6020830152606083015160408301526080830151916001600160401b0383116102f657611afb886020809695819601016119dd565b6060820152815201920191611a66565b908060209392818452848401375f828201840152601f01601f1916010190565b60405190611b38826117da565b5f6040838281528260208201520152565b519060ff821682036102f657565b600f0b6f7fffffffffffffffffffffffffffffff198114611b77575f0390565b634e487b7160e01b5f52601160045260245ffd5b60405190611b9882611809565b5f6080838281528260208201528260408201528260608201520152565b60405190611bc2826117da565b815f81525f60208201526040611bd6611b8b565b910152565b908160209103126102f6575162ffffff811681036102f65790565b908160209103126102f6575190565b51906001600160a01b03821682036102f657565b9293611c8a9196955f95611c2b61187c565b5060018060a01b036003541694604051998a9788976317647ca960e01b89523060048a01526024890152604488015260018060a01b03166064870152608486015260018060a01b031660a485015260e060c485015260e4840191611b0b565b03817f00000000000000000000000000000000000000000000000000000000000000006001600160a01b03165afa908115610d7c575f5f935f935f935f935f935f93611cdb575b5096959493929190565b9750509450505050503d805f843e611cf3818461185b565b8201916101e0818403126102f657611d0a81611c05565b92611d1760208301611c05565b93604083015194611d2b83606086016118e3565b94610180850151946101a0810151946101c08201516001600160401b0381116102f657611d589201611a23565b9196959493925f611cd1565b91908203918211611b7757565b3d15611d9b573d90611d82826119c2565b91611d90604051938461185b565b82523d5f602084013e565b606090565b90925f91611dac612da5565b936001600160a01b0382169261eeee8414612161573461214e57611dfb91611dd591369161257b565b7f0000000000000000000000000000000000000000000000000000000000000000613d06565b90611ee3575b506040516370a0823160e01b815230600482015293602085602481865afa948515610c38578495611ea8575b5060249560209392611e40923090612be6565b6040516370a0823160e01b815230600482015294859182905afa9081156103025790611e74575b611e719250611d64565b90565b506020823d602011611ea0575b81611e8e6020938361185b565b810103126102f657611e719151611e67565b3d9150611e81565b9094506020929192813d602011611edb575b81611ec76020938361185b565b810103126102f65751939091906024611e2d565b3d9150611eba565b80518101906020818303126102f6576020810151906001600160401b0382116102f6570160a0818303126102f657604051611f1d81611809565b60208201518152611f3060408301611c05565b9160208201928352611f44606082016118bf565b9360408301948552611f58608083016118bf565b916060840192835260a0810151916001600160401b0383116102f657611f859260208092019201016119dd565b6080830190815283519093906001600160a01b0316808b11612138575051935190516040519465ffffffffffff91821692909116906001600160a01b0316611fcc86611840565b878652602086015260408501526060840152519060405192611fed846117da565b8352306020840190815260408401928352905190917f00000000000000000000000000000000000000000000000000000000000000006001600160a01b0316803b156102f657604080516302b67b5760e41b81526001600160a01b038b81166004830181905297518051821660248401526020810151821660448401529283015165ffffffffffff9081166064840152606090930151909216608482015294511660a4850152905160c484015261010060e48401525f918391908290849082906120bc9061010483019061162e565b03925af19081612123575b5061211d57827f7e09272f9c04cd2a99107aa546ff6e4b501a0b2dd163864b2e255c5cc9f76fe861210d6120f9611d71565b60405191829160408352604083019061162e565b8560208301520390a35b5f611e01565b50612117565b6121309195505f9061185b565b5f935f6120c7565b8a633b4359c560e11b5f5260045260245260445ffd5b63485959f160e11b5f523460045260245ffd5b505050505050503490565b333b6121755790565b60405163296eee5160e01b8152602081600481335afa5f91816121b2575b5061219d575b5090565b6001600160a01b03811615612199575b905090565b9091506020813d6020116121e6575b816121ce6020938361185b565b810103126102f6576121df90611c05565b905f612193565b3d91506121c1565b9391948284829895976122019488612dfe565b96909290916001600160a01b03811661230b575060035460408051636399a0f960e11b81523060048201526001600160a01b03928316602482015260448101889052918516606483015260a06084830152909690878061226560a482018686611b0b565b03817f00000000000000000000000000000000000000000000000000000000000000006001600160a01b03165afa958615610d7c575f965f906122bc575b611e719697985098886122b68288612e5c565b96614185565b509495506040873d604011612303575b816122d96040938361185b565b810103126102f657611e71946122fa60206122f38a611c05565b9901611c05565b889796506122a3565b3d91506122cc565b969295509193505050565b6001600160a01b03909116919061eeee831461238f576123378282856143be565b15612344575b5050505f90565b61234e818461440b565b1561237c579061235e918361446f565b1561236a57808061233d565b635274afe760e01b5f5260045260245ffd5b82635274afe760e01b5f5260045260245ffd5b50905090565b6001600160a01b039091169161eeee8314612431576123b49082612ef2565b612428576040516370a0823160e01b81526001600160a01b03909116600482015290602090829060249082905afa908115610d7c575f916123f6575b50905f90565b90506020813d602011612420575b816124116020938361185b565b810103126102f657515f6123f0565b3d9150612404565b50505f90600190565b5050505f905f90565b6001600160a01b039091169061eeed198201612455575b5050565b6001600160a01b03166124695f82846143be565b15612472575050565b61247c818361440b565b15612494575f61248c918361446f565b1561236a5750565b50635274afe760e01b5f5260045260245ffd5b92936001600160a01b03909116929061eeee84146125745761256e576040516370a0823160e01b81526001600160a01b03919091166004820181905293602082602481875afa8015610d7c575f9061253a575b6125049250611d64565b918183036125125750505050565b608494506040519363c237fe3360e01b85526004850152602484015260448301526064820152fd5b506020823d602011612566575b816125546020938361185b565b810103126102f65761250491516124fa565b3d9150612547565b50505050565b5050505050565b929192612587826119c2565b91612595604051938461185b565b8294818452818301116102f6578281602093845f960137010152565b929093959491946125c28783612f77565b935f935b601485106125e257633abd1e7760e21b5f52601460045260245ffd5b6125ed818884612fd1565b906001600160a01b0381166128fb57505061260787613067565b9687156128ec5750846128d3575f612620368b8761257b565b975b61262d8385836146c8565b909a8b9261267c6040519c8d95869485946312a9c76f60e21b86523060048701526024860152604485015260018060a01b0316606484015230608484015260c060a484015260c483019061162e565b03916001600160a01b03165afa968715610d7c575f905f986127a0575b50985f5b8851811015612761576126b0818a6146b4565b51602081015115801590612729575b61271f5760600151610100818051810103126102f6576127016101006020830151926126ed60808201614acc565b506126fa60a08201612aa5565b50016119b5565b508b8111612716575b50600101945b9461269d565b9a50600161270a565b5060010194612710565b5080517f00000000000000000000000000000000000000000000000000000000000000006001600160a01b03908116911614156126bf565b50929796509290949793978481811061278b57505060015f969801979594909297939691976125c6565b631dbd2ab560e01b5f5260045260245260445ffd5b9750503d805f893e6127b2818961185b565b870196610180818903126102f6576127ca88826118e3565b5061012081015190610160810151906001600160401b0382116102f657019780601f8a0112156102f6578851986128008a61199e565b9961280e6040519b8c61185b565b808b526020808c019160051b830101918383116102f65760208101915b83831061283d5750505050505f612699565b82516001600160401b0381116102f6578201906080828703601f1901126102f6576040519061286b82611840565b60208301516001600160a01b03811681036102f657825261288e604084016119b5565b6020830152606083015160408301526080830151916001600160401b0383116102f6576128c3886020809695819601016119dd565b606082015281520192019161282b565b5f60206128e3604051918261185b565b81815297612622565b9850505093505050505f929190565b995097965091945050505050565b90611e7191612916611bb5565b916129218183613881565b6001600160a01b03909116602085015291613953565b6001600160a01b03811661eeee03611e7157506003546001600160a01b031690565b5f54604051630b4c774160e11b81526001600160a01b039283166004820152928216602484015262ffffff939093166044830152909160209183916064918391165afa908115610d7c575f916129ad575090565b90506020813d6020116129d9575b816129c86020938361185b565b810103126102f657611e7190611c05565b3d91506129bb565b6003546001600160a01b0316803b156102f6575f90600460405180948193630d0e30db60e41b83525af18015610d7c57612a185750565b5f612a229161185b565b565b916040519163a9059cbb60e01b5f5260018060a01b031660045260245260205f60448180865af19060015f5114821615612a84575b60405215612a645750565b635274afe760e01b5f9081526001600160a01b0391909116600452602490fd5b906001811516612a9c57823b15153d15161690612a59565b503d5f823e3d90fd5b51906001600160801b03821682036102f657565b5f9291612ac591612909565b8051612b4157602001516001600160a01b031680612ae05750565b604051630d34328160e11b8152919250602090829060049082905afa908115610d7c575f91612b0d575090565b90506020813d602011612b39575b81612b286020938361185b565b810103126102f657611e7190612aa5565b3d9150612b1b565b6040015160a09020600154919250611e71916001600160a01b0316614d66565b919594939295612b7083613b77565b5115612b9b57612b878585612b9499848688611c19565b5050505050929093613c78565b9192909190565b91612b9496506121ee565b6003546001600160a01b031690813b156102f6575f91602483926040519485938492632e1a7d4d60e01b845260048401525af18015610d7c57612a185750565b6001600160a01b031691308314612d7257604051636eb1769f60e11b8152600481018490523060248201526001600160a01b03919091169290602081604481875afa8015610d7c5785915f91612d3d575b501015612cdc576001600160a01b038411612cc9577f00000000000000000000000000000000000000000000000000000000000000006001600160a01b031690813b156102f6575f60849281956040519788968795631b63c28b60e11b8752600487015260018060a01b0316602486015260018060a01b0316604485015260648401525af18015610d7c57612a185750565b83639c604ed360e01b5f5260045260245ffd5b919290604051926323b872dd60e01b5f5260045260018060a01b031660245260445260205f60648180865af19060015f5114821615612d25575b6040525f6060521561236a5750565b906001811516612a9c57823b15153d15161690612d16565b9150506020813d602011612d6a575b81612d596020938361185b565b810103126102f6578490515f612c37565b3d9150612d4c565b909291506001600160a01b031661eeee8114612d9b57612a22926001600160a01b031690612a24565b50612a2291613ec5565b601436101580612dcc575b15612dc85760131936013681116102f6573560601c90565b3390565b50337f00000000000000000000000000000000000000000000000000000000000000006001600160a01b031614612db0565b95949392919095612e0e87613067565b15612e225790612b9495965f949392613f2b565b5093925050505f929190565b9695949392919096612e3f88613067565b15612e4f5796612b949697613f2b565b509493505050505f929190565b9190602460206001600160a01b03612e7386612937565b16604051928380926370a0823160e01b82523060048301525afa908115610d7c575f91612ec0575b509283906001600160a01b031661eeed1901612eb5575050565b611e71929350611d64565b90506020813d602011612eea575b81612edb6020938361185b565b810103126102f657515f612e9b565b3d9150612ece565b5f919082916040516020810191634fe0eced60e01b8352602482015260248152612f1d60448261185b565b51916001600160a01b03165afa612f32611d71565b90158015612f6c575b612f67576020818051810103126102f6576001600160a01b0390612f6190602001611c05565b16151590565b505f90565b506020815110612f3b565b5f9291612faf91612f8991369161257b565b7f0000000000000000000000000000000000000000000000000000000000000000613d06565b90612fb75750565b8051919250602080820192820191909103126102f6575190565b5f93849390929091906001600160a01b0383168015613058576001600160a01b03821614908115613029575b50613006575050565b81945090613013916144aa565b926001600160a01b0384166130255750565b9150565b6130339150612937565b6001600160a01b0361304484612937565b6001600160a01b039092169116145f612ffd565b509450613013915084906144aa565b5f919061eeed196001600160a01b038216016130805750565b611e7191925061460b565b9492919390935f9561309b611bb5565b506130a68383612909565b958651158061386c575b613846576130e9916130c391369161257b565b7f0000000000000000000000000000000000000000000000000000000000000000613d06565b906137dd575b5085156130fb57505050565b845192955092939290911561338157604083015160a081206080820180515f939184916001600160a01b031661325f575b5015948561322e575b60015461314c9084906001600160a01b0316614d66565b926001600160801b0384161561321857506003546001600160a01b0390811695908116860361321257505f945b6001600160a01b0382160361320c57505f945b156131ef5750506001600160801b0386116131dc576001600160801b036131b694959616906151c4565b6105dc8102908082046105dc1481151715611b77576127106131d9920490611d64565b91565b85639c604ed360e01b5f5260045260245ffd5b90606462ffffff60406131d998999a979596940151160494615165565b9461318c565b94613179565b631134c06160e31b5f525f60045260245260445ffd5b925060ff5f5c1661324c5761324282614cc8565b5050905092613135565b50637fa61ec960e11b5f5260045260245ffd5b5f6132d5916040519061327360608361185b565b600282526040366020840137607861328a83614697565b5282613295836146a4565b5251604051637cb7cbf960e11b81529384926001600160a01b0390921691839182916132c4600484018b611797565b60c060a484015260c4830190614bee565b03915afa5f918161335c575b501561312c57600281511061312c57905061331891935061330e613304826146a4565b5160060b91614697565b5160060b90614c27565b60060b916078830560020b925f8112908161334c575b5061333c575b60015f61312c565b9161334690614c4c565b91613334565b607891500760060b15155f61332e565b6133799192503d805f833e613371818361185b565b810190614af2565b50905f6132e1565b60208381015160405163ddca3f4360e01b815296936001600160a01b0390911692909187600481865afa968715610d7c575f976137bc575b50604051633850c7bd60e01b815260e081600481875afa8015610d7c575f915f91613737575b5061ffff1690811561370d5761ffff60019116019061ffff8211611b775761ffff90816040519363252c09d760e01b85521606166004820152608081602481875afa908115610d7c575f905f926136e8575b50901561367e575b63ffffffff908142160316801561366b5761025890818110613663575b50607881106136485763ffffffff1692831561361e576134c3935f60405161347f60608261185b565b6002815260403660208301378261349582614697565b52816134a0826146a4565b526040518097819263883bdbfd60e01b8352602060048401526024830190614bee565b0381855afa948515610d7c575f905f966135ff575b508061330e6133046134e9936146a4565b946001600160a01b036134fb826146a4565b5116906001600160a01b039061351090614697565b511690036001600160a01b038111611b77578160060b9560060b86156135cc57667fffffffffffff1981145f19881416611b775786810560020b965f821291826135f0575b50506135e0575b6001600160a01b038281026001600160c01b03169283049003611b775760201b640100000000600160c01b031680156135cc576001600160801b039104169081156135b65750606462ffffff6131d9979899160494615165565b631134c06160e31b5f526004525f60245260445ffd5b634e487b7160e01b5f52601260045260245ffd5b946135ea90614c4c565b9461355c565b0760060b151590505f80613555565b6134e9965061361891503d805f833e613371818361185b565b956134d8565b60405162461bcd60e51b8152602060048201526002602482015261042560f41b6044820152606490fd5b83634862ac8760e11b5f52600452602452607860445260645ffd5b90505f613456565b836376283f0d60e11b5f5260045260245ffd5b5060405163252c09d760e01b81525f6004820152608081602481875afa8015610d7c5763ffffffff915f916136b6575b509050613439565b6136d8915060803d6080116136e1575b6136d0818361185b565b81019061512a565b5050505f6136ae565b503d6136c6565b9050613703915060803d6080116136e1576136d0818361185b565b929150505f613431565b60405162461bcd60e51b81526020600482015260026024820152614e4960f01b6044820152606490fd5b91505060e0813d60e0116137b4575b8161375360e0938361185b565b810103126102f65761376481611c05565b5061377160208201614acc565b5061ffff6137816040830161511b565b6137ac60c06137926060860161511b565b9461379f6080820161511b565b506126fa60a08201611b49565b5091906133df565b3d9150613746565b6137d691975060203d60201161049b5761048d818361185b565b955f6133b9565b9095506040818051810103126102f65760208101516001600160a01b03811691908290036102f657604001519061381381612937565b6001600160a01b03848116929116829003613831575050945f6130ef565b63c35b922760e01b5f5260045260245260445ffd5b505063022007a560e11b5f9081526001600160a01b039182166004529116602452604490fd5b5060208701516001600160a01b0316156130b0565b915f925f925f5b6004811061389557505050565b6001600160a01b036138b06138a983614c60565b8486612959565b16801561394957604051630d34328160e11b8152602081600481855afa908115610d7c575f91613910575b506001600160801b0387166001600160801b03821611613903575b5050600101915b91613888565b909650945060015f6138f6565b90506020813d8211613941575b8161392a6020938361185b565b810103126102f65761393b90612aa5565b5f6138db565b3d915061391d565b50600101916138fd565b9392919093613960611bb5565b50829460018060a01b0360015416938415613aee57506003546001600160a01b03908116929081168303613ae857505f915b6001600160a01b03821603613ae257505f905b6001600160a01b038281169082161015613adc5790915b5f5b600481106139cd575050505050565b5f5b600281106139e057506001016139be565b80158015613aca575f905b1580613ab9575b613ab0576139fe611b8b565b50613a0883614c8e565b604051929162ffffff90613a1b85611809565b6001600160a01b0389811686528a811660208701529116604085015260029190910b606084015216608082015260a08120613a5581614cc8565b5050506001600160a01b031615613a8a57613a709088614d66565b6001600160801b0385166001600160801b03821611613a94575b50506001016139cf565b60019291945093828a525f60208b015260408a0152905f613a8a565b506001016139cf565b506001600160a01b038116156139f2565b6002546001600160a01b0316906139eb565b916139bc565b906139a5565b91613992565b955050505050565b6020818303126102f6578051906001600160401b0382116102f657019080601f830112156102f6578151613b298161199e565b92613b37604051948561185b565b81845260208085019260051b8201019283116102f657602001905b828210613b5f5750505090565b60208091613b6c84611c05565b815201910190613b52565b5f8091604051602081019163d175415360e01b8352602482015260248152613ba060448261185b565b51907f00000000000000000000000000000000000000000000000000000000000000006001600160a01b03165afa613bd6611d71565b90158015613bfc575b613bf65780602080611e7193518301019101613af6565b50606090565b50805115613bdf565b60405163d175415360e01b815260048101919091525f816024817f00000000000000000000000000000000000000000000000000000000000000006001600160a01b03165afa908115610d7c575f91613c5c575090565b611e7191503d805f833e613c70818361185b565b810190613af6565b93959187848488613c92949c99959b979c839b9c8a612e2e565b9095916001600160a01b038116613cb55750611e71969798996122b68288612e5c565b99985096505050505050565b91908201809211611b7757565b908151811015613cdf570160200190565b634e487b7160e01b5f52603260045260245ffd5b81810292918115918404141715611b7757565b90915f916060602585511115613eaa57845160241015613cdf5760448501518060f81c9160205b60048101808211611b77576001600160f81b0319613d4b828b613cce565b5116151580613e8b575b15613e8157613d649089613cce565b516020828a01015160f882901c91906001600160e01b0319888116911614613d90575050600501613d2d565b9550959650929050600983018093119182611b7757611fe0809160f31c16169080820460201490151715611b77578210801590613e62575b15613e2b575050611fe0808551925b60f31c16169180830460201490151715611b77578190039060405193601f19603f8487010116604052828552015f5b828110613e165750505060019190565b80602080928401015182828801015201613e06565b611b7757613e399085613cce565b51611fe0808260f81c9260f31c16169080820460201490151715611b7757611fe0809192613dd7565b505f90506001600160f81b0319613e798388613cce565b511615613dc8565b5050949550505050565b5060f384901c611fe01685156020878304141715611b77578210613d55565b50509150505f90604051613ebf60208261185b565b5f815290565b814710613f14575f808093819382604051613ee160208261185b565b526001600160a01b03165af115613ef457565b3d15613f05576040513d5f823e3d90fd5b63d6bda27560e01b5f5260045ffd5b504763cf47918160e01b5f5260045260245260445ffd5b9496909192959395613f3d8782612f77565b925f945b60148610613f5d57633abd1e7760e21b5f52601460045260245ffd5b613f688a838a612fd1565b906001600160a01b03811661414c575050613f8282613067565b801561413b57602094939291818b613f9c8e8d8c966146c8565b90809991613fa985614e82565b85613fb43084614ffc565b94613fbf308b614ffc565b9861412257613fd15f9136908d61257b565b965b614024604051988996879586946313da831760e01b86523060048701526024860152604485015260018060a01b031660648401528360848401523060a484015260e060c484015260e483019061162e565b03926001600160a01b03165af18015610d7c576140f0575b614050915061404b3089614ffc565b611d64565b96811515806140e8575b6140bd578088106140a757509061404b61407d926140783086614ffc565b613cc1565b80614095575b505060015f9395019490919293613f41565b6140a0918830612be6565b5f80614083565b87631dbd2ab560e01b5f5260045260245260445ffd5b506361ed586d60e11b5f9081526001600160a01b038085166004528716602452604491909152606490fd5b50871561405a565b6020823d821161411a575b816141086020938361185b565b810103126102f657614050915061403c565b3d91506140fb565b505f84614132604051918261185b565b81815296613fd3565b50975097505093505050505f929190565b97509995509750925050935060018060a01b03821661416d575b5050929190565b61417b939491929550614dfa565b9190925f80614166565b6001600160a01b038082169892979691959294908816929091908984146143b1576141af87612937565b6001600160a01b036141c08b612937565b6001600160a01b0390921691161461438a576141db87612937565b945f9a61eeee81149a8b614364575b936020969361422f938d60249b9a989461420661eeee99612937565b90604051968c88015260408701528760608701526060865261422960808761185b565b89615295565b99898061435b575b614343575b5014614335575b6040516370a0823160e01b815230600482015293849182906001600160a01b03165afa918215610d7c575f92614301575b50808211614285575b505050505090565b61428e91611d64565b92156142f1575061429e82612ba6565b6001600160a01b0316905f80808084865af16142b8611d71565b50156142cc575b50505b5f8080808061427d565b6142ea916142d9826129e1565b6003546001600160a01b0316612a24565b5f806142bf565b6142fc929130612be6565b6142c2565b9091506020813d60201161432d575b8161431d6020938361185b565b810103126102f65751905f614274565b3d9150614310565b61433e88612ba6565b614243565b6143506143559147611d64565b6129e1565b5f61423c565b50804711614237565b9197969490938b96939c5088479061437b91611d64565b9c9396509390949697916141ea565b50505050949250505061eeee9150145f146143a857611e71816129e1565b611e7181612ba6565b5050505094505050505090565b92916040519163095ea7b360e01b5f5260018060a01b031660045260245260205f60448180875af19260015f51148416156143fa575b50604052565b3d15903b151516909216915f6143f4565b60405163095ea7b360e01b5f9081526001600160a01b03909316600452602483905290929160209060448180875af19260015f511484161561444d5750604052565b60018492941516614466573b15153d151616915f6143f4565b833d5f823e3d90fd5b92916040519163095ea7b360e01b5f5260018060a01b031660045260245260205f60448180875af19260015f511484161561444d5750604052565b604051630862026560e41b8152600481018290526001600160a01b0392831660248201529291602090849060449082907f0000000000000000000000000000000000000000000000000000000000000000165afa928315610d7c575f936145cf575b506001600160a01b038316158381156145bd575b506145b7575f80916040516020810191634fe0eced60e01b835260248201526024815261454e60448261185b565b51906001600160a01b0386165afa614564611d71565b816145a9575b8161457c575b5061457757565b5f9150565b90506020818051810103126102f6576001600160a01b03906145a090602001611c05565b1630145f614570565b90506020815110159061456a565b505f9150565b6145c991508230615060565b5f614520565b9092506020813d602011614603575b816145eb6020938361185b565b810103126102f6576145fc90611c05565b915f61450c565b3d91506145de565b604051630f85421b60e01b81526001600160a01b03918216600482015290602090829060249082907f0000000000000000000000000000000000000000000000000000000000000000165afa908115610d7c575f91614668575090565b90506020813d60201161468f575b816146836020938361185b565b810103126102f6575190565b3d9150614676565b805115613cdf5760200190565b805160011015613cdf5760400190565b8051821015613cdf5760209160051b010190565b9192909260405160c081018181106001600160401b038211176117f5576040525f81525f60208201525f60408201525f60608201525f60808201525f60a082015261471284613c05565b925f5b8451811015614a3357602460206001600160a01b0361473484896146b4565b516040516301ffc9a760e01b815263597d9eab60e01b600482015293849290918391165afa5f91816149f8575b506147725750600101945b94614715565b95949095156149ed576024906001600160a01b0361479088836146b4565b5116955f6001600160a01b036147a68a856146b4565b51166040519485809263515a929360e01b82528560048301525afa928315610d7c575f93614918575b505f5b8351811015614908576001600160a01b036147ed82866146b4565b5151166001600160a01b03881680151590816148fe575b506148d7575b90816148186001938d6144aa565b5f9061eeee83036148c4575b848060a01b03161515806148b1575b6148a0575b838060a01b0360208a0151161580614899575b61488b575b838060a01b0360608a015116159081614882575b50614871575b50016147d2565b60408801528860608801525f61486a565b9050155f614864565b8189528a60208a0152614850565b508061484b565b8160808a01528a60a08a0152614838565b50838060a01b0360a08a01511615614833565b90506148cf8261460b565b151590614824565b6001600160a01b036148e9828d6144aa565b161561480a5797995050505050935050509190565b905081145f614804565b509690955060019150019461476c565b9092503d805f833e61492a818361185b565b8101906020818303126102f6578051906001600160401b0382116102f6570181601f820112156102f6578051906149608261199e565b9261496e604051948561185b565b828452602060608186019402830101918183116102f657602001925b82841061499c5750505050915f6147cf565b6060848303126102f65760206060916040516149b7816117da565b6149c087611c05565b81526149cd838801611b49565b838201526149dd604088016118d2565b604082015281520193019261498a565b93946001019461476c565b9091506020813d8211614a2b575b81614a136020938361185b565b810103126102f657614a24906119b5565b905f614761565b3d9150614a06565b5060a082015191935091506001600160a01b031680614ab5575060608201516001600160a01b031680614a9e575060208201516001600160a01b03169182614a8d5750505063867d310160e01b5f5260045260245260445ffd5b516001600160a01b03169350909150565b604092909201516001600160a01b03169350909150565b608092909201516001600160a01b03169350909150565b51908160020b82036102f657565b81156135cc570490565b51908160060b82036102f657565b91906040838203126102f65782516001600160401b0381116102f657830181601f820112156102f657805190614b278261199e565b91614b35604051938461185b565b80835260208084019160051b830101918483116102f657602001905b828210614bd657505050926020810151906001600160401b0382116102f657019080601f830112156102f6578151614b888161199e565b92614b96604051948561185b565b81845260208085019260051b8201019283116102f657602001905b828210614bbe5750505090565b60208091614bcb84611c05565b815201910190614bb1565b60208091614be384614ae4565b815201910190614b51565b90602080835192838152019201905f5b818110614c0b5750505090565b825163ffffffff16845260209384019390920191600101614bfe565b600691820b910b0390667fffffffffffff198212667fffffffffffff831317611b7757565b60020b627fffff198114611b77575f190190565b8015614c875760018114614c8057600214614c7a57606490565b61271090565b506101f490565b50610bb890565b8015614cbe5760018114614cb457600214614cab57606490600190565b6127109060c890565b506101f490600a90565b50610bb890603c90565b6001546001600160a01b03169190602090614ce29061526f565b602460405180958193631e2eaeaf60e01b835260048301525afa918215610d7c575f92614d32575b506001600160a01b0382169160a081901c60020b9162ffffff60b883901c81169260d01c1690565b9091506020813d602011614d5e575b81614d4e6020938361185b565b810103126102f65751905f614d0a565b3d9150614d41565b90614d709061526f565b60038101809111611b7757604051631e2eaeaf60e01b8152600481019190915290602090829060249082906001600160a01b03165afa8015610d7c575f90614dc1575b6001600160801b0391501690565b506020813d602011614df2575b81614ddb6020938361185b565b810103126102f6576001600160801b039051614db3565b3d9150614dce565b9092916001600160a01b03808216908316808214614e7b5761eeee811480614e67575b614e5a576003546001600160a01b0316149081614e4e575b50614e3f57509190565b9050614e4a83612ba6565b9190565b61eeee9150145f614e35565b50509050614e4a836129e1565b506003546001600160a01b03168214614e1d565b5050509190565b60405163c6c116bd60e01b815230600482015260248101829052906020826044817f00000000000000000000000000000000000000000000000000000000000000006001600160a01b03165afa918215610d7c575f92614fc8575b50811561245157604051632eec7b5560e11b8152600481018290526020816024817f00000000000000000000000000000000000000000000000000000000000000006001600160a01b03165afa908115610d7c575f91614f86575b506001600160a01b031691823b156102f65760845f9283604051958694859363181faefd60e11b8552306004860152602485015260448401523060648401525af18015610d7c57612a185750565b90506020813d602011614fc0575b81614fa16020938361185b565b810103126102f657516001600160a01b03811681036102f6575f614f38565b3d9150614f94565b9091506020813d602011614ff4575b81614fe46020938361185b565b810103126102f65751905f614edd565b3d9150614fd7565b6001600160a01b03811661eeee0361501357503190565b6020906001600160a01b039061502890612937565b6040516370a0823160e01b81526001600160a01b03909416600485015283916024918391165afa908115610d7c575f91614668575090565b905f925b600584106150755750505050600190565b6001600160a01b039081169083168114615112575f80916040516020810190634fe0eced60e01b8252856024820152602481526150b360448261185b565b51915afa6150bf611d71565b90158015615107575b6150ff576020818051810103126102f65760206150e59101611c05565b6001600160a01b038116156150ff57600190930192615064565b505050505f90565b5060208151106150c8565b50505050600190565b519061ffff821682036102f657565b91908260809103126102f65761513f826118d2565b9161514c60208201614ae4565b91611e71606061515e60408501611c05565b93016119b5565b9594848385615174948a615527565b926127108410156151bb576001600160801b0386116131dc57612710926151b4926151ad926001600160801b03611e71989916906151c4565b9283613cf3565b0490611d64565b505f9450505050565b909291906001600160a01b03906151da9061558a565b166001600160801b03811161522c57806151f391613cf3565b916001600160a01b039081169116101561521a576001600160801b03611e71921690615aa1565b6001600160801b03611e719216615a21565b80615236916158fa565b916001600160a01b039081169116101561525d576001600160801b03611e719216906159d4565b6001600160801b03611e719216615947565b60405160208101918252600660408201526040815261528f60608261185b565b51902090565b949083866152a793839699959761308b565b8051919390929115615409575050604001516003545f95869561537e95919491926001600160a01b038083169116036154045750855b83516001600160a01b03918216911614938685146153e6576153046401000276a491615aee565b60018060a01b036001541695615321604051966020880190611797565b60c086015260e08501526001600160a01b0316610100840152610120830152151561014080830191909152815261535a6101608261185b565b6040519485809481936348c8949160e01b835260206004840152602483019061162e565b03925af1908115610d7c575f916153a9575b50602081519181808201938492010103126102f6575190565b90503d805f833e6153ba818361185b565b81016020828203126102f65781516001600160401b0381116102f6576153e092016119dd565b5f615390565b61530473fffd8963efd1fc6a506488495d951d5263988d2591615aee565b6152dd565b6020909201519295615481956001600160a01b0393841690841610945060409391929190911690841561550b575f6401000276a4915b855197889586948593630251596160e31b85523060048601528a6024860152604485015260018060a01b0316606484015260a0608484015260a483019061162e565b03925af1908115610d7c575f905f926154ce575b6154a59350156154c75750615aee565b908082106154b1575090565b90631dbd2ab560e01b5f5260045260245260445ffd5b9050615aee565b9150506040823d604011615503575b816154ea6040938361185b565b810103126102f6578160206154a5935191015191615495565b3d91506154dd565b5f73fffd8963efd1fc6a506488495d951d5263988d259161543f565b6001600160a01b03808516969594919361554d929091821688111561558657509361558a565b906001600160a01b0382161561557a57611e7195615575946001600160a01b03161492615afe565b615b5e565b50505050505061271090565b9050935b60020b5f8112156158f457805f03905b620d89e882116158e55760018216156158d3576001600160881b036ffffcb933bd6fad37aa2d162d1a5940015b1691600281166158b7575b6004811661589b575b6008811661587f575b60108116615863575b60208116615847575b6040811661582b575b6080811661580f575b61010081166157f3575b61020081166157d7575b61040081166157bb575b610800811661579f575b6110008116615783575b6120008116615767575b614000811661574b575b618000811661572f575b620100008116615713575b6202000081166156f8575b6204000081166156dd575b62080000166156c4575b5f126156b6575b63ffffffff81166156ae575f905b60201c60ff91909116016001600160a01b031690565b600190615698565b80156135cc575f190461568a565b6b048a170391f7dc42444e8fa290910260801c90615683565b6d2216e584f5fa1ea926041bedfe9890920260801c91615679565b916e5d6af8dedb81196699c329225ee6040260801c9161566e565b916f09aa508b5b7a84e1c677de54f3e99bc90260801c91615663565b916f31be135f97d08fd981231505542fcfa60260801c91615658565b916f70d869a156d2a1b890bb3df62baf32f70260801c9161564e565b916fa9f746462d870fdf8a65dc1f90e061e50260801c91615644565b916fd097f3bdfd2022b8845ad8f792aa58250260801c9161563a565b916fe7159475a2c29b7443b29c7fa6e889d90260801c91615630565b916ff3392b0822b70005940c7a398e4b70f30260801c91615626565b916ff987a7253ac413176f2b074cf7815e540260801c9161561c565b916ffcbe86c7900a88aedcffc83b479aa3a40260801c91615612565b916ffe5dee046a99a2a811c461f1969c30530260801c91615608565b916fff2ea16466c96a3843ec78b326b528610260801c916155ff565b916fff973b41fa98c081472e6896dfb254c00260801c916155f6565b916fffcb9843d60f6159c9db58835c9266440260801c916155ed565b916fffe5caca7e10e4e61c3624eaa0941cd00260801c916155e4565b916ffff2e50f5f656932ef12357cf3c7fdcc0260801c916155db565b916ffff97272373d413259a46990580e213a0260801c916155d2565b6001600160881b03600160801b6155c7565b6315e4079d60e11b5f5260045ffd5b8061559a565b5f915f19818309918181029384808510940393808503941461593d5783600160401b1115610314575090600160401b910990828211900360c01b910360401c1790565b5050505060401c90565b5f1981600160801b09918160801b918280851094039380850394146159c757838211156102f6578190600160801b0981805f03168092046002816003021880820260020302808202600203028082026002030280820260020302808202600203028091026002030293600183805f03040190848311900302920304170290565b50809250156102f6570490565b5f91905f198282099180820293848085109403938085039414615a1757600160801b8410156103145750600160801b910990828211900360801b910360801c1790565b5050505060801c90565b5f1981600160c01b09918160c01b918280851094039380850394146159c757838211156102f6578190600160c01b0981805f03168092046002816003021880820260020302808202600203028082026002030280820260020302808202600203028091026002030293600183805f03040190848311900302920304170290565b5f91905f198282099180820293848085109403938085039414615ae457600160c01b8410156103145750600160c01b910990828211900360401b910360c01c1790565b5050505060c01c90565b600160ff1b8114611b77575f0390565b919291906001600160801b031680158015615b4d575b6150ff57615b2191615bde565b9015615b3a57611e71916001600160a01b031690615d3c565b611e71916001600160a01b031690615c9c565b506001600160a01b03841615615b14565b90612260811015615bce5760648101809111611b775760c88110615bd6575b612260811015615bce5781156121ad5766b1a2bc2ec50000198211615bce5780612260036122608111611b775766b1a2bc2ec500008301808411611b7757611e7193615bc892615da9565b90613cc1565b505061226090565b5060c8615b7d565b5f19670de0b6b3a7640000820991670de0b6b3a7640000820291828085109403938085039414615c905781841015615c6f57670de0b6b3a7640000829109600182190182168092046002816003021880820260020302808202600203028082026002030280820260020302808202600203028091026002030293600183805f03040190848311900302920304170290565b630c740aef60e31b5f52600452670de0b6b3a764000060245260445260645ffd5b5090611e719250614ada565b5f19600160601b8209918160601b91828085109403938085039414615c905781841015615d1f578190600160601b9009600182190182168092046002816003021880820260020302808202600203028082026002030280820260020302808202600203028091026002030293600183805f03040190848311900302920304170290565b630c740aef60e31b5f52600452600160601b60245260445260645ffd5b5f91905f198282099180820293848085109403938085039414615d9f57600160601b841015615d7f5750600160601b910990828211900360a01b910360601c1790565b630c740aef60e31b8152600492909252602452600160601b604452606490fd5b5050505060601c90565b90915f198383099280830292838086109503948086039514615e3c5782851015615e245790829109600182190182168092046002816003021880820260020302808202600203028082026002030280820260020302808202600203028091026002030293600183805f03040190848311900302920304170290565b630c740aef60e31b5f5260045260245260445260645ffd5b505090611e719250614ada56fea164736f6c634300081c000a60a0346100a257601f61293038819003918201601f19168301916001600160401b038311848410176100a6578084926020946040528339810103126100a257516001600160a01b03811681036100a25760805260405161287590816100bb82396080518181816101590152818161035d01528181610a9a01528181610cbe01528181610f33015281816111dc015281816119fa01528181611b640152611ed70152f35b5f80fd5b634e487b7160e01b5f52604160045260245ffdfe6104406040526004361015610012575f80fd5b5f3560e01c806317647ca91461038c57806388bc2ef314610348578063a4daace814610204578063c73341f214610190578063d45b42f61461011f5763f11618291461005c575f80fd5b3461011b5761012036600319011261011b576100766103d8565b61007e6103ee565b90610087610404565b9160a4356001600160a01b038116810361011b5760c4356001600160401b03811161011b576100ba90369060040161041a565b60e435929091906001600160a01b038416840361011b5761010435946001600160a01b038616860361011b5761011797610104976100f6610690565b5060843592604435916113e5565b93604097959793919351978897886104cd565b0390f35b5f80fd5b3461011b57606036600319011261011b576101386103d8565b604435906001600160a01b038216820361011b5760209161017e91602435907f000000000000000000000000000000000000000000000000000000000000000090611f8b565b6040516001600160a01b039091168152f35b3461011b5760a036600319011261011b576101a96103d8565b6101b16103ee565b6101b9610404565b91608435916001600160401b03831161011b576040936101e06101ec94369060040161041a565b939092604435916119b7565b82516001600160a01b03928316815291166020820152f35b3461011b576102346102625f61021936610447565b9794969392819a93888a949861022d610690565b5087611716565b96819988979399929460018060a01b031696604051998a968796631ad1220760e01b88528d6004890161133c565b0381845afa918215610308575f915f905f955f95610313575b506020600491604051928380926316cd0d6d60e21b82525afa908115610308575f916102c1575b50610117956102b2928692611801565b929091604051978897886104cd565b90506020813d602011610300575b816102dc6020938361066f565b8101031261011b57610117956102b2926102f68793610719565b92509250956102a2565b3d91506102cf565b6040513d5f823e3d90fd5b909450600495506020935061033a91503d805f833e610332818361066f565b8101906112f9565b90965094919390919061027b565b3461011b575f36600319011261011b576040517f00000000000000000000000000000000000000000000000000000000000000006001600160a01b03168152602090f35b3461011b576103ac61039d36610447565b96959095949194939293610a0e565b60c05161011761020051916102405192610260519361022051946103c0519695604051978897886104cd565b600435906001600160a01b038216820361011b57565b602435906001600160a01b038216820361011b57565b606435906001600160a01b038216820361011b57565b9181601f8401121561011b578235916001600160401b03831161011b576020838186019501011161011b57565b60e060031982011261011b576004356001600160a01b038116810361011b57916024356001600160a01b038116810361011b5791604435916064356001600160a01b038116810361011b57916084359160a4356001600160a01b038116810361011b579160c435906001600160401b03821161011b576104c99160040161041a565b9091565b9593909492610100926101e088019660018060a01b0316885260018060a01b03166020880152604087015265ffffffffffff815116606087015265ffffffffffff602082015116608087015265ffffffffffff60408201511660a087015265ffffffffffff60608201511660c087015263ffffffff60808201511660e08701526001600160701b0360a0820151168287015263ffffffff60c08201511661012087015260018060a01b0360e08201511661014087015201516101608501526101808401526101a08301526101e06101c0830152825180915261020082019160206102008360051b8301019401925f915b8383106105cc57505050505090565b909192939460208060a06001936101ff198682030187528260608b518780861b03815116845282810151151583850152604081015160408501520151608060608401528051918291826080860152018484015e5f828201840152601f01601f1916010197019594919091019201906105bd565b61012081019081106001600160401b0382111761065b57604052565b634e487b7160e01b5f52604160045260245ffd5b90601f801991011681019081106001600160401b0382111761065b57604052565b6040519061069d8261063f565b5f610100838281528260208201528260408201528260608201528260808201528260a08201528260c08201528260e08201520152565b6001600160401b03811161065b57601f01601f191660200190565b604051906106fd60408361066f565b600d82526c1c9bdd5d19551bdad95b93dd5d609a1b6020830152565b51906001600160a01b038216820361011b57565b80518210156107415760209160051b010190565b634e487b7160e01b5f52603260045260245ffd5b519065ffffffffffff8216820361011b57565b519063ffffffff8216820361011b57565b91908261012091031261011b576040516107928161063f565b809261079d81610755565b82526107ab60208201610755565b60208301526107bc60408201610755565b60408301526107cd60608201610755565b60608301526107de60808201610768565b608083015260a08101516001600160701b038116810361011b5760a083015261080960c08201610768565b60c083015260e08101516001600160a01b038116810361011b5760e083015261010090810151910152565b6001600160401b03811161065b5760051b60200190565b5190811515820361011b57565b9080601f8301121561011b5781519161087083610834565b9261087e604051948561066f565b80845260208085019160051b8301019183831161011b5760208101915b8383106108aa57505050505090565b82516001600160401b03811161011b578201906080828703601f19011261011b5760405191608083018381106001600160401b0382111761065b5760405260208101516001600160a01b038116810361011b57835261090b6040820161084b565b60208401526060810151604084015260808101516001600160401b03811161011b5760209101019086601f8301121561011b5781519261094a846106d3565b610957604051918261066f565b848152886020868601011161011b575f6020868197828098018386015e83010152606082015281520192019161089b565b906101e08282031261011b5761099d82610719565b926109aa60208401610719565b926040810151926109be8160608401610779565b92610180830151926101a0810151926101c08201516001600160401b03811161011b576109eb9201610858565b90565b908060209392818452848401375f828201840152601f01601f1916010190565b6101c0526101e05261038052610360526102c0526080526101a05260a0525f6103c0525f610220525f610260525f610240525f610200525f60c0525f905f6103c0525f61022052610a5d610690565b610260525f610240525f61020052606060c052610a8b610a7b6106ee565b60a0516101a0516101c05161137e565b906111835750610abe610380517f0000000000000000000000000000000000000000000000000000000000000000611596565b6103a08190525f6104005251610ad381610834565b610420526040516103e052610aee610420516103e05161066f565b806103e05152610b00601f1991610834565b015f5b81811061116f5750505f6103408190526102e0525b6103a051516102e0511015610bdd5760245f60018060a01b03610b416102e0516103a05161072d565b51166040519283809263515a929360e01b82526103805160048301525afa5f9181610bb9575b50610b7e575b5060016102e051016102e052610b18565b80610baf91610b936102e0516103e05161072d565b52610ba46102e0516103e05161072d565b5051610340516116d8565b610340525f610b6d565b610bd69192503d805f833e610bce818361066f565b810190611605565b905f610b67565b610bfc610bec61034051610834565b604051610320526103205161066f565b610340516103205152601f19610c1461034051610834565b013660206103205101375f610300525b6103a05151610300511015610dd857610c43610300516103e05161072d565b516102a0525f610280525b6102a05151610280511015610dc857610280516102a0516001600160a01b0391610c779161072d565b5151165f5f5b610400518110610d9a575b50610d5057604051630862026560e41b81526103805160048201526001600160a01b0382166024820152602081806044810103817f00000000000000000000000000000000000000000000000000000000000000006001600160a01b03165afa908115610308575f91610d61575b506001600160a01b031615610d5057610d15610400516103205161072d565b52610400515f1914610d3c5760016104005101610400526001610280510161028052610c4e565b634e487b7160e01b5f52601160045260245ffd5b506001610280510161028052610c4e565b90506020813d8211610d92575b81610d7b6020938361066f565b8101031261011b57610d8c90610719565b5f610cf6565b3d9150610d6e565b8260018060a01b03610daf836103205161072d565b511614610dbe57600101610c7d565b505060015f610c88565b6001610300510161030052610c24565b5f5f5b610400518110610ee35750610ee15760405163149b559d60e31b81526101c0516001600160a01b0390811660048301526101e0518116602483015261038051604483015261036051811660648301526102c05160848301526080511660a482015260e060c482015260a0516101a0515f9183918291610e5f9160e4840191906109ee565b0381305afa5f915f925f5f905f92855f955f97610eae575b50610e86575b50505050505050565b6103c0969096526102205261026052610240526102005260c05291505f808080808080610e7d565b9550965050505050610ed291503d805f833e610eca818361066f565b810190610988565b9496949590949193915f610e77565b565b610f2f602060018060a01b03610efc846103205161072d565b51604051630862026560e41b815261038051600482015291166001600160a01b0316602482015291829081906044820190565b03817f00000000000000000000000000000000000000000000000000000000000000006001600160a01b03165afa908115610308575f91611136575b5060018060a01b036101c0511690610f8781610380518461221b565b61112c575f9060018060a01b03610fa1856103205161072d565b5160405163f116182960e01b815260048101959095526101e0516001600160a01b03908116602487015261038051604487015261036051811660648701526102c05160848701526080511660a486015261012060c486015260a0516101a05186948594909316929161101991610124860191906109ee565b60e48401929092526001600160a01b03166101048301520381305afa5f915f60e0525f610100525f610120525f610140525f61016052815f610180526110f0575b5061106a57506001905b01610ddb565b821580156110e1575b80156110c2575b611088575b50600190611064565b60e0516103c05261010051610220526101205161026052610140516102405261016051610200526101805160c0529350600191508161107f565b50610240516101405114801561107a575061020051610160511161107a565b50610240516101405111611073565b6111059192503d805f833e610eca818361066f565b9496959390939291929660e05261010052610120526101405261016052610180525f61105a565b5050600190611064565b90506020813d8211611167575b816111506020938361066f565b8101031261011b5761116190610719565b5f610f6b565b3d9150611143565b806060602080936103e05101015201610b03565b90915060208180518101031261011b576001600160a01b03906111a890602001610719565b604051630862026560e41b815261038051600482015291166001600160a01b038116602483015290602081806044810103817f00000000000000000000000000000000000000000000000000000000000000006001600160a01b03165afa908115610308575f916112bf575b506001600160a01b03811615801561129d575b611275576112529160a0516101a0516080516102c05161036051610380516101e0516101c0516113e5565b949695939093929192966103c0526102205261026052610240526102005260c052565b6329013da560e11b5f90815261038051600452610360516001600160a01b0316602452604490fd5b50610380516101c0516112ba9183916001600160a01b031661221b565b611227565b90506020813d6020116112f1575b816112da6020938361066f565b8101031261011b576112eb90610719565b5f611214565b3d91506112cd565b906101808282031261011b5761130f8183610779565b9261012083015192610140810151926101608201516001600160401b03811161011b576109eb9201610858565b6001600160a01b039182168152602081019290925291821660408201526060810192909252909116608082015260c060a082018190526109eb939101916109ee565b8351602090940193909320909260601b6bffffffffffffffffffffffff199081169116186001600160e01b0319166113b5826106d3565b916113c3604051938461066f565b808352368185011161011b576020815f926104c996838701378401015261205c565b929787875f96611434989a9c999d9b8661140896611401610690565b50896122d6565b98819a8a96929460018060a01b0316986040519788968796631ad1220760e01b88528b6004890161133c565b0381865afa8015610308575f905f5f905f926114c2575b60049394506020839597604051958680926316cd0d6d60e21b82525afa8015610308575f90611487575b61147f9450611801565b919092969594565b506020843d6020116114ba575b816114a16020938361066f565b8101031261011b576114b561147f94610719565b611475565b3d9150611494565b505050506114db6004913d805f833e610332818361066f565b92935083929161144b565b3d15611510573d906114f7826106d3565b91611505604051938461066f565b82523d5f602084013e565b606090565b60208183031261011b578051906001600160401b03821161011b57019080601f8301121561011b57815161154881610834565b92611556604051948561066f565b81845260208085019260051b82010192831161011b57602001905b82821061157e5750505090565b6020809161158b84610719565b815201910190611571565b5f91908291604051602081019163d175415360e01b83526024820152602481526115c160448261066f565b51916001600160a01b03165afa6115d66114e6565b901580156115fc575b6115f657806020806109eb93518301019101611515565b50606090565b508051156115df565b60208183031261011b578051906001600160401b03821161011b570181601f8201121561011b5780519061163882610834565b92611646604051948561066f565b8284526020606081860194028301019181831161011b57602001925b828410611670575050505090565b60608483031261011b5760405190606082018281106001600160401b0382111761065b576040526116a085610719565b825260208501519060ff8216820361011b57826020928360609501526116c860408801610768565b6040820152815201930192611662565b91908201809211610d3c57565b6001600160a01b0391821681529116602082015260408101919091526080606082018190526109eb939101916109ee565b919295858198969561172a93988686612382565b9390916001600160a01b0381166117e0575087858361174a938a876119b7565b9790886117598285819b6126c8565b6117d357505060209392916117868892604051978896879586956354aa285160e11b8752600487016116e5565b03916001600160a01b03165afa908115610308575f916117a4575090565b90506020813d6020116117cb575b816117bf6020938361066f565b8101031261011b575190565b3d91506117b2565b9850965092949350505050565b9450509550509250929190565b51906001600160801b038216820361011b57565b919392848280158015906119ae575b6119a55750505f5b815181101561199d5761182b818361072d565b5195602087015115801590611986575b61197b576060870151906101a08280518101031261011b5761185f6020830161084b565b506040820151916060810151916118786080830161084b565b5061188560a08301610719565b5060c0820151966101008301518060020b0361011b576118a861012084016117ed565b50610160830151946101a0610180850151940151985f9c8215158061196e575b80611965575b611943575b505050906118f9916118f18487878f6118ec90826116d8565b6127c6565b929091612819565b939092849a849882811161191a575b50505050505050600101935b93611818565b60019c506119349799506118f1949392916118ec916116d8565b959092905f8080808080611908565b859d5091869160408996959401519061195b92612711565b9c829394506118d3565b508115156118ce565b50604081015115156118c8565b955060010193611914565b5086516001600160a01b038681169116141561183b565b505092919050565b95509392505050565b50811515611810565b936119ce919396956119c76106ee565b918661137e565b90611e7a5750604051630862026560e41b8152600481018290526001600160a01b0386811660248301527f0000000000000000000000000000000000000000000000000000000000000000169390602081604481885afa908115610308575f91611e40575b506001600160a01b038116151580611e25575b611e1d57506001600160a01b03861661eeee14808015611e08575b611d40575b505f935f9260245f611a788a8861284c565b936040519283809263d175415360e01b82528660048301525afa908115610308575f91611d1e575b506001600160a01b03841698975f97889691875b8451811015611cbd5760245f6001600160a01b03611ad2848961072d565b51166040519283809263515a929360e01b82528b60048301525afa5f9181611ca1575b50611b0657506001019a5b9a611ab4565b909b9094919390925f8e5b8751821015611c8f578c908e908b8b8e6001600160a01b03611b33888f61072d565b515116956001600160a01b0390611b4b90889061284c565b16926001600160a01b03168314611c8057611b899186917f000000000000000000000000000000000000000000000000000000000000000090611f8b565b926001600160a01b03841615611c725715611c5c575b60405163fabd491f60e01b81526001600160a01b038e166004820152602481019190915290602090829060449082905afa908115610308578e905f92611c18575b506001600160801b03166001600160801b03821611611c09575b505050600101945b948e611b11565b9c509350915060015f80611bfa565b9150506020813d8211611c54575b81611c336020938361066f565b8101031261011b576001600160801b03611c4d8f926117ed565b9190611be0565b3d9150611c26565b9f5094509250809280948b60019c509b9f611b9f565b505050505060010194611c02565b50505050505060010194611c02565b5050929b60019194929550019a611b00565b611cb69192503d805f833e610bce818361066f565b905f611af5565b50909a91999098509650919450506001600160a01b03871615925086915083908315611d0c575b505050611cef575050565b6329013da560e11b5f5260045260018060a01b031660245260445ffd5b611d16935061221b565b5f8281611ce4565b611d3a91503d805f833e611d32818361066f565b810190611515565b5f611aa0565b15611e0057825b604051630862026560e41b8152600481018490526001600160a01b038216602482015290602082604481895afa918215610308575f92611dc4575b506001600160a01b038216151580611da9575b611d9f5750611a66565b9650949350505050565b50611dbe82856001600160a01b03861661221b565b15611d95565b9091506020813d602011611df8575b81611de06020938361066f565b8101031261011b57611df190610719565b905f611d82565b3d9150611dd3565b61eeee611d47565b506001600160a01b0387811690851614611a61565b949350505050565b50611e3a81846001600160a01b03851661221b565b15611a46565b90506020813d602011611e72575b81611e5b6020938361066f565b8101031261011b57611e6c90610719565b5f611a33565b3d9150611e4e565b909294915060208180518101031261011b576001600160a01b0390611ea190602001610719565b604051630862026560e41b81526004810185905291166001600160a01b03811660248301529094909290602086806044810103817f00000000000000000000000000000000000000000000000000000000000000006001600160a01b03165afa958615610308575f96611f4f575b506001600160a01b0386161590869083908315611f34575b505050611cef5750509190565b611f4793506001600160a01b031661221b565b85825f611f27565b9095506020813d602011611f83575b81611f6b6020938361066f565b8101031261011b57611f7c90610719565b945f611f0f565b3d9150611f5e565b604051630862026560e41b8152600481018490526001600160a01b03948516602482015292949390929160209183916044918391165afa908115610308575f91612011575b50926001600160a01b03841615918491908315611ff6575b505050611ff157565b5f9150565b61200993506001600160a01b031661221b565b5f8080611fe8565b90506020813d602011612043575b8161202c6020938361066f565b8101031261011b5761203d90610719565b5f611fd0565b3d915061201f565b908151811015610741570160200190565b90915f916060602585511115612200578451602410156107415760448501518060f81c9160205b60048101808211610d3c576001600160f81b03196120a1828b61204b565b51161515806121e1575b156121d7576120ba908961204b565b516020828a01015160f882901c91906001600160e01b03198881169116146120e6575050600501612083565b9550959650929050600983018093119182610d3c57611fe0809160f31c16169080820460201490151715610d3c5782108015906121b8575b15612181575050611fe0808551925b60f31c16169180830460201490151715610d3c578190039060405193601f19603f8487010116604052828552015f5b82811061216c5750505060019190565b8060208092840101518282880101520161215c565b610d3c5761218f908561204b565b51611fe0808260f81c9260f31c16169080820460201490151715610d3c57611fe080919261212d565b505f90506001600160f81b03196121cf838861204b565b51161561211e565b5050949550505050565b5060f384901c611fe01685156020878304141715610d3c5782106120ab565b50509150505f9060405161221560208261066f565b5f815290565b905f925b600584106122305750505050600190565b6001600160a01b0390811690831681146122cd575f80916040516020810190634fe0eced60e01b82528560248201526024815261226e60448261066f565b51915afa61227a6114e6565b901580156122c2575b6122ba5760208180518101031261011b5760206122a09101610719565b6001600160a01b038116156122ba5760019093019261221f565b505050505f90565b506020815110612283565b50505050600190565b929585819589986122eb959b9a949b8761254a565b909391506122fc868295809a6126c8565b61237857509380959661232960209596604051978896879586956354aa285160e11b8752600487016116e5565b03916001600160a01b03165afa908115610308575f9161234857509091565b90506020813d602011612370575b816123636020938361066f565b8101031261011b57519091565b3d9150612356565b9650505050509190565b939593916001600160a01b038116919061eeee83148015612467575b61245a57506123df606095969760405198899687958695634fa742a160e11b875260048701526024860152604485015260a0606485015260a48401916109ee565b5f608483015203916001600160a01b03165afa908115610308575f5f935f93612409575b50929190565b92505091506060813d606011612452575b816124276060938361066f565b8101031261011b5761243881610719565b91604061244760208401610719565b92015191925f612403565b3d915061241a565b965050505091505f929190565b50604051630760c75760e21b81526020816004816001600160a01b0389165afa908115610308575f91612507575b50604051630f85421b60e01b81526004810185905290602090829060249082906001600160a01b03165afa908115610308575f916124d5575b501561239e565b90506020813d6020116124ff575b816124f06020938361066f565b8101031261011b57515f6124ce565b3d91506124e3565b90506020813d602011612542575b816125226020938361066f565b8101031261011b57516001600160a01b038116810361011b576020612495565b3d9150612515565b939694959293926001600160a01b0383169261eeee841480156125e5575b6125d757506125a96060969798604051998a9788968796634fa742a160e11b885260048801526024870152604486015260a0606486015260a48501916109ee565b6001600160a01b0391821660848401529190910392165afa908115610308575f5f935f936124095750929190565b97505050505091505f929190565b50604051630760c75760e21b81526020816004816001600160a01b038a165afa908115610308575f91612685575b50604051630f85421b60e01b81526004810186905290602090829060249082906001600160a01b03165afa908115610308575f91612653575b5015612568565b90506020813d60201161267d575b8161266e6020938361066f565b8101031261011b57515f61264c565b3d9150612661565b90506020813d6020116126c0575b816126a06020938361066f565b8101031261011b57516001600160a01b038116810361011b576020612613565b3d9150612693565b906001600160a01b0380821690841614612709576126e96126f8918361284c565b926001600160a01b039261284c565b6001600160a01b0390921691161490565b505050600190565b90915f1983830992808302928380861095039480860395146127a4578285101561278c5790829109600182190182168092046002816003021880820260020302808202600203028082026002030280820260020302808202600203028091026002030293600183805f03040190848311900302920304170290565b630c740aef60e31b5f5260045260245260445260645ffd5b5050809250156127b2570490565b634e487b7160e01b5f52601260045260245ffd5b93929190918415612811576127db90826116d8565b918215612809575b50811561280357906127f59184612711565b91828103908111610d3c5790565b50505f90565b91505f6127e3565b935090509190565b91939290938281118015612839575b6128325750509190565b9350919050565b5082811480156128285750848211612828565b906001600160a01b03811661eeee03612863575090565b90509056fea164736f6c634300081c000a",
	"gitCommit": "npm:@bananapus/router-terminal-v6@0.0.64",
	"gitDirty": false,
	"history": []
}