{
	"format": "sphinx-sol-ct-artifact-1",
	"address": "0x0fbcbb3d10c8f524840d74ef81c1a9f161c418d7",
	"sourceName": "node_modules/@bananapus/router-terminal-v6/src/JBRouterTerminal.sol",
	"contractName": "JBRouterTerminal",
	"chainId": "0xaa36a7",
	"abi": [
		{
			"type": "constructor",
			"inputs": [
				{
					"name": "directory",
					"type": "address",
					"internalType": "contract IJBDirectory"
				},
				{
					"name": "tokens",
					"type": "address",
					"internalType": "contract IJBTokens"
				},
				{
					"name": "permit2",
					"type": "address",
					"internalType": "contract IPermit2"
				},
				{
					"name": "buybackHook",
					"type": "address",
					"internalType": "address"
				},
				{
					"name": "trustedForwarder",
					"type": "address",
					"internalType": "address"
				},
				{
					"name": "deployer",
					"type": "address",
					"internalType": "address"
				}
			],
			"stateMutability": "nonpayable"
		},
		{
			"type": "receive",
			"stateMutability": "payable"
		},
		{
			"type": "function",
			"name": "BUYBACK_HOOK",
			"inputs": [],
			"outputs": [
				{
					"name": "",
					"type": "address",
					"internalType": "address"
				}
			],
			"stateMutability": "view"
		},
		{
			"type": "function",
			"name": "DEFAULT_TWAP_WINDOW",
			"inputs": [],
			"outputs": [
				{
					"name": "",
					"type": "uint256",
					"internalType": "uint256"
				}
			],
			"stateMutability": "view"
		},
		{
			"type": "function",
			"name": "DIRECTORY",
			"inputs": [],
			"outputs": [
				{
					"name": "",
					"type": "address",
					"internalType": "contract IJBDirectory"
				}
			],
			"stateMutability": "view"
		},
		{
			"type": "function",
			"name": "MIN_TWAP_WINDOW",
			"inputs": [],
			"outputs": [
				{
					"name": "",
					"type": "uint32",
					"internalType": "uint32"
				}
			],
			"stateMutability": "view"
		},
		{
			"type": "function",
			"name": "PERMIT2",
			"inputs": [],
			"outputs": [
				{
					"name": "",
					"type": "address",
					"internalType": "contract IPermit2"
				}
			],
			"stateMutability": "view"
		},
		{
			"type": "function",
			"name": "TOKENS",
			"inputs": [],
			"outputs": [
				{
					"name": "",
					"type": "address",
					"internalType": "contract IJBTokens"
				}
			],
			"stateMutability": "view"
		},
		{
			"type": "function",
			"name": "accountingContextForTokenOf",
			"inputs": [
				{
					"name": "",
					"type": "uint256",
					"internalType": "uint256"
				},
				{
					"name": "token",
					"type": "address",
					"internalType": "address"
				}
			],
			"outputs": [
				{
					"name": "",
					"type": "tuple",
					"internalType": "struct JBAccountingContext",
					"components": [
						{
							"name": "token",
							"type": "address",
							"internalType": "address"
						},
						{
							"name": "decimals",
							"type": "uint8",
							"internalType": "uint8"
						},
						{
							"name": "currency",
							"type": "uint32",
							"internalType": "uint32"
						}
					]
				}
			],
			"stateMutability": "view"
		},
		{
			"type": "function",
			"name": "accountingContextsOf",
			"inputs": [
				{
					"name": "projectId",
					"type": "uint256",
					"internalType": "uint256"
				}
			],
			"outputs": [
				{
					"name": "contexts",
					"type": "tuple[]",
					"internalType": "struct JBAccountingContext[]",
					"components": [
						{
							"name": "token",
							"type": "address",
							"internalType": "address"
						},
						{
							"name": "decimals",
							"type": "uint8",
							"internalType": "uint8"
						},
						{
							"name": "currency",
							"type": "uint32",
							"internalType": "uint32"
						}
					]
				}
			],
			"stateMutability": "pure"
		},
		{
			"type": "function",
			"name": "addAccountingContextsFor",
			"inputs": [
				{
					"name": "projectId",
					"type": "uint256",
					"internalType": "uint256"
				},
				{
					"name": "accountingContexts",
					"type": "tuple[]",
					"internalType": "struct JBAccountingContext[]",
					"components": [
						{
							"name": "token",
							"type": "address",
							"internalType": "address"
						},
						{
							"name": "decimals",
							"type": "uint8",
							"internalType": "uint8"
						},
						{
							"name": "currency",
							"type": "uint32",
							"internalType": "uint32"
						}
					]
				}
			],
			"outputs": [],
			"stateMutability": "nonpayable"
		},
		{
			"type": "function",
			"name": "addToBalanceOf",
			"inputs": [
				{
					"name": "projectId",
					"type": "uint256",
					"internalType": "uint256"
				},
				{
					"name": "token",
					"type": "address",
					"internalType": "address"
				},
				{
					"name": "amount",
					"type": "uint256",
					"internalType": "uint256"
				},
				{
					"name": "shouldReturnHeldFees",
					"type": "bool",
					"internalType": "bool"
				},
				{
					"name": "memo",
					"type": "string",
					"internalType": "string"
				},
				{
					"name": "metadata",
					"type": "bytes",
					"internalType": "bytes"
				}
			],
			"outputs": [],
			"stateMutability": "payable"
		},
		{
			"type": "function",
			"name": "bestPoolLiquidityOf",
			"inputs": [
				{
					"name": "tokenA",
					"type": "address",
					"internalType": "address"
				},
				{
					"name": "tokenB",
					"type": "address",
					"internalType": "address"
				}
			],
			"outputs": [
				{
					"name": "",
					"type": "uint128",
					"internalType": "uint128"
				}
			],
			"stateMutability": "view"
		},
		{
			"type": "function",
			"name": "currentSurplusOf",
			"inputs": [
				{
					"name": "projectId",
					"type": "uint256",
					"internalType": "uint256"
				},
				{
					"name": "tokens",
					"type": "address[]",
					"internalType": "address[]"
				},
				{
					"name": "decimals",
					"type": "uint256",
					"internalType": "uint256"
				},
				{
					"name": "currency",
					"type": "uint256",
					"internalType": "uint256"
				}
			],
			"outputs": [
				{
					"name": "surplus",
					"type": "uint256",
					"internalType": "uint256"
				}
			],
			"stateMutability": "pure"
		},
		{
			"type": "function",
			"name": "discoverBestPool",
			"inputs": [
				{
					"name": "normalizedTokenIn",
					"type": "address",
					"internalType": "address"
				},
				{
					"name": "normalizedTokenOut",
					"type": "address",
					"internalType": "address"
				}
			],
			"outputs": [
				{
					"name": "",
					"type": "tuple",
					"internalType": "struct PoolInfo",
					"components": [
						{
							"name": "isV4",
							"type": "bool",
							"internalType": "bool"
						},
						{
							"name": "v3Pool",
							"type": "address",
							"internalType": "contract IUniswapV3Pool"
						},
						{
							"name": "v4Key",
							"type": "tuple",
							"internalType": "struct PoolKey",
							"components": [
								{
									"name": "currency0",
									"type": "address",
									"internalType": "Currency"
								},
								{
									"name": "currency1",
									"type": "address",
									"internalType": "Currency"
								},
								{
									"name": "fee",
									"type": "uint24",
									"internalType": "uint24"
								},
								{
									"name": "tickSpacing",
									"type": "int24",
									"internalType": "int24"
								},
								{
									"name": "hooks",
									"type": "address",
									"internalType": "contract IHooks"
								}
							]
						}
					]
				}
			],
			"stateMutability": "view"
		},
		{
			"type": "function",
			"name": "discoverPool",
			"inputs": [
				{
					"name": "normalizedTokenIn",
					"type": "address",
					"internalType": "address"
				},
				{
					"name": "normalizedTokenOut",
					"type": "address",
					"internalType": "address"
				}
			],
			"outputs": [
				{
					"name": "pool",
					"type": "address",
					"internalType": "contract IUniswapV3Pool"
				}
			],
			"stateMutability": "view"
		},
		{
			"type": "function",
			"name": "factory",
			"inputs": [],
			"outputs": [
				{
					"name": "",
					"type": "address",
					"internalType": "contract IUniswapV3Factory"
				}
			],
			"stateMutability": "view"
		},
		{
			"type": "function",
			"name": "isTrustedForwarder",
			"inputs": [
				{
					"name": "forwarder",
					"type": "address",
					"internalType": "address"
				}
			],
			"outputs": [
				{
					"name": "",
					"type": "bool",
					"internalType": "bool"
				}
			],
			"stateMutability": "view"
		},
		{
			"type": "function",
			"name": "migrateBalanceOf",
			"inputs": [
				{
					"name": "projectId",
					"type": "uint256",
					"internalType": "uint256"
				},
				{
					"name": "token",
					"type": "address",
					"internalType": "address"
				},
				{
					"name": "to",
					"type": "address",
					"internalType": "contract IJBTerminal"
				}
			],
			"outputs": [
				{
					"name": "balance",
					"type": "uint256",
					"internalType": "uint256"
				}
			],
			"stateMutability": "pure"
		},
		{
			"type": "function",
			"name": "pay",
			"inputs": [
				{
					"name": "projectId",
					"type": "uint256",
					"internalType": "uint256"
				},
				{
					"name": "token",
					"type": "address",
					"internalType": "address"
				},
				{
					"name": "amount",
					"type": "uint256",
					"internalType": "uint256"
				},
				{
					"name": "beneficiary",
					"type": "address",
					"internalType": "address"
				},
				{
					"name": "minReturnedTokens",
					"type": "uint256",
					"internalType": "uint256"
				},
				{
					"name": "memo",
					"type": "string",
					"internalType": "string"
				},
				{
					"name": "metadata",
					"type": "bytes",
					"internalType": "bytes"
				}
			],
			"outputs": [
				{
					"name": "beneficiaryTokenCount",
					"type": "uint256",
					"internalType": "uint256"
				}
			],
			"stateMutability": "payable"
		},
		{
			"type": "function",
			"name": "poolManager",
			"inputs": [],
			"outputs": [
				{
					"name": "",
					"type": "address",
					"internalType": "contract IPoolManager"
				}
			],
			"stateMutability": "view"
		},
		{
			"type": "function",
			"name": "previewCashOutLoopOf",
			"inputs": [
				{
					"name": "destProjectId",
					"type": "uint256",
					"internalType": "uint256"
				},
				{
					"name": "token",
					"type": "address",
					"internalType": "address"
				},
				{
					"name": "amount",
					"type": "uint256",
					"internalType": "uint256"
				},
				{
					"name": "metadata",
					"type": "bytes",
					"internalType": "bytes"
				},
				{
					"name": "preferredToken",
					"type": "address",
					"internalType": "address"
				}
			],
			"outputs": [
				{
					"name": "destTerminal",
					"type": "address",
					"internalType": "contract IJBTerminal"
				},
				{
					"name": "finalToken",
					"type": "address",
					"internalType": "address"
				},
				{
					"name": "finalAmount",
					"type": "uint256",
					"internalType": "uint256"
				}
			],
			"stateMutability": "view"
		},
		{
			"type": "function",
			"name": "previewPayFor",
			"inputs": [
				{
					"name": "projectId",
					"type": "uint256",
					"internalType": "uint256"
				},
				{
					"name": "token",
					"type": "address",
					"internalType": "address"
				},
				{
					"name": "amount",
					"type": "uint256",
					"internalType": "uint256"
				},
				{
					"name": "beneficiary",
					"type": "address",
					"internalType": "address"
				},
				{
					"name": "metadata",
					"type": "bytes",
					"internalType": "bytes"
				}
			],
			"outputs": [
				{
					"name": "ruleset",
					"type": "tuple",
					"internalType": "struct JBRuleset",
					"components": [
						{
							"name": "cycleNumber",
							"type": "uint48",
							"internalType": "uint48"
						},
						{
							"name": "id",
							"type": "uint48",
							"internalType": "uint48"
						},
						{
							"name": "basedOnId",
							"type": "uint48",
							"internalType": "uint48"
						},
						{
							"name": "start",
							"type": "uint48",
							"internalType": "uint48"
						},
						{
							"name": "duration",
							"type": "uint32",
							"internalType": "uint32"
						},
						{
							"name": "weight",
							"type": "uint112",
							"internalType": "uint112"
						},
						{
							"name": "weightCutPercent",
							"type": "uint32",
							"internalType": "uint32"
						},
						{
							"name": "approvalHook",
							"type": "address",
							"internalType": "contract IJBRulesetApprovalHook"
						},
						{
							"name": "metadata",
							"type": "uint256",
							"internalType": "uint256"
						}
					]
				},
				{
					"name": "beneficiaryTokenCount",
					"type": "uint256",
					"internalType": "uint256"
				},
				{
					"name": "reservedTokenCount",
					"type": "uint256",
					"internalType": "uint256"
				},
				{
					"name": "hookSpecifications",
					"type": "tuple[]",
					"internalType": "struct JBPayHookSpecification[]",
					"components": [
						{
							"name": "hook",
							"type": "address",
							"internalType": "contract IJBPayHook"
						},
						{
							"name": "noop",
							"type": "bool",
							"internalType": "bool"
						},
						{
							"name": "amount",
							"type": "uint256",
							"internalType": "uint256"
						},
						{
							"name": "metadata",
							"type": "bytes",
							"internalType": "bytes"
						}
					]
				}
			],
			"stateMutability": "view"
		},
		{
			"type": "function",
			"name": "previewSwapAmountOutOf",
			"inputs": [
				{
					"name": "tokenIn",
					"type": "address",
					"internalType": "address"
				},
				{
					"name": "tokenOut",
					"type": "address",
					"internalType": "address"
				},
				{
					"name": "amount",
					"type": "uint256",
					"internalType": "uint256"
				},
				{
					"name": "metadata",
					"type": "bytes",
					"internalType": "bytes"
				}
			],
			"outputs": [
				{
					"name": "amountOut",
					"type": "uint256",
					"internalType": "uint256"
				}
			],
			"stateMutability": "view"
		},
		{
			"type": "function",
			"name": "previewTerminalPayOf",
			"inputs": [
				{
					"name": "destTerminal",
					"type": "address",
					"internalType": "contract IJBTerminal"
				},
				{
					"name": "projectId",
					"type": "uint256",
					"internalType": "uint256"
				},
				{
					"name": "token",
					"type": "address",
					"internalType": "address"
				},
				{
					"name": "amount",
					"type": "uint256",
					"internalType": "uint256"
				},
				{
					"name": "beneficiary",
					"type": "address",
					"internalType": "address"
				},
				{
					"name": "metadata",
					"type": "bytes",
					"internalType": "bytes"
				}
			],
			"outputs": [
				{
					"name": "",
					"type": "tuple",
					"internalType": "struct JBRuleset",
					"components": [
						{
							"name": "cycleNumber",
							"type": "uint48",
							"internalType": "uint48"
						},
						{
							"name": "id",
							"type": "uint48",
							"internalType": "uint48"
						},
						{
							"name": "basedOnId",
							"type": "uint48",
							"internalType": "uint48"
						},
						{
							"name": "start",
							"type": "uint48",
							"internalType": "uint48"
						},
						{
							"name": "duration",
							"type": "uint32",
							"internalType": "uint32"
						},
						{
							"name": "weight",
							"type": "uint112",
							"internalType": "uint112"
						},
						{
							"name": "weightCutPercent",
							"type": "uint32",
							"internalType": "uint32"
						},
						{
							"name": "approvalHook",
							"type": "address",
							"internalType": "contract IJBRulesetApprovalHook"
						},
						{
							"name": "metadata",
							"type": "uint256",
							"internalType": "uint256"
						}
					]
				},
				{
					"name": "",
					"type": "uint256",
					"internalType": "uint256"
				},
				{
					"name": "",
					"type": "uint256",
					"internalType": "uint256"
				},
				{
					"name": "",
					"type": "tuple[]",
					"internalType": "struct JBPayHookSpecification[]",
					"components": [
						{
							"name": "hook",
							"type": "address",
							"internalType": "contract IJBPayHook"
						},
						{
							"name": "noop",
							"type": "bool",
							"internalType": "bool"
						},
						{
							"name": "amount",
							"type": "uint256",
							"internalType": "uint256"
						},
						{
							"name": "metadata",
							"type": "bytes",
							"internalType": "bytes"
						}
					]
				}
			],
			"stateMutability": "view"
		},
		{
			"type": "function",
			"name": "setChainSpecificConstants",
			"inputs": [
				{
					"name": "newWrappedNativeToken",
					"type": "address",
					"internalType": "contract IWETH9"
				},
				{
					"name": "newFactory",
					"type": "address",
					"internalType": "contract IUniswapV3Factory"
				},
				{
					"name": "newPoolManager",
					"type": "address",
					"internalType": "contract IPoolManager"
				},
				{
					"name": "newUniv4Hook",
					"type": "address",
					"internalType": "address"
				}
			],
			"outputs": [],
			"stateMutability": "nonpayable"
		},
		{
			"type": "function",
			"name": "supportsInterface",
			"inputs": [
				{
					"name": "interfaceId",
					"type": "bytes4",
					"internalType": "bytes4"
				}
			],
			"outputs": [
				{
					"name": "",
					"type": "bool",
					"internalType": "bool"
				}
			],
			"stateMutability": "view"
		},
		{
			"type": "function",
			"name": "trustedForwarder",
			"inputs": [],
			"outputs": [
				{
					"name": "",
					"type": "address",
					"internalType": "address"
				}
			],
			"stateMutability": "view"
		},
		{
			"type": "function",
			"name": "uniswapV3SwapCallback",
			"inputs": [
				{
					"name": "amount0Delta",
					"type": "int256",
					"internalType": "int256"
				},
				{
					"name": "amount1Delta",
					"type": "int256",
					"internalType": "int256"
				},
				{
					"name": "data",
					"type": "bytes",
					"internalType": "bytes"
				}
			],
			"outputs": [],
			"stateMutability": "nonpayable"
		},
		{
			"type": "function",
			"name": "univ4Hook",
			"inputs": [],
			"outputs": [
				{
					"name": "",
					"type": "address",
					"internalType": "address"
				}
			],
			"stateMutability": "view"
		},
		{
			"type": "function",
			"name": "unlockCallback",
			"inputs": [
				{
					"name": "data",
					"type": "bytes",
					"internalType": "bytes"
				}
			],
			"outputs": [
				{
					"name": "",
					"type": "bytes",
					"internalType": "bytes"
				}
			],
			"stateMutability": "nonpayable"
		},
		{
			"type": "function",
			"name": "wrappedNativeToken",
			"inputs": [],
			"outputs": [
				{
					"name": "",
					"type": "address",
					"internalType": "contract IWETH9"
				}
			],
			"stateMutability": "view"
		},
		{
			"type": "event",
			"name": "AddToBalance",
			"inputs": [
				{
					"name": "projectId",
					"type": "uint256",
					"indexed": true,
					"internalType": "uint256"
				},
				{
					"name": "amount",
					"type": "uint256",
					"indexed": false,
					"internalType": "uint256"
				},
				{
					"name": "returnedFees",
					"type": "uint256",
					"indexed": false,
					"internalType": "uint256"
				},
				{
					"name": "memo",
					"type": "string",
					"indexed": false,
					"internalType": "string"
				},
				{
					"name": "metadata",
					"type": "bytes",
					"indexed": false,
					"internalType": "bytes"
				},
				{
					"name": "caller",
					"type": "address",
					"indexed": false,
					"internalType": "address"
				}
			],
			"anonymous": false
		},
		{
			"type": "event",
			"name": "HookAfterRecordPay",
			"inputs": [
				{
					"name": "hook",
					"type": "address",
					"indexed": true,
					"internalType": "contract IJBPayHook"
				},
				{
					"name": "context",
					"type": "tuple",
					"indexed": false,
					"internalType": "struct JBAfterPayRecordedContext",
					"components": [
						{
							"name": "payer",
							"type": "address",
							"internalType": "address"
						},
						{
							"name": "projectId",
							"type": "uint256",
							"internalType": "uint256"
						},
						{
							"name": "rulesetId",
							"type": "uint256",
							"internalType": "uint256"
						},
						{
							"name": "amount",
							"type": "tuple",
							"internalType": "struct JBTokenAmount",
							"components": [
								{
									"name": "token",
									"type": "address",
									"internalType": "address"
								},
								{
									"name": "decimals",
									"type": "uint8",
									"internalType": "uint8"
								},
								{
									"name": "currency",
									"type": "uint32",
									"internalType": "uint32"
								},
								{
									"name": "value",
									"type": "uint256",
									"internalType": "uint256"
								}
							]
						},
						{
							"name": "forwardedAmount",
							"type": "tuple",
							"internalType": "struct JBTokenAmount",
							"components": [
								{
									"name": "token",
									"type": "address",
									"internalType": "address"
								},
								{
									"name": "decimals",
									"type": "uint8",
									"internalType": "uint8"
								},
								{
									"name": "currency",
									"type": "uint32",
									"internalType": "uint32"
								},
								{
									"name": "value",
									"type": "uint256",
									"internalType": "uint256"
								}
							]
						},
						{
							"name": "weight",
							"type": "uint256",
							"internalType": "uint256"
						},
						{
							"name": "newlyIssuedTokenCount",
							"type": "uint256",
							"internalType": "uint256"
						},
						{
							"name": "beneficiary",
							"type": "address",
							"internalType": "address"
						},
						{
							"name": "hookMetadata",
							"type": "bytes",
							"internalType": "bytes"
						},
						{
							"name": "payerMetadata",
							"type": "bytes",
							"internalType": "bytes"
						}
					]
				},
				{
					"name": "specificationAmount",
					"type": "uint256",
					"indexed": false,
					"internalType": "uint256"
				},
				{
					"name": "caller",
					"type": "address",
					"indexed": false,
					"internalType": "address"
				}
			],
			"anonymous": false
		},
		{
			"type": "event",
			"name": "MigrateTerminal",
			"inputs": [
				{
					"name": "projectId",
					"type": "uint256",
					"indexed": true,
					"internalType": "uint256"
				},
				{
					"name": "token",
					"type": "address",
					"indexed": true,
					"internalType": "address"
				},
				{
					"name": "to",
					"type": "address",
					"indexed": true,
					"internalType": "contract IJBTerminal"
				},
				{
					"name": "amount",
					"type": "uint256",
					"indexed": false,
					"internalType": "uint256"
				},
				{
					"name": "caller",
					"type": "address",
					"indexed": false,
					"internalType": "address"
				}
			],
			"anonymous": false
		},
		{
			"type": "event",
			"name": "Pay",
			"inputs": [
				{
					"name": "rulesetId",
					"type": "uint256",
					"indexed": true,
					"internalType": "uint256"
				},
				{
					"name": "rulesetCycleNumber",
					"type": "uint256",
					"indexed": true,
					"internalType": "uint256"
				},
				{
					"name": "projectId",
					"type": "uint256",
					"indexed": true,
					"internalType": "uint256"
				},
				{
					"name": "payer",
					"type": "address",
					"indexed": false,
					"internalType": "address"
				},
				{
					"name": "beneficiary",
					"type": "address",
					"indexed": false,
					"internalType": "address"
				},
				{
					"name": "amount",
					"type": "uint256",
					"indexed": false,
					"internalType": "uint256"
				},
				{
					"name": "newlyIssuedTokenCount",
					"type": "uint256",
					"indexed": false,
					"internalType": "uint256"
				},
				{
					"name": "memo",
					"type": "string",
					"indexed": false,
					"internalType": "string"
				},
				{
					"name": "metadata",
					"type": "bytes",
					"indexed": false,
					"internalType": "bytes"
				},
				{
					"name": "caller",
					"type": "address",
					"indexed": false,
					"internalType": "address"
				}
			],
			"anonymous": false
		},
		{
			"type": "event",
			"name": "Permit2AllowanceFailed",
			"inputs": [
				{
					"name": "token",
					"type": "address",
					"indexed": true,
					"internalType": "address"
				},
				{
					"name": "owner",
					"type": "address",
					"indexed": true,
					"internalType": "address"
				},
				{
					"name": "reason",
					"type": "bytes",
					"indexed": false,
					"internalType": "bytes"
				}
			],
			"anonymous": false
		},
		{
			"type": "event",
			"name": "Permit2AllowanceFailed",
			"inputs": [
				{
					"name": "token",
					"type": "address",
					"indexed": true,
					"internalType": "address"
				},
				{
					"name": "owner",
					"type": "address",
					"indexed": true,
					"internalType": "address"
				},
				{
					"name": "reason",
					"type": "bytes",
					"indexed": false,
					"internalType": "bytes"
				},
				{
					"name": "caller",
					"type": "address",
					"indexed": false,
					"internalType": "address"
				}
			],
			"anonymous": false
		},
		{
			"type": "event",
			"name": "SetAccountingContext",
			"inputs": [
				{
					"name": "projectId",
					"type": "uint256",
					"indexed": true,
					"internalType": "uint256"
				},
				{
					"name": "context",
					"type": "tuple",
					"indexed": false,
					"internalType": "struct JBAccountingContext",
					"components": [
						{
							"name": "token",
							"type": "address",
							"internalType": "address"
						},
						{
							"name": "decimals",
							"type": "uint8",
							"internalType": "uint8"
						},
						{
							"name": "currency",
							"type": "uint32",
							"internalType": "uint32"
						}
					]
				},
				{
					"name": "caller",
					"type": "address",
					"indexed": false,
					"internalType": "address"
				}
			],
			"anonymous": false
		},
		{
			"type": "error",
			"name": "FailedCall",
			"inputs": []
		},
		{
			"type": "error",
			"name": "InsufficientBalance",
			"inputs": [
				{
					"name": "balance",
					"type": "uint256",
					"internalType": "uint256"
				},
				{
					"name": "needed",
					"type": "uint256",
					"internalType": "uint256"
				}
			]
		},
		{
			"type": "error",
			"name": "JBRouterTerminal_AlreadyConfigured",
			"inputs": []
		},
		{
			"type": "error",
			"name": "JBRouterTerminal_AmountOverflow",
			"inputs": [
				{
					"name": "amount",
					"type": "uint256",
					"internalType": "uint256"
				}
			]
		},
		{
			"type": "error",
			"name": "JBRouterTerminal_CallerNotPool",
			"inputs": [
				{
					"name": "caller",
					"type": "address",
					"internalType": "address"
				}
			]
		},
		{
			"type": "error",
			"name": "JBRouterTerminal_CallerNotPoolManager",
			"inputs": [
				{
					"name": "caller",
					"type": "address",
					"internalType": "address"
				}
			]
		},
		{
			"type": "error",
			"name": "JBRouterTerminal_CashOutDidNotDeliver",
			"inputs": [
				{
					"name": "sourceToken",
					"type": "address",
					"internalType": "address"
				},
				{
					"name": "tokenToReclaim",
					"type": "address",
					"internalType": "address"
				},
				{
					"name": "cashOutCount",
					"type": "uint256",
					"internalType": "uint256"
				}
			]
		},
		{
			"type": "error",
			"name": "JBRouterTerminal_CashOutLoopLimit",
			"inputs": [
				{
					"name": "maxIterations",
					"type": "uint256",
					"internalType": "uint256"
				}
			]
		},
		{
			"type": "error",
			"name": "JBRouterTerminal_InsufficientTwapHistory",
			"inputs": [
				{
					"name": "pool",
					"type": "address",
					"internalType": "address"
				},
				{
					"name": "twapWindow",
					"type": "uint256",
					"internalType": "uint256"
				},
				{
					"name": "minTwapWindow",
					"type": "uint256",
					"internalType": "uint256"
				}
			]
		},
		{
			"type": "error",
			"name": "JBRouterTerminal_ManipulationResistantQuoteRequired",
			"inputs": [
				{
					"name": "poolId",
					"type": "bytes32",
					"internalType": "PoolId"
				}
			]
		},
		{
			"type": "error",
			"name": "JBRouterTerminal_NoCashOutPath",
			"inputs": [
				{
					"name": "sourceProjectId",
					"type": "uint256",
					"internalType": "uint256"
				},
				{
					"name": "destProjectId",
					"type": "uint256",
					"internalType": "uint256"
				}
			]
		},
		{
			"type": "error",
			"name": "JBRouterTerminal_NoLiquidity",
			"inputs": [
				{
					"name": "pool",
					"type": "address",
					"internalType": "address"
				},
				{
					"name": "poolId",
					"type": "bytes32",
					"internalType": "PoolId"
				}
			]
		},
		{
			"type": "error",
			"name": "JBRouterTerminal_NoMsgValueAllowed",
			"inputs": [
				{
					"name": "value",
					"type": "uint256",
					"internalType": "uint256"
				}
			]
		},
		{
			"type": "error",
			"name": "JBRouterTerminal_NoObservationHistory",
			"inputs": [
				{
					"name": "pool",
					"type": "address",
					"internalType": "address"
				}
			]
		},
		{
			"type": "error",
			"name": "JBRouterTerminal_NoPoolFound",
			"inputs": [
				{
					"name": "tokenIn",
					"type": "address",
					"internalType": "address"
				},
				{
					"name": "tokenOut",
					"type": "address",
					"internalType": "address"
				}
			]
		},
		{
			"type": "error",
			"name": "JBRouterTerminal_NonStandardTerminalToken",
			"inputs": [
				{
					"name": "terminal",
					"type": "address",
					"internalType": "address"
				},
				{
					"name": "token",
					"type": "address",
					"internalType": "address"
				},
				{
					"name": "expectedAmount",
					"type": "uint256",
					"internalType": "uint256"
				},
				{
					"name": "actualAmount",
					"type": "uint256",
					"internalType": "uint256"
				}
			]
		},
		{
			"type": "error",
			"name": "JBRouterTerminal_PermitAllowanceNotEnough",
			"inputs": [
				{
					"name": "amount",
					"type": "uint256",
					"internalType": "uint256"
				},
				{
					"name": "allowance",
					"type": "uint256",
					"internalType": "uint256"
				}
			]
		},
		{
			"type": "error",
			"name": "JBRouterTerminal_QuoteTokenMismatch",
			"inputs": [
				{
					"name": "quotedTokenOut",
					"type": "address",
					"internalType": "address"
				},
				{
					"name": "expectedTokenOut",
					"type": "address",
					"internalType": "address"
				}
			]
		},
		{
			"type": "error",
			"name": "JBRouterTerminal_SlippageExceeded",
			"inputs": [
				{
					"name": "amountOut",
					"type": "uint256",
					"internalType": "uint256"
				},
				{
					"name": "minAmountOut",
					"type": "uint256",
					"internalType": "uint256"
				}
			]
		},
		{
			"type": "error",
			"name": "JBRouterTerminal_Unauthorized",
			"inputs": [
				{
					"name": "caller",
					"type": "address",
					"internalType": "address"
				}
			]
		},
		{
			"type": "error",
			"name": "PRBMath_MulDiv_Overflow",
			"inputs": [
				{
					"name": "x",
					"type": "uint256",
					"internalType": "uint256"
				},
				{
					"name": "y",
					"type": "uint256",
					"internalType": "uint256"
				},
				{
					"name": "denominator",
					"type": "uint256",
					"internalType": "uint256"
				}
			]
		},
		{
			"type": "error",
			"name": "SafeERC20FailedOperation",
			"inputs": [
				{
					"name": "token",
					"type": "address",
					"internalType": "address"
				}
			]
		},
		{
			"type": "error",
			"name": "T",
			"inputs": []
		}
	],
	"args": [
		"0x5AfF29060E023e6FB87BE5596652B33c65Af535B",
		"0x1f80d8f057eE36b4C2656D107E4e4558B71bA7D9",
		"0x000000000022D473030F116dDEE9F6B43aC78BA3",
		"0x77bEe1AD2AC0AcE98a9b5B58D75685c8b4d94948",
		"0x3bA60b60933916a7C87D0860DcEE62a0CE34E3e2",
		"0x4dc161eF837fF1C4485b08DDFcDB182F2157bE18"
	],
	"solcInputHash": "929b6edbd51c0fec29288910828541bc",
	"bytecode": "0x6101c0604052346102ed5761890060c0813803918261001d816102f1565b9384928339810103126102ed5780516001600160a01b03811691908281036102ed5760208201516001600160a01b03811681036102ed576040830151906001600160a01b03821682036102ed5761007660608501610316565b9261008f60a061008860808801610316565b9601610316565b60809590955260c0526101005260e05260a05261012052604051906126798083016001600160401b038111848210176102d9576020928492616287843981520301905ff080156102ce576001600160a01b0316610140526101456100f360406102f1565b60078152663832b936b4ba1960c91b6020909101523060601b6001600160601b0319167fc16f881b3dd0a1bf52965fa8de2adc6199cef183000000000000000000000000186001600160e01b03191690565b610160526101a861015660406102f1565b600781526618d85cda13dd5d60ca1b6020909101523060601b6001600160601b0319167f86b14ff4df1839d4c5ed01550f2540ea56ad3e38000000000000000000000000186001600160e01b03191690565b610180526102076101b960406102f1565b600381526270617960e81b6020909101523060601b6001600160601b0319167fadc756803e4eb4ccfb136b73d5f72e3dc0d452d3000000000000000000000000186001600160e01b03191690565b6101a052604051615f5c908161032b8239608051818181610e580152818161105b0152612d0c015260a05181818161100c01526126f2015260c051818181610e1401528181613c3001528181613cad0152818161454f0152614fcd015260e051818181610e9c01528181611fcb0152612b8a0152610100518181816112ab015281816146aa0152614f7201526101205181610f27015261014051818181611c49015261222d01526101605181611d9201526101805181612ec701526101a051816130010152f35b6040513d5f823e3d90fd5b634e487b7160e01b5f52604160045260245ffd5b5f80fd5b6040519190601f01601f191682016001600160401b038111838210176102d957604052565b51906001600160a01b03821682036102ed5756fe608080604052600436101561001c575b50361561001a575f80fd5b005b5f905f3560e01c90816301ffc9a7146114d2575080630aff0c311461146057806317fcb39b146114385780631a65893b1461141d5780631ad12207146112da5780631d831d5c14611296578063253721c8146112445780633a01714f14611121578063515a92931461108f578063572b6c051461103b5780635b3435b414610ff75780635fcb212014610fdb5780636aee6f6914610ecb5780636afdd85014610e875780637da0a87714610e4357806388bc2ef314610dff57806391dd7346146108b15780639e6eec051461070d5780639f4e854214610697578063a95450a21461062f578063b5c104f3146105cf578063bde457af14610543578063c45a01551461051c578063d6161341146104f3578063dc4c90d3146104ca578063e28b54111461049b578063e298cebf14610430578063fa461e3314610366578063fabd491f146103285763fef432570361000f5760e03660031901126103255760043590610186611555565b9061018f61156b565b9160a4356001600160401b038111610323576101af9036906004016115d7565b9060c4356001600160401b03811161031f576101cf9036906004016115d7565b9287865c60ff169560ff19885c16885d85848a6101f0838360443587611d5b565b6001600160a01b03610200612ce1565b61020990612133565b169461021496612a9d565b93819a919296600160a01b6001900388169661023187868a6122da565b956040519c8d988997889763fef4325760e01b89526004890152600160a01b600190031660248801526044870152600160a01b60019003166064860152608435608486015260a4850160e0905260e485019061028c92611ae1565b906003198483030160c48501526102a292611ae1565b03915a94602095f19384156103145783946102db575b506020946102c5916123fe565b151560ff16815c60ff191617905d604051908152f35b9093506020813d60201161030c575b816102f760209383611831565b8101031261030857519260206102b8565b5f80fd5b3d91506102ea565b6040513d85823e3d90fd5b8480fd5b825b80fd5b50346103255760403660031901126103255760206103556103476115ad565b61034f611555565b906129f5565b6001600160801b0360405191168152f35b5034610325576060366003190112610325576004356044356001600160401b0381116103235761039a9036906004016115d7565b835c60081c6001600160a01b0316330361041d57816020918101031261032357356001600160a01b03811690819003610323576103ff916103da826128fb565b90848113156104105761eeee90925b14610402575b33906001600160a01b0316612960565b80f35b61040b8261291d565b6103ef565b5061eeee602435926103e9565b630417e2ed60e11b845233600452602484fd5b50346103255760403660031901126103255761044a6115ad565b90610453611555565b61045d8184613885565b506001600160a01b031692831561047957602084604051908152f35b63022007a560e11b83526001600160a01b039081166004521660245260449150fd5b5034610325576060366003190112610325576020906104b8611555565b506104c1611581565b50604051908152f35b50346103255780600319360112610325576001546040516001600160a01b039091168152602090f35b50346103255780600319360112610325576002546040516001600160a01b039091168152602090f35b5034610325578060031936011261032557546040516001600160a01b039091168152602090f35b50346103255760403660031901126103255761055d6115ad565b90610566611555565b61056e611b8b565b5061057981846128cd565b92835115806105ba575b61047957604080518551151581526020808701516001600160a01b0316908201528186015160e0926105b8919083019061176d565bf35b5060208401516001600160a01b031615610583565b5034610325576080366003190112610325576024356001600160401b03811161062b573660238201121561062b578060040135906001600160401b03821161032357602490369260051b01011161032557602090604051908152f35b5080fd5b5034610325576080366003190112610325576106496115ad565b90610652611555565b90606435906001600160401b0382116103255760206104c1610687868661068d61067f3660048a016115d7565b9490936128fb565b916128fb565b9260443592612fc7565b50346103255760a0366003190112610325576106b1611555565b90606435906001600160401b0382116103255760606106ed846106d736600487016115d7565b906106e0611597565b9260443590600435612575565b604080516001600160a01b03948516815293909216602084015290820152f35b5060c03660031901126103255760043581610726611555565b91606435801515809103610323576084356001600160401b0381116108ad576107539036906004016115d7565b60a4929192356001600160401b0381116108a9576107759036906004016115d7565b9590926107bc60ff835c1698600160ff19855c1617845d888661079c828260443586611d5b565b6001600160a01b036107b46107af612ce1565b612133565b16938b6121b5565b959198909460018060a01b038a16908a6107e28b896107dc8c82886122da565b93612359565b9b909a843b156108a55788968b9661083a61084c938d976040519c8d9b8c9a8b99639e6eec0560e01b8b5260048b015260018060a01b031660248a01526044890152606488015260c0608488015260c4870191611ae1565b8481036003190160a486015291611ae1565b03925af1801561089a57610881575b50508461086b82610870976123fe565b61246b565b151560ff16815c60ff191617815d80f35b8161088b91611831565b61089657865f61085b565b8680fd5b6040513d84823e3d90fd5b8880fd5b8580fd5b8380fd5b5034610308576020366003190112610308576004356001600160401b038111610308576108e29036906004016115d7565b6001546001600160a01b0316919033839003610dec57819081010361014081126103085760a01361030857604051610919816117df565b610922826115c3565b8152610930602083016115c3565b9160208201928352604081013562ffffff8116810361030857604083015260608101358060020b81036103085760608301526080810135906001600160a01b0382168203610308576080830191825261098b60a08201611760565b9160e08201356001600160a01b03811691908290036103085760209061010084013597610a695f88610a9a6109c36101208a01611760565b97604051966109d1886117b0565b8b1515885260c09a909a01358888019081526040880191825299516001600160a01b031615158414610dd6578d610a4960246040518b81019384528b8152610a1a604082611831565b6040519384916386f23c4960e01b8e8401525180918484015e810188838201520301601f198101835282611831565b905b604051633cf3645360e21b81529a8b9889978896600488019061176d565b51151560a48601525160c4850152516001600160a01b031660e4840152610120610104840152610124830190611604565b03925af1918215610d52575f92610da2575b508160801d835f14610d83576001600160801b03610aca8192611b2d565b169216955b808710610d6d57508215610d5d5783516001600160a01b03165b6001600160a01b031680610c87575015610c795747811115610c7357610b0f4782611d1f565b80610c64575b505b600154604051630476982d60e21b81529160209183916004918391906001600160a01b03165af18015610c5957610c2a575b505b15610c195750516001600160a01b03165b6001546001600160a01b0316908390823b1561062b578190606460405180948193630b0d9c0960e01b835260018060a01b0316968760048401523060248401528860448401525af18015610c0e57610bf9575b50610be7925015610beb575b60405190602082015260208152610bd3604082611831565b604051918291602083526020830190611604565b0390f35b610bf48161291d565b610bbb565b610c04848092611831565b6103235782610baf565b6040513d86823e3d90fd5b516001600160a01b03169050610b5c565b610c4b9060203d602011610c52575b610c438183611831565b810190611bb1565b505f610b49565b503d610c39565b6040513d88823e3d90fd5b610c6d90612ae2565b5f610b15565b85610b0f565b610c8281612ae2565b610b17565b6001549091506001600160a01b0316803b15610308575f8091602460405180948193632961046560e21b83528760048401525af18015610d5257610d38575b50600154610ce092916001600160a01b0390911690612960565b600154604051630476982d60e21b815290602090829060049082908a906001600160a01b03165af18015610c5957610d19575b50610b4b565b610d319060203d602011610c5257610c438183611831565b505f610d13565b610ce0929197505f610d4991611831565b5f969091610cc6565b6040513d5f823e3d90fd5b84516001600160a01b0316610ae9565b86631dbd2ab560e01b5f5260045260245260445ffd5b916001600160801b03610d998192600f0b611b2d565b16921695610acf565b9091506020813d602011610dce575b81610dbe60209383611831565b810103126103085751905f610aac565b3d9150610db1565b604051610de38982611831565b84815290610a4b565b6364daf78560e01b5f523360045260245ffd5b34610308575f366003190112610308576040517f00000000000000000000000000000000000000000000000000000000000000006001600160a01b03168152602090f35b34610308575f366003190112610308576040517f00000000000000000000000000000000000000000000000000000000000000006001600160a01b03168152602090f35b34610308575f366003190112610308576040517f00000000000000000000000000000000000000000000000000000000000000006001600160a01b03168152602090f35b34610308576080366003190112610308576004356001600160a01b03811690819003610308576024356001600160a01b03811690819003610308576044356001600160a01b038116919082900361030857610f2461156b565b927f00000000000000000000000000000000000000000000000000000000000000006001600160a01b03163303610fc8576003546001600160a01b038116610fb9576001600160601b0360a01b16176003556001600160601b0360a01b5f5416175f556001600160601b0360a01b600154161760015560018060a01b03166001600160601b0360a01b60025416176002555f80f35b63b057425960e01b5f5260045ffd5b6352cbd13d60e11b5f523360045260245ffd5b34610308575f3660031901126103085760206040516102588152f35b34610308575f366003190112610308576040517f00000000000000000000000000000000000000000000000000000000000000006001600160a01b03168152602090f35b346103085760203660031901126103085760206110566115ad565b6040517f00000000000000000000000000000000000000000000000000000000000000006001600160a01b039081169216919091148152f35b346103085760203660031901126103085760405160206110af8183611831565b5f82529060405190828201838352815180915283604084019201935f5b8281106110d95784840385f35b909192826060826111126001948a5163ffffffff6040809260018060a01b03815116855260ff6020820151166020860152015116910152565b019601910194929190946110cc565b346103085760403660031901126103085761113a611555565b611142611b01565b506012906001600160a01b0381169061eeed1982016111b4575b63ffffffff9060ff60609460405194611174866117b0565b85521660208401521660408201526105b8604051809263ffffffff6040809260018060a01b03815116855260ff6020820151166020860152015116910152565b60405163313ce56760e01b8152602081600481865afa5f91816111f8575b5060609463ffffffff939260ff926111f0575b50945050905061115c565b9050866111e5565b909291506020813d60201161123c575b8161121560209383611831565b810103126103085760609463ffffffff9361123160ff93611b1f565b9394509150946111d2565b3d9150611208565b34610308576040366003190112610308576024356001600160401b0381116103085736602382011215610308578060040135906001600160401b03821161030857602490606036930201011161030857005b34610308575f366003190112610308576040517f00000000000000000000000000000000000000000000000000000000000000006001600160a01b03168152602090f35b346103085760c0366003190112610308576112f36115ad565b6112fb611581565b90611304611597565b60a435916001600160401b038311610308576113255f9336906004016115d7565b929094611330611852565b50604051630aff0c3160e01b81526024803560048301526001600160a01b0392831690820152606480356044830152919092169082015260a06084820152938492839182916113849160a484019190611ae1565b03916001600160a01b03165afa8015610d52575f905f925f905f926113b6575b5090610be79160405194859485611628565b93505050503d805f833e6113ca8183611831565b810161018082820312610308576113e181836118b9565b906101208301519161014084015193610160810151926001600160401b03841161030857610be79361141392016119f9565b90929390916113a4565b34610308575f36600319011261030857602060405160788152f35b34610308575f366003190112610308576003546040516001600160a01b039091168152602090f35b346103085760a036600319011261030857611479611555565b61148161156b565b608435906001600160401b03821161030857610be7926114a86114c09336906004016115d7565b9290916114b3611852565b5060443590600435611bd4565b60405197889750955093509185611628565b34610308576020366003190112610308576004359063ffffffff60e01b821680920361030857602091637343409560e01b8114908115611544575b8115611533575b8115611522575b5015158152f35b6301ffc9a760e01b1490508361151b565b6305f7c99160e41b81149150611514565b6306afdd8560e41b8114915061150d565b602435906001600160a01b038216820361030857565b606435906001600160a01b038216820361030857565b604435906001600160a01b038216820361030857565b608435906001600160a01b038216820361030857565b600435906001600160a01b038216820361030857565b35906001600160a01b038216820361030857565b9181601f84011215610308578235916001600160401b038311610308576020838186019501011161030857565b805180835260209291819084018484015e5f828201840152601f01601f1916010190565b92909161010061018085019365ffffffffffff815116865265ffffffffffff602082015116602087015265ffffffffffff604082015116604087015265ffffffffffff606082015116606087015263ffffffff60808201511660808701526001600160701b0360a08201511660a087015263ffffffff60c08201511660c087015260018060a01b0360e08201511660e0870152015161010085015261012084015261014083015261018061016083015282518091526101a082019160206101a08360051b8301019401925f915b83831061170457505050505090565b909192939460208061175160019361019f19868203018752608060608b51878060a01b03815116845285810151151586850152604081015160408501520151918160608201520190611604565b970193019301919392906116f5565b3590811515820361030857565b80516001600160a01b03908116835260208083015182169084015260408083015162ffffff169084015260608083015160020b9084015260809182015116910152565b606081019081106001600160401b038211176117cb57604052565b634e487b7160e01b5f52604160045260245ffd5b60a081019081106001600160401b038211176117cb57604052565b61012081019081106001600160401b038211176117cb57604052565b608081019081106001600160401b038211176117cb57604052565b90601f801991011681019081106001600160401b038211176117cb57604052565b6040519061185f826117fa565b5f610100838281528260208201528260408201528260608201528260808201528260a08201528260c08201528260e08201520152565b519065ffffffffffff8216820361030857565b519063ffffffff8216820361030857565b919082610120910312610308576040516118d2816117fa565b80926118dd81611895565b82526118eb60208201611895565b60208301526118fc60408201611895565b604083015261190d60608201611895565b606083015261191e608082016118a8565b608083015260a08101516001600160701b03811681036103085760a083015261194960c082016118a8565b60c083015260e08101516001600160a01b03811681036103085760e083015261010090810151910152565b6001600160401b0381116117cb5760051b60200190565b5190811515820361030857565b6001600160401b0381116117cb57601f01601f191660200190565b81601f82011215610308578051906119ca82611998565b926119d86040519485611831565b8284526020838301011161030857815f9260208093018386015e8301015290565b9080601f8301121561030857815191611a1183611974565b92611a1f6040519485611831565b80845260208085019160051b830101918383116103085760208101915b838310611a4b57505050505090565b82516001600160401b038111610308578201906080828703601f1901126103085760405190611a7982611816565b60208301516001600160a01b0381168103610308578252611a9c6040840161198b565b6020830152606083015160408301526080830151916001600160401b03831161030857611ad1886020809695819601016119b3565b6060820152815201920191611a3c565b908060209392818452848401375f828201840152601f01601f1916010190565b60405190611b0e826117b0565b5f6040838281528260208201520152565b519060ff8216820361030857565b600f0b6f7fffffffffffffffffffffffffffffff198114611b4d575f0390565b634e487b7160e01b5f52601160045260245ffd5b60405190611b6e826117df565b5f6080838281528260208201528260408201528260608201520152565b60405190611b98826117b0565b815f81525f60208201526040611bac611b61565b910152565b90816020910312610308575190565b51906001600160a01b038216820361030857565b9293611c459196955f95611be6611852565b5060018060a01b036003541694604051998a9788976317647ca960e01b89523060048a01526024890152604488015260018060a01b03166064870152608486015260018060a01b031660a485015260e060c485015260e4840191611ae1565b03817f00000000000000000000000000000000000000000000000000000000000000006001600160a01b03165afa908115610d52575f5f935f935f935f935f935f93611c96575b5096959493929190565b9750509450505050503d805f843e611cae8184611831565b8201916101e08184031261030857611cc581611bc0565b92611cd260208301611bc0565b93604083015194611ce683606086016118b9565b94610180850151946101a0810151946101c08201516001600160401b03811161030857611d1392016119f9565b9196959493925f611c8c565b91908203918211611b4d57565b3d15611d56573d90611d3d82611998565b91611d4b6040519384611831565b82523d5f602084013e565b606090565b90925f91611d67612ce1565b936001600160a01b0382169261eeee8414612128573461211557611db691611d9091369161253f565b7f0000000000000000000000000000000000000000000000000000000000000000613d8e565b90611eaa575b506040516370a0823160e01b815230600482015293602085602481865afa948515610c0e578495611e6f575b5060249560209392611dfb923090612b22565b6040516370a0823160e01b815230600482015294859182905afa908115611e635790611e2f575b611e2c9250611d1f565b90565b506020823d602011611e5b575b81611e4960209383611831565b8101031261030857611e2c9151611e22565b3d9150611e3c565b604051903d90823e3d90fd5b9094506020929192813d602011611ea2575b81611e8e60209383611831565b810103126103085751939091906024611de8565b3d9150611e81565b8051810190602081830312610308576020810151906001600160401b038211610308570160a08183031261030857604051611ee4816117df565b60208201518152611ef760408301611bc0565b9160208201928352611f0b60608201611895565b9360408301948552611f1f60808301611895565b916060840192835260a0810151916001600160401b03831161030857611f4c9260208092019201016119b3565b6080830190815283519093906001600160a01b0316808b116120ff575051935190516040519465ffffffffffff91821692909116906001600160a01b0316611f9386611816565b878652602086015260408501526060840152519060405192611fb4846117b0565b8352306020840190815260408401928352905190917f00000000000000000000000000000000000000000000000000000000000000006001600160a01b0316803b1561030857604080516302b67b5760e41b81526001600160a01b038b81166004830181905297518051821660248401526020810151821660448401529283015165ffffffffffff9081166064840152606090930151909216608482015294511660a4850152905160c484015261010060e48401525f9183919082908490829061208390610104830190611604565b03925af190816120ea575b506120e457827f7e09272f9c04cd2a99107aa546ff6e4b501a0b2dd163864b2e255c5cc9f76fe86120d46120c0611d2c565b604051918291604083526040830190611604565b8560208301520390a35b5f611dbc565b506120de565b6120f79195505f90611831565b5f935f61208e565b8a633b4359c560e11b5f5260045260245260445ffd5b63485959f160e11b5f523460045260245ffd5b505050505050503490565b333b61213c5790565b60405163296eee5160e01b8152602081600481335afa5f9181612179575b50612164575b5090565b6001600160a01b03811615612160575b905090565b9091506020813d6020116121ad575b8161219560209383611831565b81010312610308576121a690611bc0565b905f61215a565b3d9150612188565b94848482989596946121c79489612d3a565b96909290916001600160a01b0381166122cf575060035460408051636399a0f960e11b81523060048201526001600160a01b0392831660248201526044810198909852908416606488015260a06084880152868061222960a48201858a611ae1565b03817f00000000000000000000000000000000000000000000000000000000000000006001600160a01b03165afa948515610d52575f955f90612280575b611e2c95969750978761227a8287612d98565b9561420d565b509394506040863d6040116122c7575b8161229d60409383611831565b8101031261030857611e2c936122be60206122b789611bc0565b9801611bc0565b87969550612267565b3d9150612290565b969295509193505050565b6001600160a01b03909116919061eeee8314612353576122fb828285614430565b15612308575b5050505f90565b612312818461447d565b15612340579061232291836144e1565b1561232e578080612301565b635274afe760e01b5f5260045260245ffd5b82635274afe760e01b5f5260045260245ffd5b50905090565b6001600160a01b039091169161eeee83146123f5576123789082612e2e565b6123ec576040516370a0823160e01b81526001600160a01b03909116600482015290602090829060249082905afa908115610d52575f916123ba575b50905f90565b90506020813d6020116123e4575b816123d560209383611831565b8101031261030857515f6123b4565b3d91506123c8565b50505f90600190565b5050505f905f90565b6001600160a01b039091169061eeed198201612419575b5050565b6001600160a01b031661242d5f8284614430565b15612436575050565b612440818361447d565b15612458575f61245091836144e1565b1561232e5750565b50635274afe760e01b5f5260045260245ffd5b92936001600160a01b03909116929061eeee841461253857612532576040516370a0823160e01b81526001600160a01b03919091166004820181905293602082602481875afa8015610d52575f906124fe575b6124c89250611d1f565b918183106124d65750505050565b608494506040519363c237fe3360e01b85526004850152602484015260448301526064820152fd5b506020823d60201161252a575b8161251860209383611831565b81010312610308576124c891516124be565b3d915061250b565b50505050565b5050505050565b92919261254b82611998565b916125596040519384611831565b829481845281830111610308578281602093845f960137010152565b929093959491946125868783612eb3565b935f935b601485106125a657633abd1e7760e21b5f52601460045260245ffd5b6125b1818884612f0d565b906001600160a01b0381166128bf5750506125cb87612fa3565b9687156128b0575084612897575f6125e4368b8761253f565b975b6125f183858361473d565b909a8b926126406040519c8d95869485946312a9c76f60e21b86523060048701526024860152604485015260018060a01b0316606484015230608484015260c060a484015260c4830190611604565b03916001600160a01b03165afa968715610d52575f905f98612764575b50985f5b885181101561272557612674818a614729565b516020810151158015906126ed575b6126e3576060015161010081805181010312610308576126c56101006020830151926126b160808201614b61565b506126be60a082016129e1565b500161198b565b508b81116126da575b50600101945b94612661565b9a5060016126ce565b50600101946126d4565b5080517f00000000000000000000000000000000000000000000000000000000000000006001600160a01b0390811691161415612683565b50929796509290949793978481811061274f57505060015f9698019795949092979396919761258a565b631dbd2ab560e01b5f5260045260245260445ffd5b9750503d805f893e6127768189611831565b870196610180818903126103085761278e88826118b9565b5061012081015190610160810151906001600160401b03821161030857019780601f8a011215610308578851986127c48a611974565b996127d26040519b8c611831565b808b526020808c019160051b830101918383116103085760208101915b8383106128015750505050505f61265d565b82516001600160401b038111610308578201906080828703601f190112610308576040519061282f82611816565b60208301516001600160a01b03811681036103085782526128526040840161198b565b6020830152606083015160408301526080830151916001600160401b03831161030857612887886020809695819601016119b3565b60608201528152019201916127ef565b5f60206128a76040519182611831565b818152976125e6565b9850505093505050505f929190565b995097965091945050505050565b90611e2c916128da611b8b565b916128e58183613885565b6001600160a01b039091166020850152916139df565b6001600160a01b03811661eeee03611e2c57506003546001600160a01b031690565b6003546001600160a01b0316803b15610308575f90600460405180948193630d0e30db60e41b83525af18015610d52576129545750565b5f61295e91611831565b565b916040519163a9059cbb60e01b5f5260018060a01b031660045260245260205f60448180865af19060015f51148216156129c0575b604052156129a05750565b635274afe760e01b5f9081526001600160a01b0391909116600452602490fd5b9060018115166129d857823b15153d15161690612995565b503d5f823e3d90fd5b51906001600160801b038216820361030857565b5f9291612a01916128cd565b8051612a7d57602001516001600160a01b031680612a1c5750565b604051630d34328160e11b8152919250602090829060049082905afa908115610d52575f91612a49575090565b90506020813d602011612a75575b81612a6460209383611831565b8101031261030857611e2c906129e1565b3d9150612a57565b6040015160a09020600154919250611e2c916001600160a01b0316614e33565b919594939295612aac83613c03565b5115612ad757612ac38585612ad099848688611bd4565b5050505050929093613d04565b9192909190565b91612ad096506121b5565b6003546001600160a01b031690813b15610308575f91602483926040519485938492632e1a7d4d60e01b845260048401525af18015610d52576129545750565b6001600160a01b031691308314612cae57604051636eb1769f60e11b8152600481018490523060248201526001600160a01b03919091169290602081604481875afa8015610d525785915f91612c79575b501015612c18576001600160a01b038411612c05577f00000000000000000000000000000000000000000000000000000000000000006001600160a01b031690813b15610308575f60849281956040519788968795631b63c28b60e11b8752600487015260018060a01b0316602486015260018060a01b0316604485015260648401525af18015610d52576129545750565b83639c604ed360e01b5f5260045260245ffd5b919290604051926323b872dd60e01b5f5260045260018060a01b031660245260445260205f60648180865af19060015f5114821615612c61575b6040525f6060521561232e5750565b9060018115166129d857823b15153d15161690612c52565b9150506020813d602011612ca6575b81612c9560209383611831565b81010312610308578490515f612b73565b3d9150612c88565b909291506001600160a01b031661eeee8114612cd75761295e926001600160a01b031690612960565b5061295e91613f4d565b601436101580612d08575b15612d04576013193601368111610308573560601c90565b3390565b50337f00000000000000000000000000000000000000000000000000000000000000006001600160a01b031614612cec565b95949392919095612d4a87612fa3565b15612d5e5790612ad095965f949392613fb3565b5093925050505f929190565b9695949392919096612d7b88612fa3565b15612d8b5796612ad09697613fb3565b509493505050505f929190565b9190602460206001600160a01b03612daf866128fb565b16604051928380926370a0823160e01b82523060048301525afa908115610d52575f91612dfc575b509283906001600160a01b031661eeed1901612df1575050565b611e2c929350611d1f565b90506020813d602011612e26575b81612e1760209383611831565b8101031261030857515f612dd7565b3d9150612e0a565b5f919082916040516020810191634fe0eced60e01b8352602482015260248152612e59604482611831565b51916001600160a01b03165afa612e6e611d2c565b90158015612ea8575b612ea357602081805181010312610308576001600160a01b0390612e9d90602001611bc0565b16151590565b505f90565b506020815110612e77565b5f9291612eeb91612ec591369161253f565b7f0000000000000000000000000000000000000000000000000000000000000000613d8e565b90612ef35750565b805191925060208082019282019190910312610308575190565b5f93849390929091906001600160a01b0383168015612f94576001600160a01b03821614908115612f65575b50612f42575050565b81945090612f4f9161451c565b926001600160a01b038416612f615750565b9150565b612f6f91506128fb565b6001600160a01b03612f80846128fb565b6001600160a01b039092169116145f612f39565b509450612f4f9150849061451c565b5f919061eeed196001600160a01b03821601612fbc5750565b611e2c919250614680565b9492919390935f95612fd7611b8b565b50612fe283836128cd565b9586511580613870575b61384a5761302591612fff91369161253f565b7f0000000000000000000000000000000000000000000000000000000000000000613d8e565b906137e1575b50851561303757505050565b845192955092939290911561337257604083015160a0812060808201515f929083906001600160a01b03168061319b575b5015948561316a575b6001546130889084906001600160a01b0316614e33565b926001600160801b0384161561315457506003546001600160a01b0390811695908116860361314e57505f945b6001600160a01b0382160361314857505f945b1561312b5750506001600160801b038611613118576001600160801b036130f29495961690615291565b6105dc8102908082046105dc1481151715611b4d57612710613115920490611d1f565b91565b85639c604ed360e01b5f5260045260245ffd5b90606462ffffff604061311598999a979596940151160494615232565b946130c8565b946130b5565b631134c06160e31b5f525f60045260245260445ffd5b925060ff5f5c166131885761317e82614d95565b5050905092613071565b50637fa61ec960e11b5f5260045260245ffd5b6078906001604051631873947560e01b81526131ba600482018761176d565b60208160a481865afa5f9181613336575b50613309575b506131dd575b50613068565b5f61324b91604051906131f1606083611831565b60028252604036602084013763ffffffff61320b8361470c565b95168095528261321a83614719565b526040518080958194637cb7cbf960e11b835261323a600484018c61176d565b60c060a484015260c4830190614c83565b03915afa5f91816132e4575b50156131d75760028151106131d75790945061328e915061328461327a82614719565b5160060b9161470c565b5160060b90614cbc565b9260030b9261329d8482614ce1565b60020b935f8260060b1291826132ce575b50506132be575b60015f806131d7565b916132c890614d19565b916132b5565b6132d89250614d07565b60060b15155f806132ae565b6133019192503d805f833e6132f98183611831565b810190614b87565b50905f613257565b63ffffffff811680613320575050505f5b5f6131d1565b60781161332e575b5061331a565b92505f613328565b9091506020813d60201161336a575b8161335260209383611831565b8101031261030857613363906118a8565b905f6131cb565b3d9150613345565b60208381015160405163ddca3f4360e01b815296936001600160a01b0390911692909187600481865afa968715610d52575f976137a1575b50604051633850c7bd60e01b815260e081600481875afa8015610d52575f915f9161371c575b5061ffff169081156136f25761ffff60019116019061ffff8211611b4d5761ffff90816040519363252c09d760e01b85521606166004820152608081602481875afa908115610d52575f905f926136cd575b509015613663575b63ffffffff90814216031680156136505761025890818110613648575b506078811061362d5763ffffffff16928315613603576134b4935f604051613470606082611831565b600281526040366020830137826134868261470c565b528161349182614719565b526040518097819263883bdbfd60e01b8352602060048401526024830190614c83565b0381855afa948515610d52575f905f966135e4575b508061328461327a6134da93614719565b946001600160a01b036134ec82614719565b5116906001600160a01b03906135019061470c565b511690036001600160a01b038111611b4d578160060b956135228782614ce1565b60020b965f8260060b1291826135ce575b50506135be575b6001600160a01b038281026001600160c01b03169283049003611b4d5760201b640100000000600160c01b031680156135aa576001600160801b039104169081156135945750606462ffffff613115979899160494615232565b631134c06160e31b5f526004525f60245260445ffd5b634e487b7160e01b5f52601260045260245ffd5b946135c890614d19565b9461353a565b6135d89250614d07565b60060b15155f80613533565b6134da96506135fd91503d805f833e6132f98183611831565b956134c9565b60405162461bcd60e51b8152602060048201526002602482015261042560f41b6044820152606490fd5b83634862ac8760e11b5f52600452602452607860445260645ffd5b90505f613447565b836376283f0d60e11b5f5260045260245ffd5b5060405163252c09d760e01b81525f6004820152608081602481875afa8015610d525763ffffffff915f9161369b575b50905061342a565b6136bd915060803d6080116136c6575b6136b58183611831565b8101906151f7565b5050505f613693565b503d6136ab565b90506136e8915060803d6080116136c6576136b58183611831565b929150505f613422565b60405162461bcd60e51b81526020600482015260026024820152614e4960f01b6044820152606490fd5b91505060e0813d60e011613799575b8161373860e09383611831565b810103126103085761374981611bc0565b5061375660208201614b61565b5061ffff613766604083016151e8565b61379160c0613777606086016151e8565b94613784608082016151e8565b506126be60a08201611b1f565b5091906133d0565b3d915061372b565b9096506020813d6020116137d9575b816137bd60209383611831565b81010312610308575162ffffff8116810361030857955f6133aa565b3d91506137b0565b9095506040818051810103126103085760208101516001600160a01b0381169190829003610308576040015190613817816128fb565b6001600160a01b03848116929116829003613835575050945f61302b565b63c35b922760e01b5f5260045260245260445ffd5b505063022007a560e11b5f9081526001600160a01b039182166004529116602452604490fd5b5060208701516001600160a01b031615612fec565b5f8054909384939092916001600160a01b031690845b600481106138a95750505050565b6138b281614d2d565b604051630b4c774160e11b81526001600160a01b0386811660048301528416602482015262ffffff919091166044820152602081606481875afa908115610d52575f916139a6575b506001600160a01b0316801561399c57604051630d34328160e11b8152602081600481855afa908115610d52575f91613963575b506001600160801b0388166001600160801b03821611613956575b5050600101925b9261389b565b909750955060015f613949565b90506020813d8211613994575b8161397d60209383611831565b810103126103085761398e906129e1565b5f61392e565b3d9150613970565b5060010192613950565b90506020813d82116139d7575b816139c060209383611831565b81010312610308576139d190611bc0565b5f6138fa565b3d91506139b3565b93929190936139ec611b8b565b50829460018060a01b0360015416938415613b7a57506003546001600160a01b03908116929081168303613b7457505f915b6001600160a01b03821603613b6e57505f905b6001600160a01b038281169082161015613b685790915b5f5b60048110613a59575050505050565b5f5b60028110613a6c5750600101613a4a565b80158015613b56575f905b1580613b45575b613b3c57613a8a611b61565b50613a9483614d5b565b604051929162ffffff90613aa7856117df565b6001600160a01b0389811686528a811660208701529116604085015260029190910b606084015216608082015260a08120613ae181614d95565b5050506001600160a01b031615613b1657613afc9088614e33565b6001600160801b0385166001600160801b03821611613b20575b5050600101613a5b565b60019291945093828a525f60208b015260408a0152905f613b16565b50600101613a5b565b506001600160a01b03811615613a7e565b6002546001600160a01b031690613a77565b91613a48565b90613a31565b91613a1e565b955050505050565b602081830312610308578051906001600160401b03821161030857019080601f83011215610308578151613bb581611974565b92613bc36040519485611831565b81845260208085019260051b82010192831161030857602001905b828210613beb5750505090565b60208091613bf884611bc0565b815201910190613bde565b5f8091604051602081019163d175415360e01b8352602482015260248152613c2c604482611831565b51907f00000000000000000000000000000000000000000000000000000000000000006001600160a01b03165afa613c62611d2c565b90158015613c88575b613c825780602080611e2c93518301019101613b82565b50606090565b50805115613c6b565b60405163d175415360e01b815260048101919091525f816024817f00000000000000000000000000000000000000000000000000000000000000006001600160a01b03165afa908115610d52575f91613ce8575090565b611e2c91503d805f833e613cfc8183611831565b810190613b82565b9683878783969b98979995613d1b95849b9c612d6a565b9094916001600160a01b038116613d3e5750611e2c9596979861227a8287612d98565b989750955050505050565b91908201809211611b4d57565b908151811015613d67570160200190565b634e487b7160e01b5f52603260045260245ffd5b81810292918115918404141715611b4d57565b90915f916060602585511115613f3257845160241015613d675760448501518060f81c9160205b60048101808211611b4d576001600160f81b0319613dd3828b613d56565b5116151580613f13575b15613f0957613dec9089613d56565b516020828a01015160f882901c91906001600160e01b0319888116911614613e18575050600501613db5565b9550959650929050600983018093119182611b4d57611fe0809160f31c16169080820460201490151715611b4d578210801590613eea575b15613eb3575050611fe0808551925b60f31c16169180830460201490151715611b4d578190039060405193601f19603f8487010116604052828552015f5b828110613e9e5750505060019190565b80602080928401015182828801015201613e8e565b611b4d57613ec19085613d56565b51611fe0808260f81c9260f31c16169080820460201490151715611b4d57611fe0809192613e5f565b505f90506001600160f81b0319613f018388613d56565b511615613e50565b5050949550505050565b5060f384901c611fe01685156020878304141715611b4d578210613ddd565b50509150505f90604051613f47602082611831565b5f815290565b814710613f9c575f808093819382604051613f69602082611831565b526001600160a01b03165af115613f7c57565b3d15613f8d576040513d5f823e3d90fd5b63d6bda27560e01b5f5260045ffd5b504763cf47918160e01b5f5260045260245260445ffd5b9496909192959395613fc58782612eb3565b925f945b60148610613fe557633abd1e7760e21b5f52601460045260245ffd5b613ff08a838a612f0d565b906001600160a01b0381166141d457505061400a82612fa3565b80156141c357602094939291818b6140248e8d8c9661473d565b9080999161403185614f4f565b8561403c30846150c9565b94614047308b6150c9565b986141aa576140595f9136908d61253f565b965b6140ac604051988996879586946313da831760e01b86523060048701526024860152604485015260018060a01b031660648401528360848401523060a484015260e060c484015260e4830190611604565b03926001600160a01b03165af18015610d5257614178575b6140d891506140d330896150c9565b611d1f565b9681151580614170575b6141455780881061412f5750906140d36141059261410030866150c9565b613d49565b8061411d575b505060015f9395019490919293613fc9565b614128918830612b22565b5f8061410b565b87631dbd2ab560e01b5f5260045260245260445ffd5b506361ed586d60e11b5f9081526001600160a01b038085166004528716602452604491909152606490fd5b5087156140e2565b6020823d82116141a2575b8161419060209383611831565b81010312610308576140d891506140c4565b3d9150614183565b505f846141ba6040519182611831565b8181529661405b565b50975097505093505050505f929190565b97509995509750925050935060018060a01b0382166141f5575b5050929190565b614203939491929550614ec7565b9190925f806141ee565b9195909493919290916001600160a01b03808716919085169081831461442557614236866128fb565b6001600160a01b036142478a6128fb565b6001600160a01b0390921691161461440157614262866128fb565b935f9961eeee8414998a6143dd575b9361eeee93602096936142a8938d61428c60249c9b996128fb565b604051958b8701528a86526142a2604087611831565b89615362565b9989806143d4575b6143bc575b50146143ae575b6040516370a0823160e01b815230600482015293849182906001600160a01b03165afa918215610d52575f9261437a575b508082116142fe575b505050505090565b61430791611d1f565b921561436a575061431782612ae2565b6001600160a01b0316905f80808084865af1614331611d2c565b5015614345575b50505b5f808080806142f6565b614363916143528261291d565b6003546001600160a01b0316612960565b5f80614338565b614375929130612b22565b61433b565b9091506020813d6020116143a6575b8161439660209383611831565b810103126103085751905f6142ed565b3d9150614389565b6143b788612ae2565b6142bc565b6143c96143ce9147611d1f565b61291d565b5f6142b5565b508047116142b0565b9094919695938a939b508547906143f391611d1f565b9b9350939596919490614271565b5061eeee1415955061441c94505050505057611e2c8161291d565b611e2c81612ae2565b505050505050505090565b92916040519163095ea7b360e01b5f5260018060a01b031660045260245260205f60448180875af19260015f511484161561446c575b50604052565b3d15903b151516909216915f614466565b60405163095ea7b360e01b5f9081526001600160a01b03909316600452602483905290929160209060448180875af19260015f51148416156144bf5750604052565b600184929415166144d8573b15153d151616915f614466565b833d5f823e3d90fd5b92916040519163095ea7b360e01b5f5260018060a01b031660045260245260205f60448180875af19260015f51148416156144bf5750604052565b604051630862026560e41b8152600481018290526001600160a01b039283166024820152909291602090829060449082907f0000000000000000000000000000000000000000000000000000000000000000165afa5f9181614644575b5061458457505f9150565b916001600160a01b038316158015614633575b61462d575f80916040516020810191634fe0eced60e01b83526024820152602481526145c4604482611831565b51906001600160a01b0386165afa6145da611d2c565b8161461f575b816145f2575b506145ed57565b5f9150565b9050602081805181010312610308576001600160a01b039061461690602001611bc0565b1630145f6145e6565b9050602081511015906145e0565b505f9150565b5061463f83823061512d565b614597565b9091506020813d602011614678575b8161466060209383611831565b810103126103085761467190611bc0565b905f614579565b3d9150614653565b604051630f85421b60e01b81526001600160a01b03918216600482015290602090829060249082907f0000000000000000000000000000000000000000000000000000000000000000165afa908115610d52575f916146dd575090565b90506020813d602011614704575b816146f860209383611831565b81010312610308575190565b3d91506146eb565b805115613d675760200190565b805160011015613d675760400190565b8051821015613d675760209160051b010190565b9192909260405160c081018181106001600160401b038211176117cb576040525f81525f60208201525f60408201525f60608201525f60808201525f60a082015261478784613c91565b925f5b8451811015614ac8576001600160a01b036147a58287614729565b51163b15614a8457602460206001600160a01b036147c38489614729565b516040516301ffc9a760e01b815263597d9eab60e01b600482015293849290918391165afa5f9181614a8d575b506148015750600101945b9461478a565b15614a84576001600160a01b036148188287614729565b511660245f6001600160a01b0361482f858a614729565b51166040519283809263515a929360e01b82528c60048301525afa5f91816149af575b50614862575050600101946147fb565b91969095905f5b835181101561499f576001600160a01b036148848286614729565b5151166001600160a01b0388168015159081614995575b5061496e575b90816148af6001938d61451c565b5f9061eeee830361495b575b848060a01b0316151580614948575b614937575b838060a01b0360208a0151161580614930575b614922575b838060a01b0360608a015116159081614919575b50614908575b5001614869565b60408801528860608801525f614901565b9050155f6148fb565b8189528a60208a01526148e7565b50806148e2565b8160808a01528a60a08a01526148cf565b50838060a01b0360a08a015116156148ca565b905061496682614680565b1515906148bb565b6001600160a01b03614980828d61451c565b16156148a15797995050505050935050509190565b905081145f61489b565b50969095506001915001946147fb565b9091503d805f833e6149c18183611831565b810190602081830312610308578051906001600160401b038211610308570181601f82011215610308578051906149f782611974565b92614a056040519485611831565b8284526020606081860194028301019181831161030857602001925b828410614a335750505050905f614852565b606084830312610308576020606091604051614a4e816117b0565b614a5787611bc0565b8152614a64838801611b1f565b83820152614a74604088016118a8565b6040820152815201930192614a21565b600101946147fb565b9091506020813d8211614ac0575b81614aa860209383611831565b8101031261030857614ab99061198b565b905f6147f0565b3d9150614a9b565b5060a082015191935091506001600160a01b031680614b4a575060608201516001600160a01b031680614b33575060208201516001600160a01b03169182614b225750505063867d310160e01b5f5260045260245260445ffd5b516001600160a01b03169350909150565b604092909201516001600160a01b03169350909150565b608092909201516001600160a01b03169350909150565b51908160020b820361030857565b81156135aa570490565b51908160060b820361030857565b91906040838203126103085782516001600160401b03811161030857830181601f8201121561030857805190614bbc82611974565b91614bca6040519384611831565b80835260208084019160051b8301019184831161030857602001905b828210614c6b57505050926020810151906001600160401b03821161030857019080601f83011215610308578151614c1d81611974565b92614c2b6040519485611831565b81845260208085019260051b82010192831161030857602001905b828210614c535750505090565b60208091614c6084611bc0565b815201910190614c46565b60208091614c7884614b79565b815201910190614be6565b90602080835192838152019201905f5b818110614ca05750505090565b825163ffffffff16845260209384019390920191600101614c93565b600691820b910b0390667fffffffffffff198212667fffffffffffff831317611b4d57565b60060b9060060b9081156135aa57667fffffffffffff1981145f19831416611b4d570590565b9060060b9081156135aa5760060b0790565b60020b627fffff198114611b4d575f190190565b8015614d545760018114614d4d57600214614d4757606490565b61271090565b506101f490565b50610bb890565b8015614d8b5760018114614d8157600214614d7857606490600190565b6127109060c890565b506101f490600a90565b50610bb890603c90565b6001546001600160a01b03169190602090614daf9061533c565b602460405180958193631e2eaeaf60e01b835260048301525afa918215610d52575f92614dff575b506001600160a01b0382169160a081901c60020b9162ffffff60b883901c81169260d01c1690565b9091506020813d602011614e2b575b81614e1b60209383611831565b810103126103085751905f614dd7565b3d9150614e0e565b90614e3d9061533c565b60038101809111611b4d57604051631e2eaeaf60e01b8152600481019190915290602090829060249082906001600160a01b03165afa8015610d52575f90614e8e575b6001600160801b0391501690565b506020813d602011614ebf575b81614ea860209383611831565b81010312610308576001600160801b039051614e80565b3d9150614e9b565b9092916001600160a01b03808216908316808214614f485761eeee811480614f34575b614f27576003546001600160a01b0316149081614f1b575b50614f0c57509190565b9050614f1783612ae2565b9190565b61eeee9150145f614f02565b50509050614f178361291d565b506003546001600160a01b03168214614eea565b5050509190565b60405163c6c116bd60e01b815230600482015260248101829052906020826044817f00000000000000000000000000000000000000000000000000000000000000006001600160a01b03165afa918215610d52575f92615095575b50811561241557604051632eec7b5560e11b8152600481018290526020816024817f00000000000000000000000000000000000000000000000000000000000000006001600160a01b03165afa908115610d52575f91615053575b506001600160a01b031691823b156103085760845f9283604051958694859363181faefd60e11b8552306004860152602485015260448401523060648401525af18015610d52576129545750565b90506020813d60201161508d575b8161506e60209383611831565b8101031261030857516001600160a01b0381168103610308575f615005565b3d9150615061565b9091506020813d6020116150c1575b816150b160209383611831565b810103126103085751905f614faa565b3d91506150a4565b6001600160a01b03811661eeee036150e057503190565b6020906001600160a01b03906150f5906128fb565b6040516370a0823160e01b81526001600160a01b03909416600485015283916024918391165afa908115610d52575f916146dd575090565b905f925b600584106151425750505050600190565b6001600160a01b0390811690831681146151df575f80916040516020810190634fe0eced60e01b825285602482015260248152615180604482611831565b51915afa61518c611d2c565b901580156151d4575b6151cc576020818051810103126103085760206151b29101611bc0565b6001600160a01b038116156151cc57600190930192615131565b505050505f90565b506020815110615195565b50505050600190565b519061ffff8216820361030857565b91908260809103126103085761520c826118a8565b9161521960208201614b79565b91611e2c606061522b60408501611bc0565b930161198b565b9594848385615241948a61562d565b92612710841015615288576001600160801b03861161311857612710926152819261527a926001600160801b03611e2c98991690615291565b9283613d7b565b0490611d1f565b505f9450505050565b909291906001600160a01b03906152a790615690565b166001600160801b0381116152f957806152c091613d7b565b916001600160a01b03908116911610156152e7576001600160801b03611e2c921690615ba7565b6001600160801b03611e2c9216615b27565b8061530391615a00565b916001600160a01b039081169116101561532a576001600160801b03611e2c921690615ada565b6001600160801b03611e2c9216615a4d565b60405160208101918252600660408201526040815261535c606082611831565b51902090565b94908386615374938396999597612fc7565b80519193909291156154d6575050604001516003545f95869561544b95919491926001600160a01b038083169116036154d15750855b83516001600160a01b03918216911614938685146154b3576153d16401000276a491615bf4565b60018060a01b0360015416956153ee60405196602088019061176d565b60c086015260e08501526001600160a01b0316610100840152610120830152151561014080830191909152815261542761016082611831565b6040519485809481936348c8949160e01b8352602060048401526024830190611604565b03925af1908115610d52575f91615476575b5060208151918180820193849201010312610308575190565b90503d805f833e6154878183611831565b81016020828203126103085781516001600160401b038111610308576154ad92016119b3565b5f61545d565b6153d173fffd8963efd1fc6a506488495d951d5263988d2591615bf4565b6153aa565b602090920151929561556e956001600160a01b0393841693169290921093506040929091610100600160a81b03195f805c91909116600884901b610100600160a81b031617905d8415615611575f6401000276a4915b855197889586948593630251596160e31b85523060048601528a6024860152604485015260018060a01b0316606484015260a0608484015260a4830190611604565b03926001600160a01b03165af1908115610d52575f905f926155d4575b6155ab93505f805c610100600160a81b031916905d156155cd5750615bf4565b908082106155b7575090565b90631dbd2ab560e01b5f5260045260245260445ffd5b9050615bf4565b9150506040823d604011615609575b816155f060409383611831565b81010312610308578160206155ab93519101519161558b565b3d91506155e3565b5f73fffd8963efd1fc6a506488495d951d5263988d259161552c565b6001600160a01b038085169695949193615653929091821688111561568c575093615690565b906001600160a01b0382161561568057611e2c9561567b946001600160a01b03161492615c04565b615c64565b50505050505061271090565b9050935b60020b5f8112156159fa57805f03905b620d89e882116159eb5760018216156159d9576001600160881b036ffffcb933bd6fad37aa2d162d1a5940015b1691600281166159bd575b600481166159a1575b60088116615985575b60108116615969575b6020811661594d575b60408116615931575b60808116615915575b61010081166158f9575b61020081166158dd575b61040081166158c1575b61080081166158a5575b6110008116615889575b612000811661586d575b6140008116615851575b6180008116615835575b620100008116615819575b6202000081166157fe575b6204000081166157e3575b62080000166157ca575b5f126157bc575b63ffffffff81166157b4575f905b60201c60ff91909116016001600160a01b031690565b60019061579e565b80156135aa575f1904615790565b6b048a170391f7dc42444e8fa290910260801c90615789565b6d2216e584f5fa1ea926041bedfe9890920260801c9161577f565b916e5d6af8dedb81196699c329225ee6040260801c91615774565b916f09aa508b5b7a84e1c677de54f3e99bc90260801c91615769565b916f31be135f97d08fd981231505542fcfa60260801c9161575e565b916f70d869a156d2a1b890bb3df62baf32f70260801c91615754565b916fa9f746462d870fdf8a65dc1f90e061e50260801c9161574a565b916fd097f3bdfd2022b8845ad8f792aa58250260801c91615740565b916fe7159475a2c29b7443b29c7fa6e889d90260801c91615736565b916ff3392b0822b70005940c7a398e4b70f30260801c9161572c565b916ff987a7253ac413176f2b074cf7815e540260801c91615722565b916ffcbe86c7900a88aedcffc83b479aa3a40260801c91615718565b916ffe5dee046a99a2a811c461f1969c30530260801c9161570e565b916fff2ea16466c96a3843ec78b326b528610260801c91615705565b916fff973b41fa98c081472e6896dfb254c00260801c916156fc565b916fffcb9843d60f6159c9db58835c9266440260801c916156f3565b916fffe5caca7e10e4e61c3624eaa0941cd00260801c916156ea565b916ffff2e50f5f656932ef12357cf3c7fdcc0260801c916156e1565b916ffff97272373d413259a46990580e213a0260801c916156d8565b6001600160881b03600160801b6156cd565b6315e4079d60e11b5f5260045ffd5b806156a0565b5f915f198183099181810293848085109403938085039414615a435783600160401b1115610325575090600160401b910990828211900360c01b910360401c1790565b5050505060401c90565b5f1981600160801b09918160801b91828085109403938085039414615acd5783821115610308578190600160801b0981805f03168092046002816003021880820260020302808202600203028082026002030280820260020302808202600203028091026002030293600183805f03040190848311900302920304170290565b5080925015610308570490565b5f91905f198282099180820293848085109403938085039414615b1d57600160801b8410156103255750600160801b910990828211900360801b910360801c1790565b5050505060801c90565b5f1981600160c01b09918160c01b91828085109403938085039414615acd5783821115610308578190600160c01b0981805f03168092046002816003021880820260020302808202600203028082026002030280820260020302808202600203028091026002030293600183805f03040190848311900302920304170290565b5f91905f198282099180820293848085109403938085039414615bea57600160c01b8410156103255750600160c01b910990828211900360401b910360c01c1790565b5050505060c01c90565b600160ff1b8114611b4d575f0390565b919291906001600160801b031680158015615c53575b6151cc57615c2791615ce4565b9015615c4057611e2c916001600160a01b031690615e42565b611e2c916001600160a01b031690615da2565b506001600160a01b03841615615c1a565b90612260811015615cd45760648101809111611b4d5760c88110615cdc575b612260811015615cd45781156121745766b1a2bc2ec50000198211615cd45780612260036122608111611b4d5766b1a2bc2ec500008301808411611b4d57611e2c93615cce92615eaf565b90613d49565b505061226090565b5060c8615c83565b5f19670de0b6b3a7640000820991670de0b6b3a7640000820291828085109403938085039414615d965781841015615d7557670de0b6b3a7640000829109600182190182168092046002816003021880820260020302808202600203028082026002030280820260020302808202600203028091026002030293600183805f03040190848311900302920304170290565b630c740aef60e31b5f52600452670de0b6b3a764000060245260445260645ffd5b5090611e2c9250614b6f565b5f19600160601b8209918160601b91828085109403938085039414615d965781841015615e25578190600160601b9009600182190182168092046002816003021880820260020302808202600203028082026002030280820260020302808202600203028091026002030293600183805f03040190848311900302920304170290565b630c740aef60e31b5f52600452600160601b60245260445260645ffd5b5f91905f198282099180820293848085109403938085039414615ea557600160601b841015615e855750600160601b910990828211900360a01b910360601c1790565b630c740aef60e31b8152600492909252602452600160601b604452606490fd5b5050505060601c90565b90915f198383099280830292838086109503948086039514615f425782851015615f2a5790829109600182190182168092046002816003021880820260020302808202600203028082026002030280820260020302808202600203028091026002030293600183805f03040190848311900302920304170290565b630c740aef60e31b5f5260045260245260445260645ffd5b505090611e2c9250614b6f56fea164736f6c634300081c000a60a03461009457601f61267938819003918201601f19168301916001600160401b038311848410176100985780849260209460405283398101031261009457516001600160a01b0381168103610094576080526040516125cc90816100ad82396080518181816101590152818161035d01528181610aae01528181610ce801528181610ed60152818161110601526118e80152f35b5f80fd5b634e487b7160e01b5f52604160045260245ffdfe6104406040526004361015610012575f80fd5b5f3560e01c806317647ca91461038c57806388bc2ef314610348578063a4daace814610204578063c73341f214610190578063d45b42f61461011f5763f11618291461005c575f80fd5b3461011b5761012036600319011261011b576100766103d8565b61007e6103ee565b90610087610404565b9160a4356001600160a01b038116810361011b5760c4356001600160401b03811161011b576100ba90369060040161041a565b60e435929091906001600160a01b038416840361011b5761010435946001600160a01b038616860361011b5761011797610104976100f6610690565b506084359260443591611342565b93604097959793919351978897886104cd565b0390f35b5f80fd5b3461011b57606036600319011261011b576101386103d8565b604435906001600160a01b038216820361011b5760209161017e91602435907f000000000000000000000000000000000000000000000000000000000000000090611d55565b6040516001600160a01b039091168152f35b3461011b5760a036600319011261011b576101a96103d8565b6101b16103ee565b6101b9610404565b91608435916001600160401b03831161011b576040936101e06101ec94369060040161041a565b939092604435916118dc565b82516001600160a01b03928316815291166020820152f35b3461011b576102346102625f61021936610447565b9794969392819a93888a949861022d610690565b5087611673565b96819988979399929460018060a01b031696604051998a968796631ad1220760e01b88528d60048901611217565b0381845afa918215610308575f915f905f955f95610313575b506020600491604051928380926316cd0d6d60e21b82525afa908115610308575f916102c1575b50610117956102b292869261174a565b929091604051978897886104cd565b90506020813d602011610300575b816102dc6020938361066f565b8101031261011b57610117956102b2926102f68793610760565b92509250956102a2565b3d91506102cf565b6040513d5f823e3d90fd5b909450600495506020935061033a91503d805f833e610332818361066f565b8101906111d4565b90965094919390919061027b565b3461011b575f36600319011261011b576040517f00000000000000000000000000000000000000000000000000000000000000006001600160a01b03168152602090f35b3461011b576103ac61039d36610447565b96959095949194939293610a22565b6102405161011760c051916102005192610260519361022051946103c0519695604051978897886104cd565b600435906001600160a01b038216820361011b57565b602435906001600160a01b038216820361011b57565b606435906001600160a01b038216820361011b57565b9181601f8401121561011b578235916001600160401b03831161011b576020838186019501011161011b57565b60e060031982011261011b576004356001600160a01b038116810361011b57916024356001600160a01b038116810361011b5791604435916064356001600160a01b038116810361011b57916084359160a4356001600160a01b038116810361011b579160c435906001600160401b03821161011b576104c99160040161041a565b9091565b9593909492610100926101e088019660018060a01b0316885260018060a01b03166020880152604087015265ffffffffffff815116606087015265ffffffffffff602082015116608087015265ffffffffffff60408201511660a087015265ffffffffffff60608201511660c087015263ffffffff60808201511660e08701526001600160701b0360a0820151168287015263ffffffff60c08201511661012087015260018060a01b0360e08201511661014087015201516101608501526101808401526101a08301526101e06101c0830152825180915261020082019160206102008360051b8301019401925f915b8383106105cc57505050505090565b909192939460208060a06001936101ff198682030187528260608b518780861b03815116845282810151151583850152604081015160408501520151608060608401528051918291826080860152018484015e5f828201840152601f01601f1916010197019594919091019201906105bd565b61012081019081106001600160401b0382111761065b57604052565b634e487b7160e01b5f52604160045260245ffd5b90601f801991011681019081106001600160401b0382111761065b57604052565b6040519061069d8261063f565b5f610100838281528260208201528260408201528260608201528260808201528260a08201528260c08201528260e08201520152565b6001600160401b03811161065b57601f01601f191660200190565b604051906106fd60408361066f565b600d82526c1c9bdd5d19551bdad95b93dd5d609a1b6020830152565b9081602091031261011b57516001600160a01b038116810361011b5790565b805182101561074c5760209160051b010190565b634e487b7160e01b5f52603260045260245ffd5b51906001600160a01b038216820361011b57565b519065ffffffffffff8216820361011b57565b519063ffffffff8216820361011b57565b91908261012091031261011b576040516107b18161063f565b80926107bc81610774565b82526107ca60208201610774565b60208301526107db60408201610774565b60408301526107ec60608201610774565b60608301526107fd60808201610787565b608083015260a08101516001600160701b038116810361011b5760a083015261082860c08201610787565b60c083015260e08101516001600160a01b038116810361011b5760e083015261010090810151910152565b6001600160401b03811161065b5760051b60200190565b9080601f8301121561011b5781519161088283610853565b92610890604051948561066f565b80845260208085019160051b8301019183831161011b5760208101915b8383106108bc57505050505090565b82516001600160401b03811161011b578201906080828703601f19011261011b5760405191608083018381106001600160401b0382111761065b5760405260208101516001600160a01b038116810361011b5783526040810151801515810361011b5760208401526060810151604084015260808101516001600160401b03811161011b5760209101019086601f8301121561011b5781519261095e846106d3565b61096b604051918261066f565b848152886020868601011161011b575f6020868197828098018386015e8301015260608201528152019201916108ad565b906101e08282031261011b576109b182610760565b926109be60208401610760565b926040810151926109d28160608401610798565b92610180830151926101a0810151926101c08201516001600160401b03811161011b576109ff920161086a565b90565b908060209392818452848401375f828201840152601f01601f1916010190565b6101c0526101e05261038052610360526102c0526080526101a05260a0525f6103c0525f610220525f610260525f610200525f60c0525f610240525f905f6103c0525f61022052610a71610690565b610260525f610200525f60c052606061024052610a9f610a8f6106ee565b60a0516101a0516101c051611259565b906110db5750610ad2610380517f00000000000000000000000000000000000000000000000000000000000000006114f3565b6103a08190525f6104005251610ae781610853565b610420526040516103e052610b02610420516103e05161066f565b806103e05152610b14601f1991610853565b015f5b8181106110c75750505f610340819052610320525b6103a05151610320511015610c2357610320516103a0516001600160a01b0391610b5591610738565b51163b15610c135760245f60018060a01b03610b77610320516103a051610738565b51166040519283809263515a929360e01b82526103805160048301525afa5f9181610bef575b50610bb4575b506001610320510161032052610b2c565b80610be591610bc9610320516103e051610738565b52610bda610320516103e051610738565b505161034051611635565b610340525f610ba3565b610c0c9192503d805f833e610c04818361066f565b810190611562565b905f610b9d565b6001610320510161032052610b2c565b610c42610c3261034051610853565b604051610300526103005161066f565b610340516103005152601f19610c5a61034051610853565b013660206103005101375f6102e0525b6103a051516102e0511015610dac57610c896102e0516103e051610738565b516102a0525f610280525b6102a05151610280511015610d9c57610280516102a0516001600160a01b0391610cbd91610738565b5151165f5f5b610400518110610d6e575b50610d5d57610380516001600160a01b0390610d0c9083907f00000000000000000000000000000000000000000000000000000000000000006112c0565b1615610d5d57610d226104005161030051610738565b52610400515f1914610d495760016104005101610400526001610280510161028052610c94565b634e487b7160e01b5f52601160045260245ffd5b506001610280510161028052610c94565b8260018060a01b03610d838361030051610738565b511614610d9257600101610cc3565b505060015f610cce565b60016102e051016102e052610c6a565b5f5f5b610400518110610eb75750610eb55760405163149b559d60e31b81526101c0516001600160a01b0390811660048301526101e0518116602483015261038051604483015261036051811660648301526102c05160848301526080511660a482015260e060c482015260a0516101a0515f9183918291610e339160e484019190610a02565b0381305afa5f915f925f5f905f92855f955f97610e82575b50610e5a575b50505050505050565b6103c09690965261022052610260526102005260c0526102405291505f808080808080610e51565b9550965050505050610ea691503d805f833e610e9e818361066f565b81019061099c565b9496949590949193915f610e4b565b565b610efa60018060a01b03610ece8361030051610738565b5116610380517f00000000000000000000000000000000000000000000000000000000000000006112c0565b6001600160a01b03811680156110bd57610f2460018060a01b036101c05116926103805184611f72565b6110bd575f9060018060a01b03610f3e8561030051610738565b5160405163f116182960e01b815260048101959095526101e0516001600160a01b03908116602487015261038051604487015261036051811660648701526102c05160848701526080511660a486015261012060c486015260a0516101a051869485949093169291610fb69161012486019190610a02565b9160e48401526101048301520381305afa5f915f60e0525f610100525f610120525f610140525f61016052815f61018052611081575b50610ffc57506001905b01610daf565b82158015611072575b8015611054575b61101a575b50600190610ff6565b60e0516103c0526101005161022052610120516102605261014051610200526101605160c052610180516102405293506001915081611011565b50610200516101405114801561100c575060c051610160511161100c565b50610200516101405111611005565b6110969192503d805f833e610e9e818361066f565b9496959390939291929660e05261010052610120526101405261016052610180525f610fec565b5050600190610ff6565b806060602080936103e05101015201610b17565b80519192506001600160a01b03916110fb91602091810182019101610719565b1661112a81610380517f00000000000000000000000000000000000000000000000000000000000000006112c0565b6001600160a01b0381161580156111b2575b61118a576111679160a0516101a0516080516102c05161036051610380516101e0516101c051611342565b949695939093929192966103c05261022052610260526102005260c05261024052565b6329013da560e11b5f90815261038051600452610360516001600160a01b0316602452604490fd5b50610380516101c0516111cf9183916001600160a01b0316611f72565b61113c565b906101808282031261011b576111ea8183610798565b9261012083015192610140810151926101608201516001600160401b03811161011b576109ff920161086a565b6001600160a01b039182168152602081019290925291821660408201526060810192909252909116608082015260c060a082018190526109ff93910191610a02565b8351602090940193909320909260601b6bffffffffffffffffffffffff199081169116186001600160e01b031916611290826106d3565b9161129e604051938461066f565b808352368185011161011b576020815f926104c9968387013784010152611db3565b604051630862026560e41b815260048101929092526001600160a01b039283166024830152909160209183916044918391165afa5f9181611306575b506109ff57505f90565b9091506020813d60201161133a575b816113226020938361066f565b8101031261011b5761133390610760565b905f6112fc565b3d9150611315565b929787875f96611391989a9c999d9b866113659661135e610690565b508961202d565b98819a8a96929460018060a01b0316986040519788968796631ad1220760e01b88528b60048901611217565b0381865afa8015610308575f905f5f905f9261141f575b60049394506020839597604051958680926316cd0d6d60e21b82525afa8015610308575f906113e4575b6113dc945061174a565b919092969594565b506020843d602011611417575b816113fe6020938361066f565b8101031261011b576114126113dc94610760565b6113d2565b3d91506113f1565b505050506114386004913d805f833e610332818361066f565b9293508392916113a8565b3d1561146d573d90611454826106d3565b91611462604051938461066f565b82523d5f602084013e565b606090565b60208183031261011b578051906001600160401b03821161011b57019080601f8301121561011b5781516114a581610853565b926114b3604051948561066f565b81845260208085019260051b82010192831161011b57602001905b8282106114db5750505090565b602080916114e884610760565b8152019101906114ce565b5f91908291604051602081019163d175415360e01b835260248201526024815261151e60448261066f565b51916001600160a01b03165afa611533611443565b90158015611559575b61155357806020806109ff93518301019101611472565b50606090565b5080511561153c565b60208183031261011b578051906001600160401b03821161011b570181601f8201121561011b5780519061159582610853565b926115a3604051948561066f565b8284526020606081860194028301019181831161011b57602001925b8284106115cd575050505090565b60608483031261011b5760405190606082018281106001600160401b0382111761065b576040526115fd85610760565b825260208501519060ff8216820361011b578260209283606095015261162560408801610787565b60408201528152019301926115bf565b91908201809211610d4957565b6001600160a01b0391821681529116602082015260408101919091526080606082018190526109ff93910191610a02565b9192958581989695611687939886866120d9565b9390916001600160a01b03811661173d57508785836116a7938a876118dc565b9790886116b68285819b61241f565b61173057505060209392916116e38892604051978896879586956354aa285160e11b875260048701611642565b03916001600160a01b03165afa908115610308575f91611701575090565b90506020813d602011611728575b8161171c6020938361066f565b8101031261011b575190565b3d915061170f565b9850965092949350505050565b9450509550509250929190565b92939291808280158015906118d3575b6118ca575050905f5b85518110156118c2576117768187610738565b51916020830151158015906118ab575b61189f576060830151926101e084511061189257604084015160608501519260c086015196610180870151916101a0880151936101e06101c08a015199015115995f9682151580611885575b8061187c575b61185b575b50505090611802916117fa8585896117f58a82611635565b61251d565b929091612570565b9490938597859980611852575b611829575b50505050505050600101935b93919091611763565b611843979950600198506117fa949392916117f591611635565b919092905f8080808080611814565b5082811161180f565b611802949397509060406118729392015191612468565b9490915f806117dd565b508115156117d8565b50604081015115156117d2565b5092915060010193611820565b92915060010193611820565b5082516001600160a01b0386811691161415611786565b509350919050565b95509392505050565b5081151561175a565b909293611917909692967f0000000000000000000000000000000000000000000000000000000000000000966119106106ee565b9184611259565b90611cc957506119288487876112c0565b6001600160a01b038116151580611cae575b611ca457506001600160a01b0384169161eeee8314808015611c92575b611c35575b505f9661196a5f96866125a3565b60405163d175415360e01b8152600481018390529097905f816024816001600160a01b0386165afa908115610308575f91611c13575b505f9995986001600160a01b03868116979116948b5b8351811015611bbb576001600160a01b036119d18286610738565b51163b15611bb25760245f6001600160a01b036119ee8488610738565b51166040519283809263515a929360e01b82528b60048301525afa5f9181611b96575b50611a2257506001019a5b9a6119b6565b9b919293909b938d5f905b8651821015611b85578c908e908b8b8b8f6001600160a01b03611a50898f610738565b515116966001600160a01b0390611a689089906125a3565b16938414611b7557918691611a7c93611d55565b926001600160a01b03841615611b67576001600160a01b031615611b58575b9060208f9260448f604051958693849263fabd491f60e01b8452600484015260248301525afa918215610308575f92611b0e575b506001600160801b03166001600160801b03821611611af8575b505050600101935b938e611a2d565b919e5092506001919d9f509e919c905f80611ae9565b9091506020813d8211611b50575b81611b296020938361066f565b8101031261011b57516001600160801b038116810361011b57906001600160801b03611acf565b3d9150611b1c565b919f5091935083918f91611a9b565b505050505060010193611af1565b5050505050505060010193611af1565b505092919b6001919450019a611a1c565b611bab9192503d805f833e610c04818361066f565b905f611a11565b6001019a611a1c565b50909a509798965091946001600160a01b03891615945088935085925090508315611c01575b505050611bec575050565b6329013da560e11b5f5260045260245260445ffd5b611c0b9350611f72565b5f8281611be1565b611c2f91503d805f833e611c27818361066f565b810190611472565b5f6119a0565b15611c8a57835b611c478189896112c0565b906001600160a01b038216151580611c6f575b611c64575061195c565b975095509350505050565b50611c84828a6001600160a01b038716611f72565b15611c5a565b61eeee611c3c565b506001600160a01b0385168414611957565b9550509250509190565b50611cc381886001600160a01b038516611f72565b1561193a565b8694935094611cf891969295611cef60018060a01b039160208082518301019101610719565b169485916112c0565b946001600160a01b0386161590869083908315611d3a575b505050611d1d5750509190565b6329013da560e11b5f5260045260018060a01b031660245260445ffd5b611d4d93506001600160a01b0316611f72565b85825f611d10565b91939284611d62926112c0565b926001600160a01b03841615918491908315611d87575b505050611d8257565b5f9150565b611d9a93506001600160a01b0316611f72565b825f80611d79565b90815181101561074c570160200190565b90915f916060602585511115611f575784516024101561074c5760448501518060f81c9160205b60048101808211610d49576001600160f81b0319611df8828b611da2565b5116151580611f38575b15611f2e57611e119089611da2565b516020828a01015160f882901c91906001600160e01b0319888116911614611e3d575050600501611dda565b9550959650929050600983018093119182610d4957611fe0809160f31c16169080820460201490151715610d49578210801590611f0f575b15611ed8575050611fe0808551925b60f31c16169180830460201490151715610d49578190039060405193601f19603f8487010116604052828552015f5b828110611ec35750505060019190565b80602080928401015182828801015201611eb3565b610d4957611ee69085611da2565b51611fe0808260f81c9260f31c16169080820460201490151715610d4957611fe0809192611e84565b505f90506001600160f81b0319611f268388611da2565b511615611e75565b5050949550505050565b5060f384901c611fe01685156020878304141715610d49578210611e02565b50509150505f90604051611f6c60208261066f565b5f815290565b905f925b60058410611f875750505050600190565b6001600160a01b039081169083168114612024575f80916040516020810190634fe0eced60e01b825285602482015260248152611fc560448261066f565b51915afa611fd1611443565b90158015612019575b6120115760208180518101031261011b576020611ff79101610760565b6001600160a01b0381161561201157600190930192611f76565b505050505f90565b506020815110611fda565b50505050600190565b92958581958998612042959b9a949b876122a1565b90939150612053868295809a61241f565b6120cf57509380959661208060209596604051978896879586956354aa285160e11b875260048701611642565b03916001600160a01b03165afa908115610308575f9161209f57509091565b90506020813d6020116120c7575b816120ba6020938361066f565b8101031261011b57519091565b3d91506120ad565b9650505050509190565b939593916001600160a01b038116919061eeee831480156121be575b6121b15750612136606095969760405198899687958695634fa742a160e11b875260048701526024860152604485015260a0606485015260a4840191610a02565b5f608483015203916001600160a01b03165afa908115610308575f5f935f93612160575b50929190565b92505091506060813d6060116121a9575b8161217e6060938361066f565b8101031261011b5761218f81610760565b91604061219e60208401610760565b92015191925f61215a565b3d9150612171565b965050505091505f929190565b50604051630760c75760e21b81526020816004816001600160a01b0389165afa908115610308575f9161225e575b50604051630f85421b60e01b81526004810185905290602090829060249082906001600160a01b03165afa908115610308575f9161222c575b50156120f5565b90506020813d602011612256575b816122476020938361066f565b8101031261011b57515f612225565b3d915061223a565b90506020813d602011612299575b816122796020938361066f565b8101031261011b57516001600160a01b038116810361011b5760206121ec565b3d915061226c565b939694959293926001600160a01b0383169261eeee8414801561233c575b61232e57506123006060969798604051998a9788968796634fa742a160e11b885260048801526024870152604486015260a0606486015260a4850191610a02565b6001600160a01b0391821660848401529190910392165afa908115610308575f5f935f936121605750929190565b97505050505091505f929190565b50604051630760c75760e21b81526020816004816001600160a01b038a165afa908115610308575f916123dc575b50604051630f85421b60e01b81526004810186905290602090829060249082906001600160a01b03165afa908115610308575f916123aa575b50156122bf565b90506020813d6020116123d4575b816123c56020938361066f565b8101031261011b57515f6123a3565b3d91506123b8565b90506020813d602011612417575b816123f76020938361066f565b8101031261011b57516001600160a01b038116810361011b57602061236a565b3d91506123ea565b906001600160a01b03808216908416146124605761244061244f91836125a3565b926001600160a01b03926125a3565b6001600160a01b0390921691161490565b505050600190565b90915f1983830992808302928380861095039480860395146124fb57828510156124e35790829109600182190182168092046002816003021880820260020302808202600203028082026002030280820260020302808202600203028091026002030293600183805f03040190848311900302920304170290565b630c740aef60e31b5f5260045260245260445260645ffd5b505080925015612509570490565b634e487b7160e01b5f52601260045260245ffd5b93929190918415612568576125329082611635565b918215612560575b50811561255a579061254c9184612468565b91828103908111610d495790565b50505f90565b91505f61253a565b935090509190565b91939290938281118015612590575b6125895750509190565b9350919050565b50828114801561257f575084821161257f565b906001600160a01b03811661eeee036125ba575090565b90509056fea164736f6c634300081c000a",
	"gitCommit": "npm:@bananapus/router-terminal-v6@1.1.1",
	"gitDirty": false,
	"history": []
}