{
	"format": "sphinx-sol-ct-artifact-1",
	"address": "0x0f50ac09fe07a8764166ba9a3a6aa1945d409d2d",
	"sourceName": "node_modules/@bananapus/router-terminal-v6/src/JBRouterTerminalRegistry.sol",
	"contractName": "JBRouterTerminalRegistry",
	"chainId": "0xaa37dc",
	"abi": [
		{
			"type": "constructor",
			"inputs": [
				{
					"name": "permissions",
					"type": "address",
					"internalType": "contract IJBPermissions"
				},
				{
					"name": "projects",
					"type": "address",
					"internalType": "contract IJBProjects"
				},
				{
					"name": "permit2",
					"type": "address",
					"internalType": "contract IPermit2"
				},
				{
					"name": "owner",
					"type": "address",
					"internalType": "address"
				},
				{
					"name": "trustedForwarder",
					"type": "address",
					"internalType": "address"
				}
			],
			"stateMutability": "nonpayable"
		},
		{
			"type": "function",
			"name": "PERMISSIONS",
			"inputs": [],
			"outputs": [
				{
					"name": "",
					"type": "address",
					"internalType": "contract IJBPermissions"
				}
			],
			"stateMutability": "view"
		},
		{
			"type": "function",
			"name": "PERMIT2",
			"inputs": [],
			"outputs": [
				{
					"name": "",
					"type": "address",
					"internalType": "contract IPermit2"
				}
			],
			"stateMutability": "view"
		},
		{
			"type": "function",
			"name": "PROJECTS",
			"inputs": [],
			"outputs": [
				{
					"name": "",
					"type": "address",
					"internalType": "contract IJBProjects"
				}
			],
			"stateMutability": "view"
		},
		{
			"type": "function",
			"name": "accountingContextForTokenOf",
			"inputs": [
				{
					"name": "projectId",
					"type": "uint256",
					"internalType": "uint256"
				},
				{
					"name": "token",
					"type": "address",
					"internalType": "address"
				}
			],
			"outputs": [
				{
					"name": "context",
					"type": "tuple",
					"internalType": "struct JBAccountingContext",
					"components": [
						{
							"name": "token",
							"type": "address",
							"internalType": "address"
						},
						{
							"name": "decimals",
							"type": "uint8",
							"internalType": "uint8"
						},
						{
							"name": "currency",
							"type": "uint32",
							"internalType": "uint32"
						}
					]
				}
			],
			"stateMutability": "view"
		},
		{
			"type": "function",
			"name": "accountingContextsOf",
			"inputs": [
				{
					"name": "projectId",
					"type": "uint256",
					"internalType": "uint256"
				}
			],
			"outputs": [
				{
					"name": "contexts",
					"type": "tuple[]",
					"internalType": "struct JBAccountingContext[]",
					"components": [
						{
							"name": "token",
							"type": "address",
							"internalType": "address"
						},
						{
							"name": "decimals",
							"type": "uint8",
							"internalType": "uint8"
						},
						{
							"name": "currency",
							"type": "uint32",
							"internalType": "uint32"
						}
					]
				}
			],
			"stateMutability": "view"
		},
		{
			"type": "function",
			"name": "addAccountingContextsFor",
			"inputs": [
				{
					"name": "projectId",
					"type": "uint256",
					"internalType": "uint256"
				},
				{
					"name": "accountingContexts",
					"type": "tuple[]",
					"internalType": "struct JBAccountingContext[]",
					"components": [
						{
							"name": "token",
							"type": "address",
							"internalType": "address"
						},
						{
							"name": "decimals",
							"type": "uint8",
							"internalType": "uint8"
						},
						{
							"name": "currency",
							"type": "uint32",
							"internalType": "uint32"
						}
					]
				}
			],
			"outputs": [],
			"stateMutability": "nonpayable"
		},
		{
			"type": "function",
			"name": "addToBalanceOf",
			"inputs": [
				{
					"name": "projectId",
					"type": "uint256",
					"internalType": "uint256"
				},
				{
					"name": "token",
					"type": "address",
					"internalType": "address"
				},
				{
					"name": "amount",
					"type": "uint256",
					"internalType": "uint256"
				},
				{
					"name": "shouldReturnHeldFees",
					"type": "bool",
					"internalType": "bool"
				},
				{
					"name": "memo",
					"type": "string",
					"internalType": "string"
				},
				{
					"name": "metadata",
					"type": "bytes",
					"internalType": "bytes"
				}
			],
			"outputs": [],
			"stateMutability": "payable"
		},
		{
			"type": "function",
			"name": "allowTerminal",
			"inputs": [
				{
					"name": "terminal",
					"type": "address",
					"internalType": "contract IJBTerminal"
				}
			],
			"outputs": [],
			"stateMutability": "nonpayable"
		},
		{
			"type": "function",
			"name": "currentSurplusOf",
			"inputs": [
				{
					"name": "projectId",
					"type": "uint256",
					"internalType": "uint256"
				},
				{
					"name": "tokens",
					"type": "address[]",
					"internalType": "address[]"
				},
				{
					"name": "decimals",
					"type": "uint256",
					"internalType": "uint256"
				},
				{
					"name": "currency",
					"type": "uint256",
					"internalType": "uint256"
				}
			],
			"outputs": [
				{
					"name": "",
					"type": "uint256",
					"internalType": "uint256"
				}
			],
			"stateMutability": "pure"
		},
		{
			"type": "function",
			"name": "defaultTerminal",
			"inputs": [],
			"outputs": [
				{
					"name": "",
					"type": "address",
					"internalType": "contract IJBTerminal"
				}
			],
			"stateMutability": "view"
		},
		{
			"type": "function",
			"name": "defaultTerminalFor",
			"inputs": [
				{
					"name": "projectId",
					"type": "uint256",
					"internalType": "uint256"
				}
			],
			"outputs": [
				{
					"name": "terminal",
					"type": "address",
					"internalType": "contract IJBTerminal"
				}
			],
			"stateMutability": "view"
		},
		{
			"type": "function",
			"name": "defaultTerminalHistoryAt",
			"inputs": [
				{
					"name": "index",
					"type": "uint256",
					"internalType": "uint256"
				}
			],
			"outputs": [
				{
					"name": "segment",
					"type": "tuple",
					"internalType": "struct DefaultTerminalSegment",
					"components": [
						{
							"name": "minProjectIdExclusive",
							"type": "uint256",
							"internalType": "uint256"
						},
						{
							"name": "maxProjectId",
							"type": "uint256",
							"internalType": "uint256"
						},
						{
							"name": "terminal",
							"type": "address",
							"internalType": "contract IJBTerminal"
						}
					]
				}
			],
			"stateMutability": "view"
		},
		{
			"type": "function",
			"name": "defaultTerminalHistoryLength",
			"inputs": [],
			"outputs": [
				{
					"name": "length",
					"type": "uint256",
					"internalType": "uint256"
				}
			],
			"stateMutability": "view"
		},
		{
			"type": "function",
			"name": "defaultTerminalProjectIdThreshold",
			"inputs": [],
			"outputs": [
				{
					"name": "",
					"type": "uint256",
					"internalType": "uint256"
				}
			],
			"stateMutability": "view"
		},
		{
			"type": "function",
			"name": "disallowTerminal",
			"inputs": [
				{
					"name": "terminal",
					"type": "address",
					"internalType": "contract IJBTerminal"
				}
			],
			"outputs": [],
			"stateMutability": "nonpayable"
		},
		{
			"type": "function",
			"name": "hasLockedTerminal",
			"inputs": [
				{
					"name": "projectId",
					"type": "uint256",
					"internalType": "uint256"
				}
			],
			"outputs": [
				{
					"name": "",
					"type": "bool",
					"internalType": "bool"
				}
			],
			"stateMutability": "view"
		},
		{
			"type": "function",
			"name": "isTerminalAllowed",
			"inputs": [
				{
					"name": "terminal",
					"type": "address",
					"internalType": "contract IJBTerminal"
				}
			],
			"outputs": [
				{
					"name": "",
					"type": "bool",
					"internalType": "bool"
				}
			],
			"stateMutability": "view"
		},
		{
			"type": "function",
			"name": "isTrustedForwarder",
			"inputs": [
				{
					"name": "forwarder",
					"type": "address",
					"internalType": "address"
				}
			],
			"outputs": [
				{
					"name": "",
					"type": "bool",
					"internalType": "bool"
				}
			],
			"stateMutability": "view"
		},
		{
			"type": "function",
			"name": "lockTerminalFor",
			"inputs": [
				{
					"name": "projectId",
					"type": "uint256",
					"internalType": "uint256"
				},
				{
					"name": "expectedTerminal",
					"type": "address",
					"internalType": "contract IJBTerminal"
				}
			],
			"outputs": [],
			"stateMutability": "nonpayable"
		},
		{
			"type": "function",
			"name": "migrateBalanceOf",
			"inputs": [
				{
					"name": "projectId",
					"type": "uint256",
					"internalType": "uint256"
				},
				{
					"name": "token",
					"type": "address",
					"internalType": "address"
				},
				{
					"name": "to",
					"type": "address",
					"internalType": "contract IJBTerminal"
				}
			],
			"outputs": [
				{
					"name": "",
					"type": "uint256",
					"internalType": "uint256"
				}
			],
			"stateMutability": "pure"
		},
		{
			"type": "function",
			"name": "originalPayer",
			"inputs": [],
			"outputs": [
				{
					"name": "",
					"type": "address",
					"internalType": "address"
				}
			],
			"stateMutability": "view"
		},
		{
			"type": "function",
			"name": "owner",
			"inputs": [],
			"outputs": [
				{
					"name": "",
					"type": "address",
					"internalType": "address"
				}
			],
			"stateMutability": "view"
		},
		{
			"type": "function",
			"name": "pay",
			"inputs": [
				{
					"name": "projectId",
					"type": "uint256",
					"internalType": "uint256"
				},
				{
					"name": "token",
					"type": "address",
					"internalType": "address"
				},
				{
					"name": "amount",
					"type": "uint256",
					"internalType": "uint256"
				},
				{
					"name": "beneficiary",
					"type": "address",
					"internalType": "address"
				},
				{
					"name": "minReturnedTokens",
					"type": "uint256",
					"internalType": "uint256"
				},
				{
					"name": "memo",
					"type": "string",
					"internalType": "string"
				},
				{
					"name": "metadata",
					"type": "bytes",
					"internalType": "bytes"
				}
			],
			"outputs": [
				{
					"name": "result",
					"type": "uint256",
					"internalType": "uint256"
				}
			],
			"stateMutability": "payable"
		},
		{
			"type": "function",
			"name": "previewPayFor",
			"inputs": [
				{
					"name": "projectId",
					"type": "uint256",
					"internalType": "uint256"
				},
				{
					"name": "token",
					"type": "address",
					"internalType": "address"
				},
				{
					"name": "amount",
					"type": "uint256",
					"internalType": "uint256"
				},
				{
					"name": "beneficiary",
					"type": "address",
					"internalType": "address"
				},
				{
					"name": "metadata",
					"type": "bytes",
					"internalType": "bytes"
				}
			],
			"outputs": [
				{
					"name": "ruleset",
					"type": "tuple",
					"internalType": "struct JBRuleset",
					"components": [
						{
							"name": "cycleNumber",
							"type": "uint48",
							"internalType": "uint48"
						},
						{
							"name": "id",
							"type": "uint48",
							"internalType": "uint48"
						},
						{
							"name": "basedOnId",
							"type": "uint48",
							"internalType": "uint48"
						},
						{
							"name": "start",
							"type": "uint48",
							"internalType": "uint48"
						},
						{
							"name": "duration",
							"type": "uint32",
							"internalType": "uint32"
						},
						{
							"name": "weight",
							"type": "uint112",
							"internalType": "uint112"
						},
						{
							"name": "weightCutPercent",
							"type": "uint32",
							"internalType": "uint32"
						},
						{
							"name": "approvalHook",
							"type": "address",
							"internalType": "contract IJBRulesetApprovalHook"
						},
						{
							"name": "metadata",
							"type": "uint256",
							"internalType": "uint256"
						}
					]
				},
				{
					"name": "beneficiaryTokenCount",
					"type": "uint256",
					"internalType": "uint256"
				},
				{
					"name": "reservedTokenCount",
					"type": "uint256",
					"internalType": "uint256"
				},
				{
					"name": "hookSpecifications",
					"type": "tuple[]",
					"internalType": "struct JBPayHookSpecification[]",
					"components": [
						{
							"name": "hook",
							"type": "address",
							"internalType": "contract IJBPayHook"
						},
						{
							"name": "noop",
							"type": "bool",
							"internalType": "bool"
						},
						{
							"name": "amount",
							"type": "uint256",
							"internalType": "uint256"
						},
						{
							"name": "metadata",
							"type": "bytes",
							"internalType": "bytes"
						}
					]
				}
			],
			"stateMutability": "view"
		},
		{
			"type": "function",
			"name": "renounceOwnership",
			"inputs": [],
			"outputs": [],
			"stateMutability": "nonpayable"
		},
		{
			"type": "function",
			"name": "setDefaultTerminal",
			"inputs": [
				{
					"name": "terminal",
					"type": "address",
					"internalType": "contract IJBTerminal"
				}
			],
			"outputs": [],
			"stateMutability": "nonpayable"
		},
		{
			"type": "function",
			"name": "setTerminalFor",
			"inputs": [
				{
					"name": "projectId",
					"type": "uint256",
					"internalType": "uint256"
				},
				{
					"name": "terminal",
					"type": "address",
					"internalType": "contract IJBTerminal"
				}
			],
			"outputs": [],
			"stateMutability": "nonpayable"
		},
		{
			"type": "function",
			"name": "supportsInterface",
			"inputs": [
				{
					"name": "interfaceId",
					"type": "bytes4",
					"internalType": "bytes4"
				}
			],
			"outputs": [
				{
					"name": "supported",
					"type": "bool",
					"internalType": "bool"
				}
			],
			"stateMutability": "pure"
		},
		{
			"type": "function",
			"name": "terminalOf",
			"inputs": [
				{
					"name": "projectId",
					"type": "uint256",
					"internalType": "uint256"
				}
			],
			"outputs": [
				{
					"name": "terminal",
					"type": "address",
					"internalType": "contract IJBTerminal"
				}
			],
			"stateMutability": "view"
		},
		{
			"type": "function",
			"name": "transferOwnership",
			"inputs": [
				{
					"name": "newOwner",
					"type": "address",
					"internalType": "address"
				}
			],
			"outputs": [],
			"stateMutability": "nonpayable"
		},
		{
			"type": "function",
			"name": "trustedForwarder",
			"inputs": [],
			"outputs": [
				{
					"name": "",
					"type": "address",
					"internalType": "address"
				}
			],
			"stateMutability": "view"
		},
		{
			"type": "event",
			"name": "AddToBalance",
			"inputs": [
				{
					"name": "projectId",
					"type": "uint256",
					"indexed": true,
					"internalType": "uint256"
				},
				{
					"name": "amount",
					"type": "uint256",
					"indexed": false,
					"internalType": "uint256"
				},
				{
					"name": "returnedFees",
					"type": "uint256",
					"indexed": false,
					"internalType": "uint256"
				},
				{
					"name": "memo",
					"type": "string",
					"indexed": false,
					"internalType": "string"
				},
				{
					"name": "metadata",
					"type": "bytes",
					"indexed": false,
					"internalType": "bytes"
				},
				{
					"name": "caller",
					"type": "address",
					"indexed": false,
					"internalType": "address"
				}
			],
			"anonymous": false
		},
		{
			"type": "event",
			"name": "HookAfterRecordPay",
			"inputs": [
				{
					"name": "hook",
					"type": "address",
					"indexed": true,
					"internalType": "contract IJBPayHook"
				},
				{
					"name": "context",
					"type": "tuple",
					"indexed": false,
					"internalType": "struct JBAfterPayRecordedContext",
					"components": [
						{
							"name": "payer",
							"type": "address",
							"internalType": "address"
						},
						{
							"name": "projectId",
							"type": "uint256",
							"internalType": "uint256"
						},
						{
							"name": "rulesetId",
							"type": "uint256",
							"internalType": "uint256"
						},
						{
							"name": "amount",
							"type": "tuple",
							"internalType": "struct JBTokenAmount",
							"components": [
								{
									"name": "token",
									"type": "address",
									"internalType": "address"
								},
								{
									"name": "decimals",
									"type": "uint8",
									"internalType": "uint8"
								},
								{
									"name": "currency",
									"type": "uint32",
									"internalType": "uint32"
								},
								{
									"name": "value",
									"type": "uint256",
									"internalType": "uint256"
								}
							]
						},
						{
							"name": "forwardedAmount",
							"type": "tuple",
							"internalType": "struct JBTokenAmount",
							"components": [
								{
									"name": "token",
									"type": "address",
									"internalType": "address"
								},
								{
									"name": "decimals",
									"type": "uint8",
									"internalType": "uint8"
								},
								{
									"name": "currency",
									"type": "uint32",
									"internalType": "uint32"
								},
								{
									"name": "value",
									"type": "uint256",
									"internalType": "uint256"
								}
							]
						},
						{
							"name": "weight",
							"type": "uint256",
							"internalType": "uint256"
						},
						{
							"name": "newlyIssuedTokenCount",
							"type": "uint256",
							"internalType": "uint256"
						},
						{
							"name": "beneficiary",
							"type": "address",
							"internalType": "address"
						},
						{
							"name": "hookMetadata",
							"type": "bytes",
							"internalType": "bytes"
						},
						{
							"name": "payerMetadata",
							"type": "bytes",
							"internalType": "bytes"
						}
					]
				},
				{
					"name": "specificationAmount",
					"type": "uint256",
					"indexed": false,
					"internalType": "uint256"
				},
				{
					"name": "caller",
					"type": "address",
					"indexed": false,
					"internalType": "address"
				}
			],
			"anonymous": false
		},
		{
			"type": "event",
			"name": "JBRouterTerminalRegistry_AllowTerminal",
			"inputs": [
				{
					"name": "terminal",
					"type": "address",
					"indexed": false,
					"internalType": "contract IJBTerminal"
				},
				{
					"name": "caller",
					"type": "address",
					"indexed": false,
					"internalType": "address"
				}
			],
			"anonymous": false
		},
		{
			"type": "event",
			"name": "JBRouterTerminalRegistry_DisallowTerminal",
			"inputs": [
				{
					"name": "terminal",
					"type": "address",
					"indexed": false,
					"internalType": "contract IJBTerminal"
				},
				{
					"name": "caller",
					"type": "address",
					"indexed": false,
					"internalType": "address"
				}
			],
			"anonymous": false
		},
		{
			"type": "event",
			"name": "JBRouterTerminalRegistry_LockTerminal",
			"inputs": [
				{
					"name": "projectId",
					"type": "uint256",
					"indexed": true,
					"internalType": "uint256"
				},
				{
					"name": "caller",
					"type": "address",
					"indexed": false,
					"internalType": "address"
				}
			],
			"anonymous": false
		},
		{
			"type": "event",
			"name": "JBRouterTerminalRegistry_SetDefaultTerminal",
			"inputs": [
				{
					"name": "terminal",
					"type": "address",
					"indexed": false,
					"internalType": "contract IJBTerminal"
				},
				{
					"name": "caller",
					"type": "address",
					"indexed": false,
					"internalType": "address"
				}
			],
			"anonymous": false
		},
		{
			"type": "event",
			"name": "JBRouterTerminalRegistry_SetTerminal",
			"inputs": [
				{
					"name": "projectId",
					"type": "uint256",
					"indexed": true,
					"internalType": "uint256"
				},
				{
					"name": "terminal",
					"type": "address",
					"indexed": false,
					"internalType": "contract IJBTerminal"
				},
				{
					"name": "caller",
					"type": "address",
					"indexed": false,
					"internalType": "address"
				}
			],
			"anonymous": false
		},
		{
			"type": "event",
			"name": "MigrateTerminal",
			"inputs": [
				{
					"name": "projectId",
					"type": "uint256",
					"indexed": true,
					"internalType": "uint256"
				},
				{
					"name": "token",
					"type": "address",
					"indexed": true,
					"internalType": "address"
				},
				{
					"name": "to",
					"type": "address",
					"indexed": true,
					"internalType": "contract IJBTerminal"
				},
				{
					"name": "amount",
					"type": "uint256",
					"indexed": false,
					"internalType": "uint256"
				},
				{
					"name": "caller",
					"type": "address",
					"indexed": false,
					"internalType": "address"
				}
			],
			"anonymous": false
		},
		{
			"type": "event",
			"name": "OwnershipTransferred",
			"inputs": [
				{
					"name": "previousOwner",
					"type": "address",
					"indexed": true,
					"internalType": "address"
				},
				{
					"name": "newOwner",
					"type": "address",
					"indexed": true,
					"internalType": "address"
				}
			],
			"anonymous": false
		},
		{
			"type": "event",
			"name": "Pay",
			"inputs": [
				{
					"name": "rulesetId",
					"type": "uint256",
					"indexed": true,
					"internalType": "uint256"
				},
				{
					"name": "rulesetCycleNumber",
					"type": "uint256",
					"indexed": true,
					"internalType": "uint256"
				},
				{
					"name": "projectId",
					"type": "uint256",
					"indexed": true,
					"internalType": "uint256"
				},
				{
					"name": "payer",
					"type": "address",
					"indexed": false,
					"internalType": "address"
				},
				{
					"name": "beneficiary",
					"type": "address",
					"indexed": false,
					"internalType": "address"
				},
				{
					"name": "amount",
					"type": "uint256",
					"indexed": false,
					"internalType": "uint256"
				},
				{
					"name": "newlyIssuedTokenCount",
					"type": "uint256",
					"indexed": false,
					"internalType": "uint256"
				},
				{
					"name": "memo",
					"type": "string",
					"indexed": false,
					"internalType": "string"
				},
				{
					"name": "metadata",
					"type": "bytes",
					"indexed": false,
					"internalType": "bytes"
				},
				{
					"name": "caller",
					"type": "address",
					"indexed": false,
					"internalType": "address"
				}
			],
			"anonymous": false
		},
		{
			"type": "event",
			"name": "Permit2AllowanceFailed",
			"inputs": [
				{
					"name": "token",
					"type": "address",
					"indexed": true,
					"internalType": "address"
				},
				{
					"name": "owner",
					"type": "address",
					"indexed": true,
					"internalType": "address"
				},
				{
					"name": "reason",
					"type": "bytes",
					"indexed": false,
					"internalType": "bytes"
				},
				{
					"name": "caller",
					"type": "address",
					"indexed": false,
					"internalType": "address"
				}
			],
			"anonymous": false
		},
		{
			"type": "event",
			"name": "SetAccountingContext",
			"inputs": [
				{
					"name": "projectId",
					"type": "uint256",
					"indexed": true,
					"internalType": "uint256"
				},
				{
					"name": "context",
					"type": "tuple",
					"indexed": false,
					"internalType": "struct JBAccountingContext",
					"components": [
						{
							"name": "token",
							"type": "address",
							"internalType": "address"
						},
						{
							"name": "decimals",
							"type": "uint8",
							"internalType": "uint8"
						},
						{
							"name": "currency",
							"type": "uint32",
							"internalType": "uint32"
						}
					]
				},
				{
					"name": "caller",
					"type": "address",
					"indexed": false,
					"internalType": "address"
				}
			],
			"anonymous": false
		},
		{
			"type": "error",
			"name": "FailedCall",
			"inputs": []
		},
		{
			"type": "error",
			"name": "InsufficientBalance",
			"inputs": [
				{
					"name": "balance",
					"type": "uint256",
					"internalType": "uint256"
				},
				{
					"name": "needed",
					"type": "uint256",
					"internalType": "uint256"
				}
			]
		},
		{
			"type": "error",
			"name": "JBPermissioned_Unauthorized",
			"inputs": [
				{
					"name": "account",
					"type": "address",
					"internalType": "address"
				},
				{
					"name": "sender",
					"type": "address",
					"internalType": "address"
				},
				{
					"name": "projectId",
					"type": "uint256",
					"internalType": "uint256"
				},
				{
					"name": "permissionId",
					"type": "uint256",
					"internalType": "uint256"
				}
			]
		},
		{
			"type": "error",
			"name": "JBRouterTerminalRegistry_AmountOverflow",
			"inputs": [
				{
					"name": "amount",
					"type": "uint256",
					"internalType": "uint256"
				}
			]
		},
		{
			"type": "error",
			"name": "JBRouterTerminalRegistry_CannotDisallowDefaultTerminal",
			"inputs": [
				{
					"name": "terminal",
					"type": "address",
					"internalType": "contract IJBTerminal"
				}
			]
		},
		{
			"type": "error",
			"name": "JBRouterTerminalRegistry_CircularForward",
			"inputs": [
				{
					"name": "terminal",
					"type": "address",
					"internalType": "contract IJBTerminal"
				}
			]
		},
		{
			"type": "error",
			"name": "JBRouterTerminalRegistry_NoMsgValueAllowed",
			"inputs": [
				{
					"name": "value",
					"type": "uint256",
					"internalType": "uint256"
				}
			]
		},
		{
			"type": "error",
			"name": "JBRouterTerminalRegistry_PermitAllowanceNotEnough",
			"inputs": [
				{
					"name": "amount",
					"type": "uint256",
					"internalType": "uint256"
				},
				{
					"name": "allowanceAmount",
					"type": "uint256",
					"internalType": "uint256"
				}
			]
		},
		{
			"type": "error",
			"name": "JBRouterTerminalRegistry_TerminalLocked",
			"inputs": [
				{
					"name": "projectId",
					"type": "uint256",
					"internalType": "uint256"
				}
			]
		},
		{
			"type": "error",
			"name": "JBRouterTerminalRegistry_TerminalMismatch",
			"inputs": [
				{
					"name": "currentTerminal",
					"type": "address",
					"internalType": "contract IJBTerminal"
				},
				{
					"name": "expectedTerminal",
					"type": "address",
					"internalType": "contract IJBTerminal"
				}
			]
		},
		{
			"type": "error",
			"name": "JBRouterTerminalRegistry_TerminalNotAllowed",
			"inputs": [
				{
					"name": "terminal",
					"type": "address",
					"internalType": "contract IJBTerminal"
				}
			]
		},
		{
			"type": "error",
			"name": "JBRouterTerminalRegistry_TerminalNotSet",
			"inputs": [
				{
					"name": "projectId",
					"type": "uint256",
					"internalType": "uint256"
				}
			]
		},
		{
			"type": "error",
			"name": "JBRouterTerminalRegistry_ZeroAddress",
			"inputs": [
				{
					"name": "terminal",
					"type": "address",
					"internalType": "address"
				}
			]
		},
		{
			"type": "error",
			"name": "OwnableInvalidOwner",
			"inputs": [
				{
					"name": "owner",
					"type": "address",
					"internalType": "address"
				}
			]
		},
		{
			"type": "error",
			"name": "OwnableUnauthorizedAccount",
			"inputs": [
				{
					"name": "account",
					"type": "address",
					"internalType": "address"
				}
			]
		},
		{
			"type": "error",
			"name": "SafeERC20FailedOperation",
			"inputs": [
				{
					"name": "token",
					"type": "address",
					"internalType": "address"
				}
			]
		}
	],
	"args": [
		"0xCF5870A8F942110C2ea89fd03B7a3D578816a265",
		"0xB67A90909C222a33706B6E2B836943d32eF82769",
		"0x000000000022D473030F116dDEE9F6B43aC78BA3",
		"0xd5136c794ee43BEf1eD4cF1eB6DEe45b7F803437",
		"0x53d5A7E174A87721c527ED14c7Ce7cb515465607"
	],
	"solcInputHash": "b4516aa3b243e401a068bb4a3a53dd59",
	"bytecode": "0x6101003461017657601f612ad238819003918201601f19168301916001600160401b0383118484101761017a5780849260a094604052833981010312610176578051906001600160a01b03821682036101765760208101516001600160a01b0381168103610176576040820151916001600160a01b038316830361017657610095608061008e6060840161018e565b920161018e565b6080949094526001600160a01b0316928315610163575f80546001600160a01b031981168617825560405195916001600160a01b03909116907f8be0079c531659141344cd1fd0a4f28419497f9722a3daafe3b4186f6b6457e09080a360a05260c05260e05261292f90816101a382396080518181816103620152611b99015260a051818181610b0001528181610cb001526122eb015260c05181818161040b0152818161094201528181610de101526110b5015260e051818181610c2401528181611fa1015261261f0152f35b631e4fbdf760e01b5f525f60045260245ffd5b5f80fd5b634e487b7160e01b5f52604160045260245ffd5b51906001600160a01b03821682036101765756fe6080806040526004361015610012575f80fd5b5f905f3560e01c90816301ffc9a71461157a575080630aff0c31146111535780631386053314611136578063253721c8146110e4578063293c4999146110a0578063296eee511461107b57806330c236e814610ff35780633a01714f14610f9f5780634e96e7af14610d925780634fe0eced14610d74578063515a929314610ce4578063572b6c0514610c9057806368f6ee6c14610c535780636afdd85014610c0f578063715018a614610bb857806377d4ad4f14610b2f5780637da0a87714610aeb5780638da5cb5b14610ac45780639855c76c1461090a5780639e6eec051461077c578063a01b19cb1461074b578063a887538714610722578063b4996ee3146106f3578063b5c104f314610693578063c68f82df14610675578063d519ee53146105fd578063e28b5411146105ce578063f2fde38b14610548578063f3e37d0114610391578063f434c9141461034c5763fef4325714610173575f80fd5b60e0366003190112610349576004359061018b6115fd565b90610194611613565b9160a4356001600160401b038111610347576101b490369060040161163f565b94909360c4356001600160401b038111610343576101d690369060040161163f565b9190956101e284611a1a565b946101f1848960443584611cb1565b6001600160a01b038716989095899590919061020e88858961212a565b6001600160a01b038b5c81169a919691906102276121a9565b166001600160a01b03198d5c16178c5d61024090612235565b6040519c8d978896879663fef4325760e01b88526004880152600160a01b60019003169a8b60248801526044870152600160a01b60019003166064860152608435608486015260a4850160e0905260e485019061029c926117c2565b906003198483030160c48501526102b2926117c2565b03915a94602095f19384156103385783946102ff575b6020955061eeee82036102ef575b5050815c6001600160a01b03191617905d604051908152f35b6102f891612248565b5f806102d6565b93506020853d602011610330575b8161031a602093836116f8565b8101031261032c5760209451936102c8565b5f80fd5b3d915061030d565b6040513d85823e3d90fd5b8480fd5b825b80fd5b50346103495780600319360112610349576040517f00000000000000000000000000000000000000000000000000000000000000006001600160a01b03168152602090f35b5034610349576040366003190112610349576004356103ae6115fd565b818352600360205260ff604084205416610534576001600160a01b0381168084526004602052604084205490919060ff1615610520576103ee8184611abc565b6040516331a9108f60e11b815260048101849052916020836024817f00000000000000000000000000000000000000000000000000000000000000006001600160a01b03165afa801561051557849386916104b3575b507faafd08517185362032409130d3ca4a9fc5b0f259dc591f258d4526471ca6559f9361047091611b06565b83855260066020526040852080546001600160a01b03191690911790556104956122c0565b604080516001600160a01b039384168152919092166020820152a280f35b9350506020833d60201161050d575b816104cf602093836116f8565b8101031261034357610470846105057faafd08517185362032409130d3ca4a9fc5b0f259dc591f258d4526471ca6559f95611800565b915093610444565b3d91506104c2565b6040513d87823e3d90fd5b6302c801b960e21b84526004829052602484fd5b631cc29c1560e11b83526004829052602483fd5b503461034957602036600319011261034957610562611629565b61056a611a49565b6001600160a01b031680156105ba5781546001600160a01b03198116821783556001600160a01b03167f8be0079c531659141344cd1fd0a4f28419497f9722a3daafe3b4186f6b6457e08380a380f35b631e4fbdf760e01b82526004829052602482fd5b5034610349576060366003190112610349576020906105eb6115fd565b506105f4611690565b50604051908152f35b5034610349576020366003190112610349576106176117e2565b506060610625600435611905565b50604051610632816116dd565b8154808252600183015460208084019182526002909401546001600160a01b03908116604094850190815284519384529151948301949094525190921690820152f35b50346103495780600319360112610349576020600254604051908152f35b5034610349576080366003190112610349576024356001600160401b0381116106ef57366023820112156106ef578060040135906001600160401b03821161034757602490369260051b01011161034957602090604051908152f35b5080fd5b50346103495760203660031901126103495760ff60406020926004358152600384522054166040519015158152f35b50346103495780600319360112610349576001546040516001600160a01b039091168152602090f35b503461034957602036600319011261034957602061076a600435611c12565b6040516001600160a01b039091168152f35b5060c036600319011261032c576004356107946115fd565b9060643580151580910361032c576084356001600160401b03811161032c576107c190369060040161163f565b909160a4356001600160401b03811161032c576107e290369060040161163f565b91906107ed86611a1a565b966107fc848360443584611cb1565b966001600160a01b0389169661081389848a61212a565b6001600160a01b035f5c81169b9195916108469161082f6121a9565b166001600160601b0360a01b5f5c16175f5d612235565b883b1561032c575f966108996108ab936040519a8b998a988998639e6eec0560e01b8a5260048a015260018060a01b03169e8f60248a01526044890152606488015260c0608488015260c48701916117c2565b8481036003190160a4860152916117c2565b0391865af180156108ff576108ea575b5061eeee82036108da575b5050815c6001600160a01b03191617815d80f35b6108e391612248565b5f806108c6565b6108f79194505f906116f8565b5f925f6108bb565b6040513d5f823e3d90fd5b3461032c57604036600319011261032c576004356109266115fd565b6040516331a9108f60e11b8152600481018390526020816024817f00000000000000000000000000000000000000000000000000000000000000006001600160a01b03165afa80156108ff5783905f90610a87575b6109859250611b06565b5f828152600660205260409020546001600160a01b0316908115610a2e575b6001600160a01b03908116908216818103610a1957836109c48482611abc565b805f52600360205260405f20600160ff198254161790557f298cca49b7c582ed93d645e96d801db649fb46acc42a8a0983abbbdc6e5de8f26020610a066122c0565b6040516001600160a01b039091168152a2005b63b22dde5760e01b5f5260045260245260445ffd5b9050610a3982611c12565b906001600160a01b03821615610a74575f83815260066020526040902080546001600160a01b0319166001600160a01b0384161790556109a4565b826381a0149760e01b5f5260045260245ffd5b50506020813d602011610abc575b81610aa2602093836116f8565b8101031261032c5782610ab761098592611800565b61097b565b3d9150610a95565b3461032c575f36600319011261032c575f546040516001600160a01b039091168152602090f35b3461032c575f36600319011261032c576040517f00000000000000000000000000000000000000000000000000000000000000006001600160a01b03168152602090f35b3461032c57602036600319011261032c577fdbd0016f09d745a7de013fa9ff851060bcbe062f58cc945289c5a7e5a3a4f23d610b69611629565b610b71611a49565b6001600160a01b0381165f908152600460205260409020805460ff19166001179055610b9b6122c0565b604080516001600160a01b039384168152919092166020820152a1005b3461032c575f36600319011261032c57610bd0611a49565b5f80546001600160a01b0319811682556001600160a01b03167f8be0079c531659141344cd1fd0a4f28419497f9722a3daafe3b4186f6b6457e08280a3005b3461032c575f36600319011261032c576040517f00000000000000000000000000000000000000000000000000000000000000006001600160a01b03168152602090f35b3461032c57602036600319011261032c576001600160a01b03610c74611629565b165f526004602052602060ff60405f2054166040519015158152f35b3461032c57602036600319011261032c576020610cab611629565b6040517f00000000000000000000000000000000000000000000000000000000000000006001600160a01b039081169216919091148152f35b3461032c57602036600319011261032c57610d00600435611935565b6040518091602082016020835281518091526020604084019201905f5b818110610d2b575050500390f35b919350916020606082610d66600194885163ffffffff6040809260018060a01b03815116855260ff6020820151166020860152015116910152565b019401910191849392610d1d565b3461032c57602036600319011261032c57602061076a600435611a8f565b3461032c57602036600319011261032c57610dab611629565b610db3611a49565b6001600160a01b038116908115610f8c57308214610f79576040516306661abd60e01b8152916020836004817f00000000000000000000000000000000000000000000000000000000000000006001600160a01b03165afa9283156108ff575f93610f45575b50610e248284611abc565b6002546001549093906001600160a01b03168015610f3e575b60405194610e4a866116dd565b85526020850194828652604081019160018060a01b0316825260055468010000000000000000811015610f2a57806001610e879201600555611905565b929092610f17577f292a1359f0b0a2015b79afaa9c1054e7680447806ca37d9726fdaf63d590cd719660029251845551600184015560018060a01b0390511691019060018060a01b03166001600160601b0360a01b825416179055816001600160601b0360a01b60015416176001556002555f52600460205260405f20600160ff19825416179055610b9b6122c0565b634e487b7160e01b5f525f60045260245ffd5b634e487b7160e01b5f52604160045260245ffd5b5082610e3d565b9092506020813d602011610f71575b81610f61602093836116f8565b8101031261032c57519183610e19565b3d9150610f54565b50631264c0ff60e01b5f5260045260245ffd5b5063707cb18360e11b5f5260045260245ffd5b3461032c57604036600319011261032c576060610fc5610fbd6115fd565b600435611861565b6040805182516001600160a01b0316815260208084015160ff16908201529181015163ffffffff1690820152f35b3461032c57602036600319011261032c5761100c611629565b611014611a49565b6001546001600160a01b038281169291168214611068577f8e4d443291f4cde63c724c33eda41133859c0d5eef1de6a4702fb8720f866d9d915f52600460205260405f2060ff198154169055610b9b6122c0565b50633b2030a160e11b5f5260045260245ffd5b3461032c575f36600319011261032c576040515f5c6001600160a01b03168152602090f35b3461032c575f36600319011261032c576040517f00000000000000000000000000000000000000000000000000000000000000006001600160a01b03168152602090f35b3461032c57604036600319011261032c576024356001600160401b03811161032c573660238201121561032c578060040135906001600160401b03821161032c57602490606036930201011161032c57005b3461032c575f36600319011261032c576020600554604051908152f35b3461032c5760a036600319011261032c5760043561116f6115fd565b90611178611613565b608435916001600160401b03831161032c576111995f93369060040161163f565b949091846101006040516111ac816116a6565b8281528260208201528260408201528260608201528260808201528260a08201528260c08201528260e0820152015261123c60018060a01b036111ee83611a1a565b169360405197889687958695630aff0c3160e01b8752600487015260018060a01b03166024860152604435604486015260018060a01b0316606485015260a0608485015260a48401916117c2565b03915afa80156108ff575f5f925f905f93611393575b5092919060405193849361010061018086019365ffffffffffff815116875265ffffffffffff602082015116602088015265ffffffffffff604082015116604088015265ffffffffffff606082015116606088015263ffffffff60808201511660808801526001600160701b0360a08201511660a088015263ffffffff60c08201511660c088015260018060a01b0360e08201511660e0880152015161010086015261012085015261014084015261018061016084015281518091526101a083019060206101a08260051b8601019301915f905b82821061133557505050500390f35b91936001919395506020611383819261019f198a8203018652608060608a51878060a01b0381511684528581015115158685015260408101516040850152015191816060820152019061166c565b9601920192018594939192611326565b93505050503d805f833e6113a781836116f8565b8101818103610180811261032c576101201361032c576040516113c9816116a6565b6113d283611719565b81526113e060208401611719565b60208201526113f160408401611719565b604082015261140260608401611719565b60608201526114136080840161172c565b608082015260a08301516001600160701b038116810361032c5760a082015261143e60c0840161172c565b60c082015260e08301516001600160a01b038116810361032c5760e08201526101008301516101008201526101208301519061014084015193610160810151906001600160401b03821161032c57019280601f8501121561032c578351936114a58561173d565b946114b360405196876116f8565b80865260208087019160051b8301019183831161032c5760208101915b8383106114e4575050505050909284611252565b82516001600160401b03811161032c578201906080828703601f19011261032c5760405190611512826116c2565b60208301516001600160a01b038116810361032c57825261153560408401611754565b6020830152606083015160408301526080830151916001600160401b03831161032c5761156a8860208096958196010161177c565b60608201528152019201916114d0565b3461032c57602036600319011261032c576004359063ffffffff60e01b821680920361032c57602091630f514f4d60e41b81149081156115ec575b81156115db575b81156115ca575b5015158152f35b6301ffc9a760e01b149050836115c3565b637343409560e01b811491506115bc565b634fe0eced60e01b811491506115b5565b602435906001600160a01b038216820361032c57565b606435906001600160a01b038216820361032c57565b600435906001600160a01b038216820361032c57565b9181601f8401121561032c578235916001600160401b03831161032c576020838186019501011161032c57565b805180835260209291819084018484015e5f828201840152601f01601f1916010190565b604435906001600160a01b038216820361032c57565b61012081019081106001600160401b03821117610f2a57604052565b608081019081106001600160401b03821117610f2a57604052565b606081019081106001600160401b03821117610f2a57604052565b90601f801991011681019081106001600160401b03821117610f2a57604052565b519065ffffffffffff8216820361032c57565b519063ffffffff8216820361032c57565b6001600160401b038111610f2a5760051b60200190565b5190811515820361032c57565b6001600160401b038111610f2a57601f01601f191660200190565b81601f8201121561032c5780519061179382611761565b926117a160405194856116f8565b8284526020838301011161032c57815f9260208093018386015e8301015290565b908060209392818452848401375f828201840152601f01601f1916010190565b604051906117ef826116dd565b5f6040838281528260208201520152565b51906001600160a01b038216820361032c57565b919082606091031261032c5760405161182c816116dd565b809261183781611800565b825260208101519060ff8216820361032c57604061185c91819360208601520161172c565b910152565b9061186a6117e2565b916001600160a01b0361187c82611a8f565b169283156118fe5750604051633a01714f60e01b815260048101919091526001600160a01b03909116602482015290606090829060449082905afa9081156108ff575f916118c8575090565b905060603d6060116118f7575b6118df81836116f8565b810160608282031261032c576118f491611814565b90565b503d6118d5565b9250505090565b6005548110156119215760055f52600360205f20910201905f90565b634e487b7160e01b5f52603260045260245ffd5b6001600160a01b0361194682611a8f565b16908115611a13575f9060246040518094819363515a929360e01b835260048301525afa9081156108ff575f9161197b575090565b90503d805f833e61198c81836116f8565b81019060208183031261032c578051906001600160401b03821161032c570181601f8201121561032c5780516119c18161173d565b926119cf60405194856116f8565b8184526020606081860193028401019281841161032c57602001915b8383106119f9575050505090565b6020606091611a088486611814565b8152019201916119eb565b5050606090565b90611a2482611a8f565b916001600160a01b03831615611a375750565b6381a0149760e01b5f5260045260245ffd5b5f546001600160a01b0390811690611a5f6122c0565b1603611a6757565b611a6f6122c0565b63118cdaa760e01b5f9081526001600160a01b0391909116600452602490fd5b5f818152600660205260409020546001600160a01b031691908215611ab15750565b6118f4919250611c12565b6001600160a01b0382169190308314611af35790611ada9130612319565b611ae15750565b631264c0ff60e01b5f5260045260245ffd5b82631264c0ff60e01b5f5260045260245ffd5b90611b0f6122c0565b6001600160a01b0392831692168083141580611b59575b611b2f57505050565b6084935060405192631326f75560e11b8452600484015260248301526044820152601f6064820152fd5b50604051631a45b42760e11b8152600481018290526024810184905260448101839052601f606482015260016084820181905260a482015260208160c4817f00000000000000000000000000000000000000000000000000000000000000006001600160a01b03165afa9081156108ff575f91611bd8575b5015611b26565b90506020813d602011611c0a575b81611bf3602093836116f8565b8101031261032c57611c0490611754565b5f611bd1565b3d9150611be6565b6002548111611c7257600554905f5b828110611c2f575050505f90565b611c3881611905565b508054831180611c64575b611c505750600101611c21565b600201546001600160a01b03169392505050565b506001810154831115611c43565b506001546001600160a01b031690565b3d15611cac573d90611c9382611761565b91611ca160405193846116f8565b82523d5f602084013e565b606090565b5f9290916001600160a01b0383169161eeee8314612120573461210d5760409560208751611cdf89826116f8565b60078152663832b936b4ba1960c91b9101523060601b6bffffffffffffffffffffffff191673c16f881b3dd0a1bf52965fa8de2adc6199cef18360601b186001600160e01b031916611d3082611761565b91611d3d895193846116f8565b808352368185011161032c576020815f92611d5f9683870137840101526123e4565b90611e72575b5084516370a0823160e01b815230600482015292602084602481865afa938415611e68578594611e30575b5091611da960209260249430611da46122c0565b6125b7565b85516370a0823160e01b815230600482015292839182905afa938415611e2757508293611df3575b508203918211611ddf575090565b634e487b7160e01b81526011600452602490fd5b9092506020813d602011611e1f575b81611e0f602093836116f8565b8101031261032c5751915f611dd1565b3d9150611e02565b513d84823e3d90fd5b929093506020833d602011611e60575b81611e4d602093836116f8565b8101031261032c57915192611da9611d90565b3d9150611e40565b86513d87823e3d90fd5b805181019060208183031261032c576020810151906001600160401b03821161032c57019060a08282031261032c57865160a081018181106001600160401b03821117610f2a5788526020830151815282880151926001600160a01b038416840361032c5760208201938452611eea60608201611719565b92898301938452611efd60808301611719565b916060840192835260a0810151916001600160401b03831161032c57611f2a92602080920192010161177c565b6080830190815284519094906001600160a01b03168087116120f75750519251905189519365ffffffffffff91821692909116906001600160a01b0316611f70856116c2565b878552602085015289840152606083015251875191611f8e836116dd565b82523060208301908152888301918252917f00000000000000000000000000000000000000000000000000000000000000006001600160a01b031690611fd26122c0565b945192823b1561032c578a516302b67b5760e41b81526001600160a01b0396871660048201529151805187166024840152602081015187166044840152808c015165ffffffffffff9081166064850152606090910151166084830152935190941660a4850152915160c484015261010060e48401525f9183918290849082906120609061010483019061166c565b03925af190816120e2575b506120dd57612078611c82565b827f7e09272f9c04cd2a99107aa546ff6e4b501a0b2dd163864b2e255c5cc9f76fe86120c06120a56122c0565b936120ae6122c0565b948a519283928c84528c84019061166c565b6001600160a01b0396871660208401529516940390a35b5f611d65565b6120d7565b6120ef9195505f906116f8565b5f935f61206b565b86633a52178360e01b5f5260045260245260445ffd5b6307d0d44160e11b5f523460045260245ffd5b5050505050503490565b6001600160a01b03909116919061eeee83146121a35761214b8282856127d0565b15612158575b5050505f90565b612162818461281d565b1561219057906121729183612881565b1561217e578080612151565b635274afe760e01b5f5260045260245ffd5b82635274afe760e01b5f5260045260245ffd5b50905090565b6121b16122c0565b803b156118f4575f80604051602081019063296eee5160e01b8252600481526121db6024826116f8565b5190845afa6121e8611c82565b9015801561222a575b6122265760208180518101031261032c57602001516001600160a01b0381169081900361032c5780612221575090565b905090565b5090565b5060208151106121f1565b6001600160a01b0316338114611ae15750565b906122545f82846127d0565b1561225d575050565b612267818361281d565b1561229f575f6122779183612881565b1561227f5750565b635274afe760e01b5f9081526001600160a01b0391909116600452602490fd5b50635274afe760e01b5f9081526001600160a01b0391909116600452602490fd5b6014361015806122e7575b156122e357601319360136811161032c573560601c90565b3390565b50337f00000000000000000000000000000000000000000000000000000000000000006001600160a01b0316146122cb565b905f925b6005841061232e5750505050600190565b6001600160a01b0390811690831681146123ca575f80916040516020810190634fe0eced60e01b82528560248201526024815261236c6044826116f8565b51915afa612378611c82565b901580156123bf575b6123b75760208180518101031261032c57602001516001600160a01b03811680820361032c57156123b75760019093019261231d565b505050505f90565b506020815110612381565b50505050600190565b908151811015611921570160200190565b90915f91606060258551111561259c578451602410156119215760448501518060f81c9160205b60048101808211612509576001600160f81b0319612429828b6123d3565b511615158061257d575b156125735761244290896123d3565b516020828a01015160f882901c91906001600160e01b031988811691161461246e57505060050161240b565b955095965092905060098301809311918261250957611fe0809160f31c16169080820460201490151715612509578210801590612554575b1561251d575050611fe0808551925b60f31c16169180830460201490151715612509578190039060405193601f19603f8487010116604052828552015f5b8281106124f45750505060019190565b806020809284010151828288010152016124e4565b634e487b7160e01b5f52601160045260245ffd5b6125095761252b90856123d3565b51611fe0808260f81c9260f31c1616908082046020149015171561250957611fe08091926124b5565b505f90506001600160f81b031961256b83886123d3565b5116156124a6565b5050949550505050565b5060f384901c611fe01685156020878304141715612509578210612433565b50509150505f906040516125b16020826116f8565b5f815290565b6001600160a01b03169130831461275857604051636eb1769f60e11b8152600481018490523060248201526001600160a01b03919091169290602081604481875afa80156108ff5785915f91612723575b5010156126b9576001600160a01b0384116126a6577f00000000000000000000000000000000000000000000000000000000000000006001600160a01b031690813b1561032c575f60849281956040519788968795631b63c28b60e11b8752600487015260018060a01b0316602486015260018060a01b0316604485015260648401525af180156108ff5761269a5750565b5f6126a4916116f8565b565b83636442752d60e01b5f5260045260245ffd5b919290604051926323b872dd60e01b5f5260045260018060a01b031660245260445260205f60648180865af19060015f5114821615612702575b6040525f6060521561217e5750565b90600181151661271a57823b15153d151616906126f3565b503d5f823e3d90fd5b9150506020813d602011612750575b8161273f602093836116f8565b8101031261032c578490515f612608565b3d9150612732565b6001600160a01b03169290915061eeee83146127c5576040519163a9059cbb60e01b5f5260018060a01b031660045260245260205f60448180865af19060015f51148216156127ad575b6040521561217e5750565b90600181151661271a57823b15153d151616906127a2565b906126a492506128bc565b92916040519163095ea7b360e01b5f5260018060a01b031660045260245260205f60448180875af19260015f511484161561280c575b50604052565b3d15903b151516909216915f612806565b60405163095ea7b360e01b5f9081526001600160a01b03909316600452602483905290929160209060448180875af19260015f511484161561285f5750604052565b60018492941516612878573b15153d151616915f612806565b833d5f823e3d90fd5b92916040519163095ea7b360e01b5f5260018060a01b031660045260245260205f60448180875af19260015f511484161561285f5750604052565b81471061290b575f8080938193826040516128d86020826116f8565b526001600160a01b03165af1156128eb57565b3d156128fc576040513d5f823e3d90fd5b63d6bda27560e01b5f5260045ffd5b504763cf47918160e01b5f5260045260245260445ffdfea164736f6c634300081c000a",
	"gitCommit": "npm:@bananapus/router-terminal-v6@0.0.64",
	"gitDirty": false,
	"history": []
}